{
  "_format": "hh-sol-artifact-1",
  "contractName": "BorrowingTracker",
  "sourceName": "contracts/Lending/BorrowingTracker.sol",
  "abi": [
    {
      "inputs": [
        {
          "internalType": "address",
          "name": "_lendingTracker",
          "type": "address"
        },
        {
          "internalType": "address",
          "name": "_swapRouter",
          "type": "address"
        }
      ],
      "stateMutability": "nonpayable",
      "type": "constructor"
    },
    {
      "inputs": [],
      "name": "BorrowingTracker_AmountOfCollateralTokenTooLow",
      "type": "error"
    },
    {
      "inputs": [],
      "name": "BorrowingTracker_AmountTooHigh",
      "type": "error"
    },
    {
      "inputs": [],
      "name": "lendingTracker_addressNotAllowed",
      "type": "error"
    },
    {
      "inputs": [],
      "name": "lendingTracker_amountTooHigh",
      "type": "error"
    },
    {
      "inputs": [],
      "name": "lendingTracker_poolNotAvailable",
      "type": "error"
    },
    {
      "inputs": [],
      "name": "lendingTracker_receiptDoesntExist",
      "type": "error"
    },
    {
      "inputs": [],
      "name": "lending_addressNotAllowed",
      "type": "error"
    },
    {
      "anonymous": false,
      "inputs": [
        {
          "indexed": false,
          "internalType": "address",
          "name": "user",
          "type": "address"
        },
        {
          "indexed": false,
          "internalType": "address",
          "name": "terminator",
          "type": "address"
        }
      ],
      "name": "collateralTerminated",
      "type": "event"
    },
    {
      "anonymous": false,
      "inputs": [
        {
          "indexed": true,
          "internalType": "address",
          "name": "user",
          "type": "address"
        },
        {
          "indexed": false,
          "internalType": "address",
          "name": "tokenAddress",
          "type": "address"
        },
        {
          "indexed": false,
          "internalType": "uint256",
          "name": "tokenAmount",
          "type": "uint256"
        }
      ],
      "name": "userBorrowed",
      "type": "event"
    },
    {
      "anonymous": false,
      "inputs": [
        {
          "indexed": true,
          "internalType": "address",
          "name": "user",
          "type": "address"
        },
        {
          "indexed": false,
          "internalType": "address",
          "name": "tokenAddress",
          "type": "address"
        },
        {
          "indexed": false,
          "internalType": "uint256",
          "name": "receiptId",
          "type": "uint256"
        },
        {
          "indexed": false,
          "internalType": "uint256",
          "name": "tokenAmount",
          "type": "uint256"
        },
        {
          "indexed": false,
          "internalType": "uint256",
          "name": "interest",
          "type": "uint256"
        }
      ],
      "name": "userReturnedBorrowedToken",
      "type": "event"
    },
    {
      "anonymous": false,
      "inputs": [
        {
          "indexed": true,
          "internalType": "address",
          "name": "user",
          "type": "address"
        },
        {
          "indexed": false,
          "internalType": "address",
          "name": "tokenAddress",
          "type": "address"
        },
        {
          "indexed": false,
          "internalType": "uint256",
          "name": "tokenAmount",
          "type": "uint256"
        }
      ],
      "name": "userStakedCollateral",
      "type": "event"
    },
    {
      "anonymous": false,
      "inputs": [
        {
          "indexed": true,
          "internalType": "address",
          "name": "user",
          "type": "address"
        },
        {
          "indexed": false,
          "internalType": "address",
          "name": "tokenAddress",
          "type": "address"
        },
        {
          "indexed": false,
          "internalType": "uint256",
          "name": "tokenAmount",
          "type": "uint256"
        }
      ],
      "name": "userUnstakedCollateral",
      "type": "event"
    },
    {
      "inputs": [
        {
          "internalType": "uint256",
          "name": "_id",
          "type": "uint256"
        },
        {
          "internalType": "address",
          "name": "_user",
          "type": "address"
        },
        {
          "internalType": "uint256",
          "name": "tokenAmount",
          "type": "uint256"
        }
      ],
      "name": "accruedInterest",
      "outputs": [
        {
          "internalType": "uint256",
          "name": "",
          "type": "uint256"
        }
      ],
      "stateMutability": "view",
      "type": "function"
    },
    {
      "inputs": [
        {
          "internalType": "address",
          "name": "_swapRouter",
          "type": "address"
        }
      ],
      "name": "addSwapRouter",
      "outputs": [],
      "stateMutability": "nonpayable",
      "type": "function"
    },
    {
      "inputs": [
        {
          "internalType": "address",
          "name": "newSwapToken",
          "type": "address"
        }
      ],
      "name": "addSwapToken",
      "outputs": [],
      "stateMutability": "nonpayable",
      "type": "function"
    },
    {
      "inputs": [
        {
          "internalType": "address",
          "name": "",
          "type": "address"
        },
        {
          "internalType": "uint256",
          "name": "",
          "type": "uint256"
        }
      ],
      "name": "borrowReceiptData",
      "outputs": [
        {
          "internalType": "address",
          "name": "tokenAddress",
          "type": "address"
        },
        {
          "internalType": "uint256",
          "name": "amount",
          "type": "uint256"
        },
        {
          "internalType": "uint256",
          "name": "time",
          "type": "uint256"
        },
        {
          "internalType": "uint256",
          "name": "apy",
          "type": "uint256"
        }
      ],
      "stateMutability": "view",
      "type": "function"
    },
    {
      "inputs": [
        {
          "internalType": "address",
          "name": "tokenAddress",
          "type": "address"
        },
        {
          "internalType": "uint256",
          "name": "tokenAmount",
          "type": "uint256"
        }
      ],
      "name": "borrowToken",
      "outputs": [],
      "stateMutability": "nonpayable",
      "type": "function"
    },
    {
      "inputs": [
        {
          "internalType": "address",
          "name": "",
          "type": "address"
        },
        {
          "internalType": "uint256",
          "name": "",
          "type": "uint256"
        }
      ],
      "name": "borrowedTokens",
      "outputs": [
        {
          "internalType": "address",
          "name": "",
          "type": "address"
        }
      ],
      "stateMutability": "view",
      "type": "function"
    },
    {
      "inputs": [
        {
          "internalType": "address",
          "name": "",
          "type": "address"
        }
      ],
      "name": "borrowingId",
      "outputs": [
        {
          "internalType": "uint256",
          "name": "",
          "type": "uint256"
        }
      ],
      "stateMutability": "view",
      "type": "function"
    },
    {
      "inputs": [
        {
          "internalType": "address",
          "name": "",
          "type": "address"
        },
        {
          "internalType": "address",
          "name": "",
          "type": "address"
        }
      ],
      "name": "collateral",
      "outputs": [
        {
          "internalType": "uint256",
          "name": "",
          "type": "uint256"
        }
      ],
      "stateMutability": "view",
      "type": "function"
    },
    {
      "inputs": [
        {
          "internalType": "address",
          "name": "",
          "type": "address"
        },
        {
          "internalType": "uint256",
          "name": "",
          "type": "uint256"
        }
      ],
      "name": "collateralTokens",
      "outputs": [
        {
          "internalType": "address",
          "name": "",
          "type": "address"
        }
      ],
      "stateMutability": "view",
      "type": "function"
    },
    {
      "inputs": [
        {
          "internalType": "address",
          "name": "user",
          "type": "address"
        }
      ],
      "name": "getBorrowedReceipts",
      "outputs": [
        {
          "internalType": "uint256[]",
          "name": "",
          "type": "uint256[]"
        }
      ],
      "stateMutability": "view",
      "type": "function"
    },
    {
      "inputs": [
        {
          "internalType": "address",
          "name": "user",
          "type": "address"
        }
      ],
      "name": "getBorrowedTokens",
      "outputs": [
        {
          "internalType": "address[]",
          "name": "",
          "type": "address[]"
        }
      ],
      "stateMutability": "view",
      "type": "function"
    },
    {
      "inputs": [
        {
          "internalType": "address",
          "name": "user",
          "type": "address"
        }
      ],
      "name": "getCollateralTokens",
      "outputs": [
        {
          "internalType": "address[]",
          "name": "",
          "type": "address[]"
        }
      ],
      "stateMutability": "view",
      "type": "function"
    },
    {
      "inputs": [],
      "name": "lendingTracker",
      "outputs": [
        {
          "internalType": "contract LendingTracker",
          "name": "",
          "type": "address"
        }
      ],
      "stateMutability": "view",
      "type": "function"
    },
    {
      "inputs": [
        {
          "internalType": "address",
          "name": "user",
          "type": "address"
        },
        {
          "internalType": "address",
          "name": "additionalTokenAddress",
          "type": "address"
        },
        {
          "internalType": "uint256",
          "name": "tokenAmount",
          "type": "uint256"
        }
      ],
      "name": "liquidityTreshold",
      "outputs": [
        {
          "internalType": "int256",
          "name": "",
          "type": "int256"
        }
      ],
      "stateMutability": "view",
      "type": "function"
    },
    {
      "inputs": [],
      "name": "ltv",
      "outputs": [
        {
          "internalType": "int256",
          "name": "",
          "type": "int256"
        }
      ],
      "stateMutability": "view",
      "type": "function"
    },
    {
      "inputs": [
        {
          "internalType": "uint256",
          "name": "id",
          "type": "uint256"
        },
        {
          "internalType": "uint256",
          "name": "tokenAmount",
          "type": "uint256"
        }
      ],
      "name": "returnBorrowedToken",
      "outputs": [],
      "stateMutability": "nonpayable",
      "type": "function"
    },
    {
      "inputs": [
        {
          "internalType": "address",
          "name": "tokenAddress",
          "type": "address"
        },
        {
          "internalType": "uint256",
          "name": "tokenAmount",
          "type": "uint256"
        }
      ],
      "name": "stakeCollateral",
      "outputs": [],
      "stateMutability": "nonpayable",
      "type": "function"
    },
    {
      "inputs": [],
      "name": "swapRouter",
      "outputs": [
        {
          "internalType": "contract SwapRouter",
          "name": "",
          "type": "address"
        }
      ],
      "stateMutability": "view",
      "type": "function"
    },
    {
      "inputs": [],
      "name": "swapToken",
      "outputs": [
        {
          "internalType": "address",
          "name": "",
          "type": "address"
        }
      ],
      "stateMutability": "view",
      "type": "function"
    },
    {
      "inputs": [
        {
          "internalType": "address",
          "name": "userAddress",
          "type": "address"
        }
      ],
      "name": "terminateCollateral",
      "outputs": [],
      "stateMutability": "payable",
      "type": "function"
    },
    {
      "inputs": [
        {
          "internalType": "address",
          "name": "",
          "type": "address"
        }
      ],
      "name": "totalBorrowed",
      "outputs": [
        {
          "internalType": "uint256",
          "name": "",
          "type": "uint256"
        }
      ],
      "stateMutability": "view",
      "type": "function"
    },
    {
      "inputs": [
        {
          "internalType": "address",
          "name": "tokenAddress",
          "type": "address"
        },
        {
          "internalType": "uint256",
          "name": "tokenAmount",
          "type": "uint256"
        }
      ],
      "name": "unstakeCollateral",
      "outputs": [],
      "stateMutability": "nonpayable",
      "type": "function"
    },
    {
      "inputs": [
        {
          "internalType": "address",
          "name": "",
          "type": "address"
        },
        {
          "internalType": "address",
          "name": "",
          "type": "address"
        },
        {
          "internalType": "uint256",
          "name": "",
          "type": "uint256"
        }
      ],
      "name": "userBorrowReceipts",
      "outputs": [
        {
          "internalType": "uint256",
          "name": "",
          "type": "uint256"
        }
      ],
      "stateMutability": "view",
      "type": "function"
    }
  ],
  "bytecode": "0x6080604052604b6000553480156200001657600080fd5b5060405162005b3e38038062005b3e83398181016040528101906200003c919062000171565b33600160006101000a81548173ffffffffffffffffffffffffffffffffffffffff021916908373ffffffffffffffffffffffffffffffffffffffff16021790555081600460006101000a81548173ffffffffffffffffffffffffffffffffffffffff021916908373ffffffffffffffffffffffffffffffffffffffff16021790555080600260006101000a81548173ffffffffffffffffffffffffffffffffffffffff021916908373ffffffffffffffffffffffffffffffffffffffff1602179055505050620001b8565b600080fd5b600073ffffffffffffffffffffffffffffffffffffffff82169050919050565b600062000139826200010c565b9050919050565b6200014b816200012c565b81146200015757600080fd5b50565b6000815190506200016b8162000140565b92915050565b600080604083850312156200018b576200018a62000107565b5b60006200019b858286016200015a565b9250506020620001ae858286016200015a565b9150509250929050565b61597680620001c86000396000f3fe6080604052600436106101405760003560e01c80636fb49d73116100b6578063cc218ece1161006f578063cc218ece14610495578063dbf50bfc146104d2578063dc73e49c146104fd578063e0b1d23714610528578063e2e1ca2b14610568578063ed903f7a146105a557610140565b80636fb49d731461034b578063784eddd81461037657806383eaf8bc146103b3578063b2f7f916146103f0578063b3f8d9001461042d578063c31c9c071461046a57610140565b8063322de33211610108578063322de3321461022d57806347c47ed3146102565780634bb3df991461027f5780635a91b39c146102a85780635cf8f780146102d15780636178bad61461030e57610140565b80630d9328a614610145578063106c6dbc1461018257806315ec777a146101ab5780632b798f49146101d45780632cb8f67614610211575b600080fd5b34801561015157600080fd5b5061016c60048036038101906101679190614d49565b6105e2565b6040516101799190614dab565b60405180910390f35b34801561018e57600080fd5b506101a960048036038101906101a49190614dc6565b610795565b005b3480156101b757600080fd5b506101d260048036038101906101cd9190614e06565b6113cf565b005b3480156101e057600080fd5b506101fb60048036038101906101f69190614e33565b61149a565b6040516102089190614e82565b60405180910390f35b61022b60048036038101906102269190614e06565b6114e8565b005b34801561023957600080fd5b50610254600480360381019061024f9190614e33565b6127d5565b005b34801561026257600080fd5b5061027d60048036038101906102789190614e06565b612c19565b005b34801561028b57600080fd5b506102a660048036038101906102a19190614e33565b612ce4565b005b3480156102b457600080fd5b506102cf60048036038101906102ca9190614e33565b61348d565b005b3480156102dd57600080fd5b506102f860048036038101906102f39190614e33565b613c27565b6040516103059190614e82565b60405180910390f35b34801561031a57600080fd5b5061033560048036038101906103309190614e06565b613c75565b6040516103429190614f5b565b60405180910390f35b34801561035757600080fd5b50610360613d42565b60405161036d9190614f96565b60405180910390f35b34801561038257600080fd5b5061039d60048036038101906103989190614fb1565b613d48565b6040516103aa9190614f96565b60405180910390f35b3480156103bf57600080fd5b506103da60048036038101906103d59190614fb1565b614515565b6040516103e79190614dab565b60405180910390f35b3480156103fc57600080fd5b5061041760048036038101906104129190614e06565b614553565b6040516104249190614dab565b60405180910390f35b34801561043957600080fd5b50610454600480360381019061044f9190614e06565b61456b565b60405161046191906150c2565b60405180910390f35b34801561047657600080fd5b5061047f6149d9565b60405161048c9190615143565b60405180910390f35b3480156104a157600080fd5b506104bc60048036038101906104b7919061515e565b6149ff565b6040516104c99190614dab565b60405180910390f35b3480156104de57600080fd5b506104e7614a24565b6040516104f491906151d1565b60405180910390f35b34801561050957600080fd5b50610512614a4a565b60405161051f9190614e82565b60405180910390f35b34801561053457600080fd5b5061054f600480360381019061054a9190614e33565b614a70565b60405161055f94939291906151ec565b60405180910390f35b34801561057457600080fd5b5061058f600480360381019061058a9190614e06565b614acd565b60405161059c9190614dab565b60405180910390f35b3480156105b157600080fd5b506105cc60048036038101906105c79190614e06565b614ae5565b6040516105d99190614f5b565b60405180910390f35b600080600a60008573ffffffffffffffffffffffffffffffffffffffff1673ffffffffffffffffffffffffffffffffffffffff16815260200190815260200160002060008681526020019081526020016000206003015490506000600a60008673ffffffffffffffffffffffffffffffffffffffff1673ffffffffffffffffffffffffffffffffffffffff16815260200190815260200160002060008781526020019081526020016000206002015490506000600a60008773ffffffffffffffffffffffffffffffffffffffff1673ffffffffffffffffffffffffffffffffffffffff1681526020019081526020016000206000888152602001908152602001600020600101549050600083036106ff576000935050505061078e565b80851115610739576040517f6aff58d500000000000000000000000000000000000000000000000000000000815260040160405180910390fd5b6000606463bbf81e0085858560648b6107529190615260565b61075c91906152d1565b6107669190615260565b6107709190615260565b61077a91906152d1565b6107849190615260565b9050809450505050505b9392505050565b6000600a60003373ffffffffffffffffffffffffffffffffffffffff1673ffffffffffffffffffffffffffffffffffffffff16815260200190815260200160002060008481526020019081526020016000206001015403610822576040517fd4ca1fe200000000000000000000000000000000000000000000000000000000815260040160405180910390fd5b600081600a60003373ffffffffffffffffffffffffffffffffffffffff1673ffffffffffffffffffffffffffffffffffffffff1681526020019081526020016000206000858152602001908152602001600020600101546108839190615302565b10156108bb576040517f6fc3494000000000000000000000000000000000000000000000000000000000815260040160405180910390fd5b6000600a60003373ffffffffffffffffffffffffffffffffffffffff1673ffffffffffffffffffffffffffffffffffffffff168152602001908152602001600020600084815260200190815260200160002060000160009054906101000a900473ffffffffffffffffffffffffffffffffffffffff16905081600a60003373ffffffffffffffffffffffffffffffffffffffff1673ffffffffffffffffffffffffffffffffffffffff168152602001908152602001600020600085815260200190815260200160002060010160008282546109969190615302565b9250508190555060006109aa8433856105e2565b9050600080600460009054906101000a900473ffffffffffffffffffffffffffffffffffffffff1673ffffffffffffffffffffffffffffffffffffffff1663989796b5856040518263ffffffff1660e01b8152600401610a0a9190614e82565b6040805180830381865afa158015610a26573d6000803e3d6000fd5b505050506040513d601f19601f82011682018060405250810190610a4a9190615389565b915091508373ffffffffffffffffffffffffffffffffffffffff166323b872dd33848689610a7891906153c9565b6040518463ffffffff1660e01b8152600401610a96939291906153fd565b6020604051808303816000875af1158015610ab5573d6000803e3d6000fd5b505050506040513d601f19601f82011682018060405250810190610ad9919061546c565b508173ffffffffffffffffffffffffffffffffffffffff1663cd682060846040518263ffffffff1660e01b8152600401610b139190614dab565b600060405180830381600087803b158015610b2d57600080fd5b505af1158015610b41573d6000803e3d6000fd5b505050506000600a60003373ffffffffffffffffffffffffffffffffffffffff1673ffffffffffffffffffffffffffffffffffffffff168152602001908152602001600020600088815260200190815260200160002060010154036112b45760005b600960003373ffffffffffffffffffffffffffffffffffffffff1673ffffffffffffffffffffffffffffffffffffffff16815260200190815260200160002060008673ffffffffffffffffffffffffffffffffffffffff1673ffffffffffffffffffffffffffffffffffffffff16815260200190815260200160002080549050811015610f395786600960003373ffffffffffffffffffffffffffffffffffffffff1673ffffffffffffffffffffffffffffffffffffffff16815260200190815260200160002060008773ffffffffffffffffffffffffffffffffffffffff1673ffffffffffffffffffffffffffffffffffffffff1681526020019081526020016000208281548110610cb957610cb8615499565b5b906000526020600020015403610f2c57600960003373ffffffffffffffffffffffffffffffffffffffff1673ffffffffffffffffffffffffffffffffffffffff16815260200190815260200160002060008673ffffffffffffffffffffffffffffffffffffffff1673ffffffffffffffffffffffffffffffffffffffff1681526020019081526020016000206001600960003373ffffffffffffffffffffffffffffffffffffffff1673ffffffffffffffffffffffffffffffffffffffff16815260200190815260200160002060008873ffffffffffffffffffffffffffffffffffffffff1673ffffffffffffffffffffffffffffffffffffffff16815260200190815260200160002080549050610dd19190615302565b81548110610de257610de1615499565b5b9060005260206000200154600960003373ffffffffffffffffffffffffffffffffffffffff1673ffffffffffffffffffffffffffffffffffffffff16815260200190815260200160002060008773ffffffffffffffffffffffffffffffffffffffff1673ffffffffffffffffffffffffffffffffffffffff1681526020019081526020016000208281548110610e7b57610e7a615499565b5b9060005260206000200181905550600960003373ffffffffffffffffffffffffffffffffffffffff1673ffffffffffffffffffffffffffffffffffffffff16815260200190815260200160002060008673ffffffffffffffffffffffffffffffffffffffff1673ffffffffffffffffffffffffffffffffffffffff168152602001908152602001600020805480610f1557610f146154c8565b5b600190038181906000526020600020016000905590555b8080600101915050610ba3565b506000600960003373ffffffffffffffffffffffffffffffffffffffff1673ffffffffffffffffffffffffffffffffffffffff16815260200190815260200160002060008673ffffffffffffffffffffffffffffffffffffffff1673ffffffffffffffffffffffffffffffffffffffff16815260200190815260200160002080549050036112b35760005b600760003373ffffffffffffffffffffffffffffffffffffffff1673ffffffffffffffffffffffffffffffffffffffff168152602001908152602001600020805490508110156112b1578473ffffffffffffffffffffffffffffffffffffffff16600760003373ffffffffffffffffffffffffffffffffffffffff1673ffffffffffffffffffffffffffffffffffffffff168152602001908152602001600020828154811061107657611075615499565b5b9060005260206000200160009054906101000a900473ffffffffffffffffffffffffffffffffffffffff1673ffffffffffffffffffffffffffffffffffffffff16036112a457600760003373ffffffffffffffffffffffffffffffffffffffff1673ffffffffffffffffffffffffffffffffffffffff1681526020019081526020016000206001600760003373ffffffffffffffffffffffffffffffffffffffff1673ffffffffffffffffffffffffffffffffffffffff1681526020019081526020016000208054905061114a9190615302565b8154811061115b5761115a615499565b5b9060005260206000200160009054906101000a900473ffffffffffffffffffffffffffffffffffffffff16600760003373ffffffffffffffffffffffffffffffffffffffff1673ffffffffffffffffffffffffffffffffffffffff16815260200190815260200160002082815481106111d7576111d6615499565b5b9060005260206000200160006101000a81548173ffffffffffffffffffffffffffffffffffffffff021916908373ffffffffffffffffffffffffffffffffffffffff160217905550600760003373ffffffffffffffffffffffffffffffffffffffff1673ffffffffffffffffffffffffffffffffffffffff16815260200190815260200160002080548061126e5761126d6154c8565b5b6001900381819060005260206000200160006101000a81549073ffffffffffffffffffffffffffffffffffffffff021916905590555b8080600101915050610fc4565b505b5b60006112bf82614bb2565b90506000811215611305576040517f08c379a00000000000000000000000000000000000000000000000000000000081526004016112fc90615554565b60405180910390fd5b6000819050600087826113189190615260565b905080600b60003373ffffffffffffffffffffffffffffffffffffffff1673ffffffffffffffffffffffffffffffffffffffff16815260200190815260200160002060008282546113699190615302565b925050819055503373ffffffffffffffffffffffffffffffffffffffff167f3d3dc018f55160b3fa5bcc9f5f8f595211524dd7cc1320607df0a09c236dd50e888b8b8a6040516113bc94939291906151ec565b60405180910390a2505050505050505050565b600160009054906101000a900473ffffffffffffffffffffffffffffffffffffffff1673ffffffffffffffffffffffffffffffffffffffff163373ffffffffffffffffffffffffffffffffffffffff1614611456576040517feed3ab2300000000000000000000000000000000000000000000000000000000815260040160405180910390fd5b80600260006101000a81548173ffffffffffffffffffffffffffffffffffffffff021916908373ffffffffffffffffffffffffffffffffffffffff16021790555050565b600660205281600052604060002081815481106114b657600080fd5b906000526020600020016000915091509054906101000a900473ffffffffffffffffffffffffffffffffffffffff1681565b6000546114f782600080613d48565b1361152e576040517f56f37e7800000000000000000000000000000000000000000000000000000000815260040160405180910390fd5b60004790506000805b600660008573ffffffffffffffffffffffffffffffffffffffff1673ffffffffffffffffffffffffffffffffffffffff16815260200190815260200160002080549050811015611b66576000600660008673ffffffffffffffffffffffffffffffffffffffff1673ffffffffffffffffffffffffffffffffffffffff16815260200190815260200160002082815481106115d4576115d3615499565b5b9060005260206000200160009054906101000a900473ffffffffffffffffffffffffffffffffffffffff1690506000600560008773ffffffffffffffffffffffffffffffffffffffff1673ffffffffffffffffffffffffffffffffffffffff16815260200190815260200160002060008373ffffffffffffffffffffffffffffffffffffffff1673ffffffffffffffffffffffffffffffffffffffff168152602001908152602001600020549050600360009054906101000a900473ffffffffffffffffffffffffffffffffffffffff1673ffffffffffffffffffffffffffffffffffffffff168273ffffffffffffffffffffffffffffffffffffffff16036116ea5780846116e391906153c9565b9350611873565b6000600260009054906101000a900473ffffffffffffffffffffffffffffffffffffffff1673ffffffffffffffffffffffffffffffffffffffff1663635bc0c284600360009054906101000a900473ffffffffffffffffffffffffffffffffffffffff16856040518463ffffffff1660e01b815260040161176d939291906153fd565b602060405180830381865afa15801561178a573d6000803e3d6000fd5b505050506040513d601f19601f820116820180604052508101906117ae9190615589565b9050600260009054906101000a900473ffffffffffffffffffffffffffffffffffffffff1673ffffffffffffffffffffffffffffffffffffffff1663fe9f5c0584600360009054906101000a900473ffffffffffffffffffffffffffffffffffffffff16856040518463ffffffff1660e01b8152600401611831939291906153fd565b600060405180830381600087803b15801561184b57600080fd5b505af115801561185f573d6000803e3d6000fd5b50505050808561186f91906153c9565b9450505b6000600560008873ffffffffffffffffffffffffffffffffffffffff1673ffffffffffffffffffffffffffffffffffffffff1681526020019081526020016000206000600660008a73ffffffffffffffffffffffffffffffffffffffff1673ffffffffffffffffffffffffffffffffffffffff168152602001908152602001600020868154811061190757611906615499565b5b9060005260206000200160009054906101000a900473ffffffffffffffffffffffffffffffffffffffff1673ffffffffffffffffffffffffffffffffffffffff1673ffffffffffffffffffffffffffffffffffffffff16815260200190815260200160002081905550600660008773ffffffffffffffffffffffffffffffffffffffff1673ffffffffffffffffffffffffffffffffffffffff1681526020019081526020016000206001600660008973ffffffffffffffffffffffffffffffffffffffff1673ffffffffffffffffffffffffffffffffffffffff168152602001908152602001600020805490506119fe9190615302565b81548110611a0f57611a0e615499565b5b9060005260206000200160009054906101000a900473ffffffffffffffffffffffffffffffffffffffff16600660008873ffffffffffffffffffffffffffffffffffffffff1673ffffffffffffffffffffffffffffffffffffffff1681526020019081526020016000208481548110611a8b57611a8a615499565b5b9060005260206000200160006101000a81548173ffffffffffffffffffffffffffffffffffffffff021916908373ffffffffffffffffffffffffffffffffffffffff160217905550600660008773ffffffffffffffffffffffffffffffffffffffff1673ffffffffffffffffffffffffffffffffffffffff168152602001908152602001600020805480611b2257611b216154c8565b5b6001900381819060005260206000200160006101000a81549073ffffffffffffffffffffffffffffffffffffffff0219169055905550508080600101915050611537565b5060005b600760008573ffffffffffffffffffffffffffffffffffffffff1673ffffffffffffffffffffffffffffffffffffffff16815260200190815260200160002080549050811015612637576000806000600760008873ffffffffffffffffffffffffffffffffffffffff1673ffffffffffffffffffffffffffffffffffffffff1681526020019081526020016000208481548110611c0a57611c09615499565b5b9060005260206000200160009054906101000a900473ffffffffffffffffffffffffffffffffffffffff16905060005b600960008973ffffffffffffffffffffffffffffffffffffffff1673ffffffffffffffffffffffffffffffffffffffff16815260200190815260200160002060008373ffffffffffffffffffffffffffffffffffffffff1673ffffffffffffffffffffffffffffffffffffffff168152602001908152602001600020805490508110156120bd576000600960008a73ffffffffffffffffffffffffffffffffffffffff1673ffffffffffffffffffffffffffffffffffffffff16815260200190815260200160002060008473ffffffffffffffffffffffffffffffffffffffff1673ffffffffffffffffffffffffffffffffffffffff1681526020019081526020016000208681548110611d5157611d50615499565b5b906000526020600020015490506000600a60008b73ffffffffffffffffffffffffffffffffffffffff1673ffffffffffffffffffffffffffffffffffffffff16815260200190815260200160002060008381526020019081526020016000206001015490506000611dc3838c846105e2565b90508082611dd191906153c9565b87611ddc91906153c9565b96508086611dea91906153c9565b95506000600a60008d73ffffffffffffffffffffffffffffffffffffffff1673ffffffffffffffffffffffffffffffffffffffff168152602001908152602001600020600085815260200190815260200160002060010181905550600960008c73ffffffffffffffffffffffffffffffffffffffff1673ffffffffffffffffffffffffffffffffffffffff16815260200190815260200160002060008673ffffffffffffffffffffffffffffffffffffffff1673ffffffffffffffffffffffffffffffffffffffff1681526020019081526020016000206001600960008e73ffffffffffffffffffffffffffffffffffffffff1673ffffffffffffffffffffffffffffffffffffffff16815260200190815260200160002060008873ffffffffffffffffffffffffffffffffffffffff1673ffffffffffffffffffffffffffffffffffffffff16815260200190815260200160002080549050611f4d9190615302565b81548110611f5e57611f5d615499565b5b9060005260206000200154600960008d73ffffffffffffffffffffffffffffffffffffffff1673ffffffffffffffffffffffffffffffffffffffff16815260200190815260200160002060008773ffffffffffffffffffffffffffffffffffffffff1673ffffffffffffffffffffffffffffffffffffffff1681526020019081526020016000208581548110611ff757611ff6615499565b5b9060005260206000200181905550600960008c73ffffffffffffffffffffffffffffffffffffffff1673ffffffffffffffffffffffffffffffffffffffff16815260200190815260200160002060008673ffffffffffffffffffffffffffffffffffffffff1673ffffffffffffffffffffffffffffffffffffffff168152602001908152602001600020805480612091576120906154c8565b5b6001900381819060005260206000200160009055905550505084806120b5906155b6565b955050611c3a565b50600360009054906101000a900473ffffffffffffffffffffffffffffffffffffffff1673ffffffffffffffffffffffffffffffffffffffff168173ffffffffffffffffffffffffffffffffffffffff160361212657828561211f9190615302565b94506122af565b6000600260009054906101000a900473ffffffffffffffffffffffffffffffffffffffff1673ffffffffffffffffffffffffffffffffffffffff1663635bc0c283600360009054906101000a900473ffffffffffffffffffffffffffffffffffffffff16876040518463ffffffff1660e01b81526004016121a9939291906153fd565b602060405180830381865afa1580156121c6573d6000803e3d6000fd5b505050506040513d601f19601f820116820180604052508101906121ea9190615589565b9050600260009054906101000a900473ffffffffffffffffffffffffffffffffffffffff1673ffffffffffffffffffffffffffffffffffffffff1663fe9f5c05600360009054906101000a900473ffffffffffffffffffffffffffffffffffffffff1684846040518463ffffffff1660e01b815260040161226d939291906153fd565b600060405180830381600087803b15801561228757600080fd5b505af115801561229b573d6000803e3d6000fd5b5050505080866122ab9190615302565b9550505b6000600460009054906101000a900473ffffffffffffffffffffffffffffffffffffffff1673ffffffffffffffffffffffffffffffffffffffff1663989796b5836040518263ffffffff1660e01b815260040161230c9190614e82565b6040805180830381865afa158015612328573d6000803e3d6000fd5b505050506040513d601f19601f8201168201806040525081019061234c9190615389565b5090508173ffffffffffffffffffffffffffffffffffffffff1663a9059cbb82866040518363ffffffff1660e01b815260040161238a9291906155fe565b6020604051808303816000875af11580156123a9573d6000803e3d6000fd5b505050506040513d601f19601f820116820180604052508101906123cd919061546c565b508073ffffffffffffffffffffffffffffffffffffffff1663cd682060846040518263ffffffff1660e01b81526004016124079190614dab565b600060405180830381600087803b15801561242157600080fd5b505af1158015612435573d6000803e3d6000fd5b50505050600760008973ffffffffffffffffffffffffffffffffffffffff1673ffffffffffffffffffffffffffffffffffffffff1681526020019081526020016000206001600760008b73ffffffffffffffffffffffffffffffffffffffff1673ffffffffffffffffffffffffffffffffffffffff168152602001908152602001600020805490506124c79190615302565b815481106124d8576124d7615499565b5b9060005260206000200160009054906101000a900473ffffffffffffffffffffffffffffffffffffffff16600760008a73ffffffffffffffffffffffffffffffffffffffff1673ffffffffffffffffffffffffffffffffffffffff168152602001908152602001600020868154811061255457612553615499565b5b9060005260206000200160006101000a81548173ffffffffffffffffffffffffffffffffffffffff021916908373ffffffffffffffffffffffffffffffffffffffff160217905550600760008973ffffffffffffffffffffffffffffffffffffffff1673ffffffffffffffffffffffffffffffffffffffff1681526020019081526020016000208054806125eb576125ea6154c8565b5b6001900381819060005260206000200160006101000a81549073ffffffffffffffffffffffffffffffffffffffff0219169055905550505050808061262f906155b6565b915050611b6a565b50600360009054906101000a900473ffffffffffffffffffffffffffffffffffffffff1673ffffffffffffffffffffffffffffffffffffffff1663a9059cbb33836040518363ffffffff1660e01b81526004016126959291906155fe565b6020604051808303816000875af11580156126b4573d6000803e3d6000fd5b505050506040513d601f19601f820116820180604052508101906126d8919061546c565b50600047905060003373ffffffffffffffffffffffffffffffffffffffff1684836127039190615302565b60405161270f90615658565b60006040518083038185875af1925050503d806000811461274c576040519150601f19603f3d011682016040523d82523d6000602084013e612751565b606091505b5050905080612795576040517f08c379a000000000000000000000000000000000000000000000000000000000815260040161278c906156b9565b60405180910390fd5b7f2c84ea15e82e281260950b7aac966ce1bffefd1627caf5e54ad38c2bbc5b132485336040516127c69291906156d9565b60405180910390a15050505050565b600080600460009054906101000a900473ffffffffffffffffffffffffffffffffffffffff1673ffffffffffffffffffffffffffffffffffffffff1663989796b5856040518263ffffffff1660e01b81526004016128339190614e82565b6040805180830381865afa15801561284f573d6000803e3d6000fd5b505050506040513d601f19601f820116820180604052508101906128739190615389565b91509150600073ffffffffffffffffffffffffffffffffffffffff168273ffffffffffffffffffffffffffffffffffffffff16036128dd576040517f4ba53a4500000000000000000000000000000000000000000000000000000000815260040160405180910390fd5b6b204fce5e3e25026110000000836128f483614bb2565b6128fe9190615260565b1015612936576040517f779423de00000000000000000000000000000000000000000000000000000000815260040160405180910390fd5b8373ffffffffffffffffffffffffffffffffffffffff166323b872dd3330866040518463ffffffff1660e01b8152600401612973939291906153fd565b6020604051808303816000875af1158015612992573d6000803e3d6000fd5b505050506040513d601f19601f820116820180604052508101906129b6919061546c565b5060011515612a88600660003373ffffffffffffffffffffffffffffffffffffffff1673ffffffffffffffffffffffffffffffffffffffff168152602001908152602001600020805480602002602001604051908101604052809291908181526020018280548015612a7d57602002820191906000526020600020905b8160009054906101000a900473ffffffffffffffffffffffffffffffffffffffff1673ffffffffffffffffffffffffffffffffffffffff1681526020019060010190808311612a33575b505050505086614c33565b151503612b3057600660003373ffffffffffffffffffffffffffffffffffffffff1673ffffffffffffffffffffffffffffffffffffffff168152602001908152602001600020849080600181540180825580915050600190039060005260206000200160009091909190916101000a81548173ffffffffffffffffffffffffffffffffffffffff021916908373ffffffffffffffffffffffffffffffffffffffff1602179055505b82600560003373ffffffffffffffffffffffffffffffffffffffff1673ffffffffffffffffffffffffffffffffffffffff16815260200190815260200160002060008673ffffffffffffffffffffffffffffffffffffffff1673ffffffffffffffffffffffffffffffffffffffff1681526020019081526020016000206000828254612bbc91906153c9565b925050819055503373ffffffffffffffffffffffffffffffffffffffff167fb759534d8717c1bc7cde21fa6affd5a9d205d5ab4c3bce20bd815a13976029228585604051612c0b9291906155fe565b60405180910390a250505050565b600160009054906101000a900473ffffffffffffffffffffffffffffffffffffffff1673ffffffffffffffffffffffffffffffffffffffff163373ffffffffffffffffffffffffffffffffffffffff1614612ca0576040517feed3ab2300000000000000000000000000000000000000000000000000000000815260040160405180910390fd5b80600360006101000a81548173ffffffffffffffffffffffffffffffffffffffff021916908373ffffffffffffffffffffffffffffffffffffffff16021790555050565b600081600560003373ffffffffffffffffffffffffffffffffffffffff1673ffffffffffffffffffffffffffffffffffffffff16815260200190815260200160002060008573ffffffffffffffffffffffffffffffffffffffff1673ffffffffffffffffffffffffffffffffffffffff16815260200190815260200160002054612d6e9190615302565b108015612dbd57506000600760003373ffffffffffffffffffffffffffffffffffffffff1673ffffffffffffffffffffffffffffffffffffffff16815260200190815260200160002080549050115b15612df4576040517f56f37e7800000000000000000000000000000000000000000000000000000000815260040160405180910390fd5b6000600460009054906101000a900473ffffffffffffffffffffffffffffffffffffffff1673ffffffffffffffffffffffffffffffffffffffff1663989796b5846040518263ffffffff1660e01b8152600401612e519190614e82565b6040805180830381865afa158015612e6d573d6000803e3d6000fd5b505050506040513d601f19601f82011682018060405250810190612e919190615389565b9150506402540be400600560003373ffffffffffffffffffffffffffffffffffffffff1673ffffffffffffffffffffffffffffffffffffffff16815260200190815260200160002060008573ffffffffffffffffffffffffffffffffffffffff1673ffffffffffffffffffffffffffffffffffffffff16815260200190815260200160002054612f2083614bb2565b612f2a9190615260565b1015612fb057600560003373ffffffffffffffffffffffffffffffffffffffff1673ffffffffffffffffffffffffffffffffffffffff16815260200190815260200160002060008473ffffffffffffffffffffffffffffffffffffffff1673ffffffffffffffffffffffffffffffffffffffff1681526020019081526020016000205491505b81600560003373ffffffffffffffffffffffffffffffffffffffff1673ffffffffffffffffffffffffffffffffffffffff16815260200190815260200160002060008573ffffffffffffffffffffffffffffffffffffffff1673ffffffffffffffffffffffffffffffffffffffff168152602001908152602001600020600082825461303c9190615302565b925050819055508273ffffffffffffffffffffffffffffffffffffffff1663a9059cbb33846040518363ffffffff1660e01b815260040161307e9291906155fe565b6020604051808303816000875af115801561309d573d6000803e3d6000fd5b505050506040513d601f19601f820116820180604052508101906130c1919061546c565b506000600560003373ffffffffffffffffffffffffffffffffffffffff1673ffffffffffffffffffffffffffffffffffffffff16815260200190815260200160002060008573ffffffffffffffffffffffffffffffffffffffff1673ffffffffffffffffffffffffffffffffffffffff16815260200190815260200160002054036134385760005b600660003373ffffffffffffffffffffffffffffffffffffffff1673ffffffffffffffffffffffffffffffffffffffff16815260200190815260200160002080549050811015613436578373ffffffffffffffffffffffffffffffffffffffff16600660003373ffffffffffffffffffffffffffffffffffffffff1673ffffffffffffffffffffffffffffffffffffffff16815260200190815260200160002082815481106131fb576131fa615499565b5b9060005260206000200160009054906101000a900473ffffffffffffffffffffffffffffffffffffffff1673ffffffffffffffffffffffffffffffffffffffff160361342957600660003373ffffffffffffffffffffffffffffffffffffffff1673ffffffffffffffffffffffffffffffffffffffff1681526020019081526020016000206001600660003373ffffffffffffffffffffffffffffffffffffffff1673ffffffffffffffffffffffffffffffffffffffff168152602001908152602001600020805490506132cf9190615302565b815481106132e0576132df615499565b5b9060005260206000200160009054906101000a900473ffffffffffffffffffffffffffffffffffffffff16600660003373ffffffffffffffffffffffffffffffffffffffff1673ffffffffffffffffffffffffffffffffffffffff168152602001908152602001600020828154811061335c5761335b615499565b5b9060005260206000200160006101000a81548173ffffffffffffffffffffffffffffffffffffffff021916908373ffffffffffffffffffffffffffffffffffffffff160217905550600660003373ffffffffffffffffffffffffffffffffffffffff1673ffffffffffffffffffffffffffffffffffffffff1681526020019081526020016000208054806133f3576133f26154c8565b5b6001900381819060005260206000200160006101000a81549073ffffffffffffffffffffffffffffffffffffffff021916905590555b8080600101915050613149565b505b3373ffffffffffffffffffffffffffffffffffffffff167fcfe1e6d30a42cc481f02ea9cce49c86f8ae93242f28b0622f864b30a35bbb2d284846040516134809291906155fe565b60405180910390a2505050565b600080600460009054906101000a900473ffffffffffffffffffffffffffffffffffffffff1673ffffffffffffffffffffffffffffffffffffffff1663989796b5856040518263ffffffff1660e01b81526004016134eb9190614e82565b6040805180830381865afa158015613507573d6000803e3d6000fd5b505050506040513d601f19601f8201168201806040525081019061352b9190615389565b91509150600073ffffffffffffffffffffffffffffffffffffffff168273ffffffffffffffffffffffffffffffffffffffff1603613595576040517f4ba53a4500000000000000000000000000000000000000000000000000000000815260040160405180910390fd5b6000546135a3338686613d48565b126135da576040517f6fc3494000000000000000000000000000000000000000000000000000000000815260040160405180910390fd5b8173ffffffffffffffffffffffffffffffffffffffff1663c5ebeaec846040518263ffffffff1660e01b81526004016136139190614dab565b600060405180830381600087803b15801561362d57600080fd5b505af1158015613641573d6000803e3d6000fd5b5050505060011515613716600760003373ffffffffffffffffffffffffffffffffffffffff1673ffffffffffffffffffffffffffffffffffffffff16815260200190815260200160002080548060200260200160405190810160405280929190818152602001828054801561370b57602002820191906000526020600020905b8160009054906101000a900473ffffffffffffffffffffffffffffffffffffffff1673ffffffffffffffffffffffffffffffffffffffff16815260200190600101908083116136c1575b505050505086614c33565b1515036137be57600760003373ffffffffffffffffffffffffffffffffffffffff1673ffffffffffffffffffffffffffffffffffffffff168152602001908152602001600020849080600181540180825580915050600190039060005260206000200160009091909190916101000a81548173ffffffffffffffffffffffffffffffffffffffff021916908373ffffffffffffffffffffffffffffffffffffffff1602179055505b600960003373ffffffffffffffffffffffffffffffffffffffff1673ffffffffffffffffffffffffffffffffffffffff16815260200190815260200160002060008573ffffffffffffffffffffffffffffffffffffffff1673ffffffffffffffffffffffffffffffffffffffff168152602001908152602001600020600860003373ffffffffffffffffffffffffffffffffffffffff1673ffffffffffffffffffffffffffffffffffffffff16815260200190815260200160002054908060018154018082558091505060019003906000526020600020016000909190919091505560405180608001604052808573ffffffffffffffffffffffffffffffffffffffff1681526020018481526020014281526020018373ffffffffffffffffffffffffffffffffffffffff16636140dfd06040518163ffffffff1660e01b8152600401602060405180830381865afa15801561391e573d6000803e3d6000fd5b505050506040513d601f19601f820116820180604052508101906139429190615589565b815250600a60003373ffffffffffffffffffffffffffffffffffffffff1673ffffffffffffffffffffffffffffffffffffffff1681526020019081526020016000206000600860003373ffffffffffffffffffffffffffffffffffffffff1673ffffffffffffffffffffffffffffffffffffffff16815260200190815260200160002054815260200190815260200160002060008201518160000160006101000a81548173ffffffffffffffffffffffffffffffffffffffff021916908373ffffffffffffffffffffffffffffffffffffffff1602179055506020820151816001015560408201518160020155606082015181600301559050508373ffffffffffffffffffffffffffffffffffffffff1663a9059cbb33856040518363ffffffff1660e01b8152600401613a779291906155fe565b6020604051808303816000875af1158015613a96573d6000803e3d6000fd5b505050506040513d601f19601f82011682018060405250810190613aba919061546c565b506001600860003373ffffffffffffffffffffffffffffffffffffffff1673ffffffffffffffffffffffffffffffffffffffff1681526020019081526020016000206000828254613b0b91906153c9565b925050819055506000613b1d82614bb2565b90506000811215613b63576040517f08c379a0000000000000000000000000000000000000000000000000000000008152600401613b5a90615554565b60405180910390fd5b600081905060008582613b769190615260565b905080600b60003373ffffffffffffffffffffffffffffffffffffffff1673ffffffffffffffffffffffffffffffffffffffff1681526020019081526020016000206000828254613bc791906153c9565b925050819055503373ffffffffffffffffffffffffffffffffffffffff167fde1ec58d6821a902fd200541e0254901c79b0c05f4a9d50d6dad669c8645805f8888604051613c169291906155fe565b60405180910390a250505050505050565b60076020528160005260406000208181548110613c4357600080fd5b906000526020600020016000915091509054906101000a900473ffffffffffffffffffffffffffffffffffffffff1681565b6060600760008373ffffffffffffffffffffffffffffffffffffffff1673ffffffffffffffffffffffffffffffffffffffff168152602001908152602001600020805480602002602001604051908101604052809291908181526020018280548015613d3657602002820191906000526020600020905b8160009054906101000a900473ffffffffffffffffffffffffffffffffffffffff1673ffffffffffffffffffffffffffffffffffffffff1681526020019060010190808311613cec575b50505050509050919050565b60005481565b6000806000806000600460009054906101000a900473ffffffffffffffffffffffffffffffffffffffff1673ffffffffffffffffffffffffffffffffffffffff1663989796b5886040518263ffffffff1660e01b8152600401613dab9190614e82565b6040805180830381865afa158015613dc7573d6000803e3d6000fd5b505050506040513d601f19601f82011682018060405250810190613deb9190615389565b9150915060008614158015613e2d5750600073ffffffffffffffffffffffffffffffffffffffff168273ffffffffffffffffffffffffffffffffffffffff1614155b15613e5a576000613e3d82614bb2565b90508681613e4b9190615702565b84613e56919061577a565b9350505b60005b600660008a73ffffffffffffffffffffffffffffffffffffffff1673ffffffffffffffffffffffffffffffffffffffff1681526020019081526020016000208054905081101561407f576000600660008b73ffffffffffffffffffffffffffffffffffffffff1673ffffffffffffffffffffffffffffffffffffffff1681526020019081526020016000208281548110613efa57613ef9615499565b5b9060005260206000200160009054906101000a900473ffffffffffffffffffffffffffffffffffffffff1690506000600560008c73ffffffffffffffffffffffffffffffffffffffff1673ffffffffffffffffffffffffffffffffffffffff16815260200190815260200160002060008373ffffffffffffffffffffffffffffffffffffffff1673ffffffffffffffffffffffffffffffffffffffff1681526020019081526020016000205490506000600460009054906101000a900473ffffffffffffffffffffffffffffffffffffffff1673ffffffffffffffffffffffffffffffffffffffff1663989796b5846040518263ffffffff1660e01b81526004016140059190614e82565b6040805180830381865afa158015614021573d6000803e3d6000fd5b505050506040513d601f19601f820116820180604052508101906140459190615389565b915050600061405382614bb2565b905082816140619190615702565b8961406c919061577a565b9850505050508080600101915050613e5d565b5060005b600760008a73ffffffffffffffffffffffffffffffffffffffff1673ffffffffffffffffffffffffffffffffffffffff168152602001908152602001600020805490508110156144ef576000600760008b73ffffffffffffffffffffffffffffffffffffffff1673ffffffffffffffffffffffffffffffffffffffff16815260200190815260200160002082815481106141205761411f615499565b5b9060005260206000200160009054906101000a900473ffffffffffffffffffffffffffffffffffffffff1690506000600960008c73ffffffffffffffffffffffffffffffffffffffff1673ffffffffffffffffffffffffffffffffffffffff16815260200190815260200160002060008373ffffffffffffffffffffffffffffffffffffffff1673ffffffffffffffffffffffffffffffffffffffff168152602001908152602001600020905060005b81805490508110156144df576000600a60003373ffffffffffffffffffffffffffffffffffffffff1673ffffffffffffffffffffffffffffffffffffffff168152602001908152602001600020600084848154811061423257614231615499565b5b906000526020600020015481526020019081526020016000206002015490506000600a60003373ffffffffffffffffffffffffffffffffffffffff1673ffffffffffffffffffffffffffffffffffffffff16815260200190815260200160002060008585815481106142a7576142a6615499565b5b906000526020600020015481526020019081526020016000206001015490506000600a60003373ffffffffffffffffffffffffffffffffffffffff1673ffffffffffffffffffffffffffffffffffffffff168152602001908152602001600020600086868154811061431c5761431b615499565b5b9060005260206000200154815260200190815260200160002060000160009054906101000a900473ffffffffffffffffffffffffffffffffffffffff1690506000600a60003373ffffffffffffffffffffffffffffffffffffffff1673ffffffffffffffffffffffffffffffffffffffff16815260200190815260200160002060008787815481106143b1576143b0615499565b5b90600052602060002001548152602001908152602001600020600301549050600063bbf81e008286866143e49190615260565b6143ee9190615260565b6143f891906152d1565b90506000600460009054906101000a900473ffffffffffffffffffffffffffffffffffffffff1673ffffffffffffffffffffffffffffffffffffffff1663989796b5856040518263ffffffff1660e01b81526004016144579190614e82565b6040805180830381865afa158015614473573d6000803e3d6000fd5b505050506040513d601f19601f820116820180604052508101906144979190615389565b91505060006144a582614bb2565b905085836144b391906153c9565b816144be9190615702565b8e6144c9919061577a565b9d505050505050505080806001019150506141d0565b5050508080600101915050614083565b50836064846144fe9190615702565b61450891906157be565b9450505050509392505050565b6009602052826000526040600020602052816000526040600020818154811061453d57600080fd5b9060005260206000200160009250925050505481565b60086020528060005260406000206000915090505481565b60606000805b600760008573ffffffffffffffffffffffffffffffffffffffff1673ffffffffffffffffffffffffffffffffffffffff168152602001908152602001600020805490508110156146d057600960008573ffffffffffffffffffffffffffffffffffffffff1673ffffffffffffffffffffffffffffffffffffffff1681526020019081526020016000206000600760008773ffffffffffffffffffffffffffffffffffffffff1673ffffffffffffffffffffffffffffffffffffffff168152602001908152602001600020838154811061464d5761464c615499565b5b9060005260206000200160009054906101000a900473ffffffffffffffffffffffffffffffffffffffff1673ffffffffffffffffffffffffffffffffffffffff1673ffffffffffffffffffffffffffffffffffffffff16815260200190815260200160002080549050826146c191906153c9565b91508080600101915050614571565b5060008167ffffffffffffffff8111156146ed576146ec615828565b5b60405190808252806020026020018201604052801561471b5781602001602082028036833780820191505090505b5090506000805b600760008773ffffffffffffffffffffffffffffffffffffffff1673ffffffffffffffffffffffffffffffffffffffff168152602001908152602001600020805490508110156149cd5760005b600960008873ffffffffffffffffffffffffffffffffffffffff1673ffffffffffffffffffffffffffffffffffffffff1681526020019081526020016000206000600760008a73ffffffffffffffffffffffffffffffffffffffff1673ffffffffffffffffffffffffffffffffffffffff168152602001908152602001600020848154811061480157614800615499565b5b9060005260206000200160009054906101000a900473ffffffffffffffffffffffffffffffffffffffff1673ffffffffffffffffffffffffffffffffffffffff1673ffffffffffffffffffffffffffffffffffffffff168152602001908152602001600020805490508110156149bf57600960008873ffffffffffffffffffffffffffffffffffffffff1673ffffffffffffffffffffffffffffffffffffffff1681526020019081526020016000206000600760008a73ffffffffffffffffffffffffffffffffffffffff1673ffffffffffffffffffffffffffffffffffffffff168152602001908152602001600020848154811061490357614902615499565b5b9060005260206000200160009054906101000a900473ffffffffffffffffffffffffffffffffffffffff1673ffffffffffffffffffffffffffffffffffffffff1673ffffffffffffffffffffffffffffffffffffffff168152602001908152602001600020818154811061497a57614979615499565b5b906000526020600020015484848151811061499857614997615499565b5b60200260200101818152505082806149af906155b6565b935050808060010191505061476f565b508080600101915050614722565b50819350505050919050565b600260009054906101000a900473ffffffffffffffffffffffffffffffffffffffff1681565b6005602052816000526040600020602052806000526040600020600091509150505481565b600460009054906101000a900473ffffffffffffffffffffffffffffffffffffffff1681565b600360009054906101000a900473ffffffffffffffffffffffffffffffffffffffff1681565b600a602052816000526040600020602052806000526040600020600091509150508060000160009054906101000a900473ffffffffffffffffffffffffffffffffffffffff16908060010154908060020154908060030154905084565b600b6020528060005260406000206000915090505481565b6060600660008373ffffffffffffffffffffffffffffffffffffffff1673ffffffffffffffffffffffffffffffffffffffff168152602001908152602001600020805480602002602001604051908101604052809291908181526020018280548015614ba657602002820191906000526020600020905b8160009054906101000a900473ffffffffffffffffffffffffffffffffffffffff1673ffffffffffffffffffffffffffffffffffffffff1681526020019060010190808311614b5c575b50505050509050919050565b6000808273ffffffffffffffffffffffffffffffffffffffff1663feaf968c6040518163ffffffff1660e01b815260040160a060405180830381865afa158015614c00573d6000803e3d6000fd5b505050506040513d601f19601f82011682018060405250810190614c2491906158c5565b50505091505080915050919050565b6000806001905060005b8451811015614ca557848181518110614c5957614c58615499565b5b602002602001015173ffffffffffffffffffffffffffffffffffffffff168473ffffffffffffffffffffffffffffffffffffffff1603614c9857600091505b8080600101915050614c3d565b508091505092915050565b600080fd5b6000819050919050565b614cc881614cb5565b8114614cd357600080fd5b50565b600081359050614ce581614cbf565b92915050565b600073ffffffffffffffffffffffffffffffffffffffff82169050919050565b6000614d1682614ceb565b9050919050565b614d2681614d0b565b8114614d3157600080fd5b50565b600081359050614d4381614d1d565b92915050565b600080600060608486031215614d6257614d61614cb0565b5b6000614d7086828701614cd6565b9350506020614d8186828701614d34565b9250506040614d9286828701614cd6565b9150509250925092565b614da581614cb5565b82525050565b6000602082019050614dc06000830184614d9c565b92915050565b60008060408385031215614ddd57614ddc614cb0565b5b6000614deb85828601614cd6565b9250506020614dfc85828601614cd6565b9150509250929050565b600060208284031215614e1c57614e1b614cb0565b5b6000614e2a84828501614d34565b91505092915050565b60008060408385031215614e4a57614e49614cb0565b5b6000614e5885828601614d34565b9250506020614e6985828601614cd6565b9150509250929050565b614e7c81614d0b565b82525050565b6000602082019050614e976000830184614e73565b92915050565b600081519050919050565b600082825260208201905092915050565b6000819050602082019050919050565b614ed281614d0b565b82525050565b6000614ee48383614ec9565b60208301905092915050565b6000602082019050919050565b6000614f0882614e9d565b614f128185614ea8565b9350614f1d83614eb9565b8060005b83811015614f4e578151614f358882614ed8565b9750614f4083614ef0565b925050600181019050614f21565b5085935050505092915050565b60006020820190508181036000830152614f758184614efd565b905092915050565b6000819050919050565b614f9081614f7d565b82525050565b6000602082019050614fab6000830184614f87565b92915050565b600080600060608486031215614fca57614fc9614cb0565b5b6000614fd886828701614d34565b9350506020614fe986828701614d34565b9250506040614ffa86828701614cd6565b9150509250925092565b600081519050919050565b600082825260208201905092915050565b6000819050602082019050919050565b61503981614cb5565b82525050565b600061504b8383615030565b60208301905092915050565b6000602082019050919050565b600061506f82615004565b615079818561500f565b935061508483615020565b8060005b838110156150b557815161509c888261503f565b97506150a783615057565b925050600181019050615088565b5085935050505092915050565b600060208201905081810360008301526150dc8184615064565b905092915050565b6000819050919050565b60006151096151046150ff84614ceb565b6150e4565b614ceb565b9050919050565b600061511b826150ee565b9050919050565b600061512d82615110565b9050919050565b61513d81615122565b82525050565b60006020820190506151586000830184615134565b92915050565b6000806040838503121561517557615174614cb0565b5b600061518385828601614d34565b925050602061519485828601614d34565b9150509250929050565b60006151a9826150ee565b9050919050565b60006151bb8261519e565b9050919050565b6151cb816151b0565b82525050565b60006020820190506151e660008301846151c2565b92915050565b60006080820190506152016000830187614e73565b61520e6020830186614d9c565b61521b6040830185614d9c565b6152286060830184614d9c565b95945050505050565b7f4e487b7100000000000000000000000000000000000000000000000000000000600052601160045260246000fd5b600061526b82614cb5565b915061527683614cb5565b925082820261528481614cb5565b9150828204841483151761529b5761529a615231565b5b5092915050565b7f4e487b7100000000000000000000000000000000000000000000000000000000600052601260045260246000fd5b60006152dc82614cb5565b91506152e783614cb5565b9250826152f7576152f66152a2565b5b828204905092915050565b600061530d82614cb5565b915061531883614cb5565b92508282039050818111156153305761532f615231565b5b92915050565b600061534182614d0b565b9050919050565b61535181615336565b811461535c57600080fd5b50565b60008151905061536e81615348565b92915050565b60008151905061538381614d1d565b92915050565b600080604083850312156153a05761539f614cb0565b5b60006153ae8582860161535f565b92505060206153bf85828601615374565b9150509250929050565b60006153d482614cb5565b91506153df83614cb5565b92508282019050808211156153f7576153f6615231565b5b92915050565b60006060820190506154126000830186614e73565b61541f6020830185614e73565b61542c6040830184614d9c565b949350505050565b60008115159050919050565b61544981615434565b811461545457600080fd5b50565b60008151905061546681615440565b92915050565b60006020828403121561548257615481614cb0565b5b600061549084828501615457565b91505092915050565b7f4e487b7100000000000000000000000000000000000000000000000000000000600052603260045260246000fd5b7f4e487b7100000000000000000000000000000000000000000000000000000000600052603160045260246000fd5b600082825260208201905092915050565b7f436f6e76657273696f6e206d757374206265206e6f6e2d6e6567617469766500600082015250565b600061553e601f836154f7565b915061554982615508565b602082019050919050565b6000602082019050818103600083015261556d81615531565b9050919050565b60008151905061558381614cbf565b92915050565b60006020828403121561559f5761559e614cb0565b5b60006155ad84828501615574565b91505092915050565b60006155c182614cb5565b91507fffffffffffffffffffffffffffffffffffffffffffffffffffffffffffffffff82036155f3576155f2615231565b5b600182019050919050565b60006040820190506156136000830185614e73565b6156206020830184614d9c565b9392505050565b600081905092915050565b50565b6000615642600083615627565b915061564d82615632565b600082019050919050565b600061566382615635565b9150819050919050565b7f4661696c656420746f2073656e64204574686572000000000000000000000000600082015250565b60006156a36014836154f7565b91506156ae8261566d565b602082019050919050565b600060208201905081810360008301526156d281615696565b9050919050565b60006040820190506156ee6000830185614e73565b6156fb6020830184614e73565b9392505050565b600061570d82614f7d565b915061571883614f7d565b925082820261572681614f7d565b91507f8000000000000000000000000000000000000000000000000000000000000000841460008412161561575e5761575d615231565b5b828205841483151761577357615772615231565b5b5092915050565b600061578582614f7d565b915061579083614f7d565b9250828201905082811215600083121683821260008412151617156157b8576157b7615231565b5b92915050565b60006157c982614f7d565b91506157d483614f7d565b9250826157e4576157e36152a2565b5b600160000383147f80000000000000000000000000000000000000000000000000000000000000008314161561581d5761581c615231565b5b828205905092915050565b7f4e487b7100000000000000000000000000000000000000000000000000000000600052604160045260246000fd5b600069ffffffffffffffffffff82169050919050565b61587681615857565b811461588157600080fd5b50565b6000815190506158938161586d565b92915050565b6158a281614f7d565b81146158ad57600080fd5b50565b6000815190506158bf81615899565b92915050565b600080600080600060a086880312156158e1576158e0614cb0565b5b60006158ef88828901615884565b9550506020615900888289016158b0565b945050604061591188828901615574565b935050606061592288828901615574565b925050608061593388828901615884565b915050929550929590935056fea264697066735822122071a6f6f8d0b1ffcd6c6b3876578497bc8b7cd97c737b2fd07e684548699444a064736f6c63430008180033",
  "linkReferences": {},
  "deployedLinkReferences": {}
}