{
  "_format": "hh-sol-artifact-1",
  "contractName": "BorrowingTracker",
  "sourceName": "contracts/Lending/BorrowingTracker.sol",
  "abi": [
    {
      "inputs": [
        {
          "internalType": "address",
          "name": "_lendingTracker",
          "type": "address"
        },
        {
          "internalType": "address",
          "name": "_swapRouter",
          "type": "address"
        }
      ],
      "stateMutability": "nonpayable",
      "type": "constructor"
    },
    {
      "inputs": [],
      "name": "BorrowingTracker_AmountOfCollateralTokenTooLow",
      "type": "error"
    },
    {
      "inputs": [],
      "name": "BorrowingTracker_AmountTooHigh",
      "type": "error"
    },
    {
      "inputs": [],
      "name": "lendingTracker_addressNotAllowed",
      "type": "error"
    },
    {
      "inputs": [],
      "name": "lendingTracker_amountTooHigh",
      "type": "error"
    },
    {
      "inputs": [],
      "name": "lendingTracker_poolNotAvailable",
      "type": "error"
    },
    {
      "inputs": [],
      "name": "lendingTracker_receiptDoesntExist",
      "type": "error"
    },
    {
      "inputs": [],
      "name": "lending_addressNotAllowed",
      "type": "error"
    },
    {
      "anonymous": false,
      "inputs": [
        {
          "indexed": false,
          "internalType": "address",
          "name": "user",
          "type": "address"
        },
        {
          "indexed": false,
          "internalType": "address",
          "name": "terminator",
          "type": "address"
        }
      ],
      "name": "collateralTerminated",
      "type": "event"
    },
    {
      "anonymous": false,
      "inputs": [
        {
          "indexed": true,
          "internalType": "address",
          "name": "user",
          "type": "address"
        },
        {
          "indexed": false,
          "internalType": "address",
          "name": "tokenAddress",
          "type": "address"
        },
        {
          "indexed": false,
          "internalType": "uint256",
          "name": "tokenAmount",
          "type": "uint256"
        }
      ],
      "name": "userBorrowed",
      "type": "event"
    },
    {
      "anonymous": false,
      "inputs": [
        {
          "indexed": true,
          "internalType": "address",
          "name": "user",
          "type": "address"
        },
        {
          "indexed": false,
          "internalType": "address",
          "name": "tokenAddress",
          "type": "address"
        },
        {
          "indexed": false,
          "internalType": "uint256",
          "name": "receiptId",
          "type": "uint256"
        },
        {
          "indexed": false,
          "internalType": "uint256",
          "name": "tokenAmount",
          "type": "uint256"
        },
        {
          "indexed": false,
          "internalType": "uint256",
          "name": "interest",
          "type": "uint256"
        }
      ],
      "name": "userReturnedBorrowedToken",
      "type": "event"
    },
    {
      "anonymous": false,
      "inputs": [
        {
          "indexed": true,
          "internalType": "address",
          "name": "user",
          "type": "address"
        },
        {
          "indexed": false,
          "internalType": "address",
          "name": "tokenAddress",
          "type": "address"
        },
        {
          "indexed": false,
          "internalType": "uint256",
          "name": "tokenAmount",
          "type": "uint256"
        }
      ],
      "name": "userStakedCollateral",
      "type": "event"
    },
    {
      "anonymous": false,
      "inputs": [
        {
          "indexed": true,
          "internalType": "address",
          "name": "user",
          "type": "address"
        },
        {
          "indexed": false,
          "internalType": "address",
          "name": "tokenAddress",
          "type": "address"
        },
        {
          "indexed": false,
          "internalType": "uint256",
          "name": "tokenAmount",
          "type": "uint256"
        }
      ],
      "name": "userUnstakedCollateral",
      "type": "event"
    },
    {
      "inputs": [
        {
          "internalType": "uint256",
          "name": "_id",
          "type": "uint256"
        },
        {
          "internalType": "address",
          "name": "_user",
          "type": "address"
        },
        {
          "internalType": "uint256",
          "name": "tokenAmount",
          "type": "uint256"
        }
      ],
      "name": "accruedInterest",
      "outputs": [
        {
          "internalType": "uint256",
          "name": "",
          "type": "uint256"
        }
      ],
      "stateMutability": "view",
      "type": "function"
    },
    {
      "inputs": [
        {
          "internalType": "address",
          "name": "_swapRouter",
          "type": "address"
        }
      ],
      "name": "addSwapRouter",
      "outputs": [],
      "stateMutability": "nonpayable",
      "type": "function"
    },
    {
      "inputs": [
        {
          "internalType": "address",
          "name": "newSwapToken",
          "type": "address"
        }
      ],
      "name": "addSwapToken",
      "outputs": [],
      "stateMutability": "nonpayable",
      "type": "function"
    },
    {
      "inputs": [
        {
          "internalType": "address",
          "name": "",
          "type": "address"
        },
        {
          "internalType": "uint256",
          "name": "",
          "type": "uint256"
        }
      ],
      "name": "borrowReceiptData",
      "outputs": [
        {
          "internalType": "address",
          "name": "tokenAddress",
          "type": "address"
        },
        {
          "internalType": "uint256",
          "name": "amount",
          "type": "uint256"
        },
        {
          "internalType": "uint256",
          "name": "time",
          "type": "uint256"
        },
        {
          "internalType": "uint256",
          "name": "apy",
          "type": "uint256"
        }
      ],
      "stateMutability": "view",
      "type": "function"
    },
    {
      "inputs": [
        {
          "internalType": "address",
          "name": "tokenAddress",
          "type": "address"
        },
        {
          "internalType": "uint256",
          "name": "tokenAmount",
          "type": "uint256"
        }
      ],
      "name": "borrowToken",
      "outputs": [],
      "stateMutability": "nonpayable",
      "type": "function"
    },
    {
      "inputs": [
        {
          "internalType": "address",
          "name": "",
          "type": "address"
        },
        {
          "internalType": "uint256",
          "name": "",
          "type": "uint256"
        }
      ],
      "name": "borrowedTokens",
      "outputs": [
        {
          "internalType": "address",
          "name": "",
          "type": "address"
        }
      ],
      "stateMutability": "view",
      "type": "function"
    },
    {
      "inputs": [
        {
          "internalType": "address",
          "name": "",
          "type": "address"
        }
      ],
      "name": "borrowingId",
      "outputs": [
        {
          "internalType": "uint256",
          "name": "",
          "type": "uint256"
        }
      ],
      "stateMutability": "view",
      "type": "function"
    },
    {
      "inputs": [
        {
          "internalType": "address",
          "name": "",
          "type": "address"
        },
        {
          "internalType": "address",
          "name": "",
          "type": "address"
        }
      ],
      "name": "collateral",
      "outputs": [
        {
          "internalType": "uint256",
          "name": "",
          "type": "uint256"
        }
      ],
      "stateMutability": "view",
      "type": "function"
    },
    {
      "inputs": [
        {
          "internalType": "address",
          "name": "",
          "type": "address"
        },
        {
          "internalType": "uint256",
          "name": "",
          "type": "uint256"
        }
      ],
      "name": "collateralTokens",
      "outputs": [
        {
          "internalType": "address",
          "name": "",
          "type": "address"
        }
      ],
      "stateMutability": "view",
      "type": "function"
    },
    {
      "inputs": [
        {
          "internalType": "address",
          "name": "user",
          "type": "address"
        }
      ],
      "name": "getBorrowedReceipts",
      "outputs": [
        {
          "internalType": "uint256[]",
          "name": "",
          "type": "uint256[]"
        }
      ],
      "stateMutability": "view",
      "type": "function"
    },
    {
      "inputs": [
        {
          "internalType": "address",
          "name": "user",
          "type": "address"
        }
      ],
      "name": "getBorrowedTokens",
      "outputs": [
        {
          "internalType": "address[]",
          "name": "",
          "type": "address[]"
        }
      ],
      "stateMutability": "view",
      "type": "function"
    },
    {
      "inputs": [
        {
          "internalType": "address",
          "name": "user",
          "type": "address"
        }
      ],
      "name": "getCollateralTokens",
      "outputs": [
        {
          "internalType": "address[]",
          "name": "",
          "type": "address[]"
        }
      ],
      "stateMutability": "view",
      "type": "function"
    },
    {
      "inputs": [],
      "name": "lendingTracker",
      "outputs": [
        {
          "internalType": "contract LendingTracker",
          "name": "",
          "type": "address"
        }
      ],
      "stateMutability": "view",
      "type": "function"
    },
    {
      "inputs": [
        {
          "internalType": "address",
          "name": "user",
          "type": "address"
        },
        {
          "internalType": "address",
          "name": "additionalTokenAddress",
          "type": "address"
        },
        {
          "internalType": "uint256",
          "name": "tokenAmount",
          "type": "uint256"
        }
      ],
      "name": "liquidityTreshold",
      "outputs": [
        {
          "internalType": "int256",
          "name": "",
          "type": "int256"
        }
      ],
      "stateMutability": "view",
      "type": "function"
    },
    {
      "inputs": [],
      "name": "ltv",
      "outputs": [
        {
          "internalType": "int256",
          "name": "",
          "type": "int256"
        }
      ],
      "stateMutability": "view",
      "type": "function"
    },
    {
      "inputs": [
        {
          "internalType": "uint256",
          "name": "id",
          "type": "uint256"
        },
        {
          "internalType": "uint256",
          "name": "tokenAmount",
          "type": "uint256"
        }
      ],
      "name": "returnBorrowedToken",
      "outputs": [],
      "stateMutability": "nonpayable",
      "type": "function"
    },
    {
      "inputs": [
        {
          "internalType": "address",
          "name": "tokenAddress",
          "type": "address"
        },
        {
          "internalType": "uint256",
          "name": "tokenAmount",
          "type": "uint256"
        }
      ],
      "name": "stakeCollateral",
      "outputs": [],
      "stateMutability": "nonpayable",
      "type": "function"
    },
    {
      "inputs": [],
      "name": "swapRouter",
      "outputs": [
        {
          "internalType": "contract SwapRouter",
          "name": "",
          "type": "address"
        }
      ],
      "stateMutability": "view",
      "type": "function"
    },
    {
      "inputs": [],
      "name": "swapToken",
      "outputs": [
        {
          "internalType": "address",
          "name": "",
          "type": "address"
        }
      ],
      "stateMutability": "view",
      "type": "function"
    },
    {
      "inputs": [
        {
          "internalType": "address",
          "name": "userAddress",
          "type": "address"
        }
      ],
      "name": "terminateCollateral",
      "outputs": [],
      "stateMutability": "payable",
      "type": "function"
    },
    {
      "inputs": [
        {
          "internalType": "address",
          "name": "tokenAddress",
          "type": "address"
        },
        {
          "internalType": "uint256",
          "name": "tokenAmount",
          "type": "uint256"
        }
      ],
      "name": "unstakeCollateral",
      "outputs": [],
      "stateMutability": "nonpayable",
      "type": "function"
    },
    {
      "inputs": [
        {
          "internalType": "address",
          "name": "",
          "type": "address"
        },
        {
          "internalType": "address",
          "name": "",
          "type": "address"
        },
        {
          "internalType": "uint256",
          "name": "",
          "type": "uint256"
        }
      ],
      "name": "userBorrowReceipts",
      "outputs": [
        {
          "internalType": "uint256",
          "name": "",
          "type": "uint256"
        }
      ],
      "stateMutability": "view",
      "type": "function"
    }
  ],
  "bytecode": "0x6080604052604b6000553480156200001657600080fd5b50604051620058ee380380620058ee83398181016040528101906200003c919062000171565b33600160006101000a81548173ffffffffffffffffffffffffffffffffffffffff021916908373ffffffffffffffffffffffffffffffffffffffff16021790555081600460006101000a81548173ffffffffffffffffffffffffffffffffffffffff021916908373ffffffffffffffffffffffffffffffffffffffff16021790555080600260006101000a81548173ffffffffffffffffffffffffffffffffffffffff021916908373ffffffffffffffffffffffffffffffffffffffff1602179055505050620001b8565b600080fd5b600073ffffffffffffffffffffffffffffffffffffffff82169050919050565b600062000139826200010c565b9050919050565b6200014b816200012c565b81146200015757600080fd5b50565b6000815190506200016b8162000140565b92915050565b600080604083850312156200018b576200018a62000107565b5b60006200019b858286016200015a565b9250506020620001ae858286016200015a565b9150509250929050565b61572680620001c86000396000f3fe6080604052600436106101355760003560e01c80636fb49d73116100ab578063c31c9c071161006f578063c31c9c071461045f578063cc218ece1461048a578063dbf50bfc146104c7578063dc73e49c146104f2578063e0b1d2371461051d578063ed903f7a1461055d57610135565b80636fb49d7314610340578063784eddd81461036b57806383eaf8bc146103a8578063b2f7f916146103e5578063b3f8d9001461042257610135565b8063322de332116100fd578063322de3321461022257806347c47ed31461024b5780634bb3df99146102745780635a91b39c1461029d5780635cf8f780146102c65780636178bad61461030357610135565b80630d9328a61461013a578063106c6dbc1461017757806315ec777a146101a05780632b798f49146101c95780632cb8f67614610206575b600080fd5b34801561014657600080fd5b50610161600480360381019061015c9190614b65565b61059a565b60405161016e9190614bc7565b60405180910390f35b34801561018357600080fd5b5061019e60048036038101906101999190614be2565b61074d565b005b3480156101ac57600080fd5b506101c760048036038101906101c29190614c22565b6112c5565b005b3480156101d557600080fd5b506101f060048036038101906101eb9190614c4f565b611390565b6040516101fd9190614c9e565b60405180910390f35b610220600480360381019061021b9190614c22565b6113de565b005b34801561022e57600080fd5b5061024960048036038101906102449190614c4f565b6126cb565b005b34801561025757600080fd5b50610272600480360381019061026d9190614c22565b612b0f565b005b34801561028057600080fd5b5061029b60048036038101906102969190614c4f565b612bda565b005b3480156102a957600080fd5b506102c460048036038101906102bf9190614c4f565b613383565b005b3480156102d257600080fd5b506102ed60048036038101906102e89190614c4f565b613a5b565b6040516102fa9190614c9e565b60405180910390f35b34801561030f57600080fd5b5061032a60048036038101906103259190614c22565b613aa9565b6040516103379190614d77565b60405180910390f35b34801561034c57600080fd5b50610355613b76565b6040516103629190614db2565b60405180910390f35b34801561037757600080fd5b50610392600480360381019061038d9190614dcd565b613b7c565b60405161039f9190614db2565b60405180910390f35b3480156103b457600080fd5b506103cf60048036038101906103ca9190614dcd565b614349565b6040516103dc9190614bc7565b60405180910390f35b3480156103f157600080fd5b5061040c60048036038101906104079190614c22565b614387565b6040516104199190614bc7565b60405180910390f35b34801561042e57600080fd5b5061044960048036038101906104449190614c22565b61439f565b6040516104569190614ede565b60405180910390f35b34801561046b57600080fd5b5061047461480d565b6040516104819190614f5f565b60405180910390f35b34801561049657600080fd5b506104b160048036038101906104ac9190614f7a565b614833565b6040516104be9190614bc7565b60405180910390f35b3480156104d357600080fd5b506104dc614858565b6040516104e99190614fed565b60405180910390f35b3480156104fe57600080fd5b5061050761487e565b6040516105149190614c9e565b60405180910390f35b34801561052957600080fd5b50610544600480360381019061053f9190614c4f565b6148a4565b6040516105549493929190615008565b60405180910390f35b34801561056957600080fd5b50610584600480360381019061057f9190614c22565b614901565b6040516105919190614d77565b60405180910390f35b600080600a60008573ffffffffffffffffffffffffffffffffffffffff1673ffffffffffffffffffffffffffffffffffffffff16815260200190815260200160002060008681526020019081526020016000206003015490506000600a60008673ffffffffffffffffffffffffffffffffffffffff1673ffffffffffffffffffffffffffffffffffffffff16815260200190815260200160002060008781526020019081526020016000206002015490506000600a60008773ffffffffffffffffffffffffffffffffffffffff1673ffffffffffffffffffffffffffffffffffffffff1681526020019081526020016000206000888152602001908152602001600020600101549050600083036106b75760009350505050610746565b808511156106f1576040517f6aff58d500000000000000000000000000000000000000000000000000000000815260040160405180910390fd5b6000606463bbf81e0085858560648b61070a919061507c565b61071491906150ed565b61071e919061507c565b610728919061507c565b61073291906150ed565b61073c919061507c565b9050809450505050505b9392505050565b6000600a60003373ffffffffffffffffffffffffffffffffffffffff1673ffffffffffffffffffffffffffffffffffffffff168152602001908152602001600020600084815260200190815260200160002060010154036107da576040517fd4ca1fe200000000000000000000000000000000000000000000000000000000815260040160405180910390fd5b600081600a60003373ffffffffffffffffffffffffffffffffffffffff1673ffffffffffffffffffffffffffffffffffffffff16815260200190815260200160002060008581526020019081526020016000206001015461083b919061511e565b1015610873576040517f6fc3494000000000000000000000000000000000000000000000000000000000815260040160405180910390fd5b6000600a60003373ffffffffffffffffffffffffffffffffffffffff1673ffffffffffffffffffffffffffffffffffffffff168152602001908152602001600020600084815260200190815260200160002060000160009054906101000a900473ffffffffffffffffffffffffffffffffffffffff16905081600a60003373ffffffffffffffffffffffffffffffffffffffff1673ffffffffffffffffffffffffffffffffffffffff1681526020019081526020016000206000858152602001908152602001600020600101600082825461094e919061511e565b92505081905550600061096284338561059a565b90506000600460009054906101000a900473ffffffffffffffffffffffffffffffffffffffff1673ffffffffffffffffffffffffffffffffffffffff1663989796b5846040518263ffffffff1660e01b81526004016109c19190614c9e565b6040805180830381865afa1580156109dd573d6000803e3d6000fd5b505050506040513d601f19601f82011682018060405250810190610a0191906151a5565b5090508273ffffffffffffffffffffffffffffffffffffffff166323b872dd33838588610a2e91906151e5565b6040518463ffffffff1660e01b8152600401610a4c93929190615219565b6020604051808303816000875af1158015610a6b573d6000803e3d6000fd5b505050506040513d601f19601f82011682018060405250810190610a8f9190615288565b508073ffffffffffffffffffffffffffffffffffffffff1663cd682060836040518263ffffffff1660e01b8152600401610ac99190614bc7565b600060405180830381600087803b158015610ae357600080fd5b505af1158015610af7573d6000803e3d6000fd5b505050506000600a60003373ffffffffffffffffffffffffffffffffffffffff1673ffffffffffffffffffffffffffffffffffffffff1681526020019081526020016000206000878152602001908152602001600020600101540361126a5760005b600960003373ffffffffffffffffffffffffffffffffffffffff1673ffffffffffffffffffffffffffffffffffffffff16815260200190815260200160002060008573ffffffffffffffffffffffffffffffffffffffff1673ffffffffffffffffffffffffffffffffffffffff16815260200190815260200160002080549050811015610eef5785600960003373ffffffffffffffffffffffffffffffffffffffff1673ffffffffffffffffffffffffffffffffffffffff16815260200190815260200160002060008673ffffffffffffffffffffffffffffffffffffffff1673ffffffffffffffffffffffffffffffffffffffff1681526020019081526020016000208281548110610c6f57610c6e6152b5565b5b906000526020600020015403610ee257600960003373ffffffffffffffffffffffffffffffffffffffff1673ffffffffffffffffffffffffffffffffffffffff16815260200190815260200160002060008573ffffffffffffffffffffffffffffffffffffffff1673ffffffffffffffffffffffffffffffffffffffff1681526020019081526020016000206001600960003373ffffffffffffffffffffffffffffffffffffffff1673ffffffffffffffffffffffffffffffffffffffff16815260200190815260200160002060008773ffffffffffffffffffffffffffffffffffffffff1673ffffffffffffffffffffffffffffffffffffffff16815260200190815260200160002080549050610d87919061511e565b81548110610d9857610d976152b5565b5b9060005260206000200154600960003373ffffffffffffffffffffffffffffffffffffffff1673ffffffffffffffffffffffffffffffffffffffff16815260200190815260200160002060008673ffffffffffffffffffffffffffffffffffffffff1673ffffffffffffffffffffffffffffffffffffffff1681526020019081526020016000208281548110610e3157610e306152b5565b5b9060005260206000200181905550600960003373ffffffffffffffffffffffffffffffffffffffff1673ffffffffffffffffffffffffffffffffffffffff16815260200190815260200160002060008573ffffffffffffffffffffffffffffffffffffffff1673ffffffffffffffffffffffffffffffffffffffff168152602001908152602001600020805480610ecb57610eca6152e4565b5b600190038181906000526020600020016000905590555b8080600101915050610b59565b506000600960003373ffffffffffffffffffffffffffffffffffffffff1673ffffffffffffffffffffffffffffffffffffffff16815260200190815260200160002060008573ffffffffffffffffffffffffffffffffffffffff1673ffffffffffffffffffffffffffffffffffffffff16815260200190815260200160002080549050036112695760005b600760003373ffffffffffffffffffffffffffffffffffffffff1673ffffffffffffffffffffffffffffffffffffffff16815260200190815260200160002080549050811015611267578373ffffffffffffffffffffffffffffffffffffffff16600760003373ffffffffffffffffffffffffffffffffffffffff1673ffffffffffffffffffffffffffffffffffffffff168152602001908152602001600020828154811061102c5761102b6152b5565b5b9060005260206000200160009054906101000a900473ffffffffffffffffffffffffffffffffffffffff1673ffffffffffffffffffffffffffffffffffffffff160361125a57600760003373ffffffffffffffffffffffffffffffffffffffff1673ffffffffffffffffffffffffffffffffffffffff1681526020019081526020016000206001600760003373ffffffffffffffffffffffffffffffffffffffff1673ffffffffffffffffffffffffffffffffffffffff16815260200190815260200160002080549050611100919061511e565b81548110611111576111106152b5565b5b9060005260206000200160009054906101000a900473ffffffffffffffffffffffffffffffffffffffff16600760003373ffffffffffffffffffffffffffffffffffffffff1673ffffffffffffffffffffffffffffffffffffffff168152602001908152602001600020828154811061118d5761118c6152b5565b5b9060005260206000200160006101000a81548173ffffffffffffffffffffffffffffffffffffffff021916908373ffffffffffffffffffffffffffffffffffffffff160217905550600760003373ffffffffffffffffffffffffffffffffffffffff1673ffffffffffffffffffffffffffffffffffffffff168152602001908152602001600020805480611224576112236152e4565b5b6001900381819060005260206000200160006101000a81549073ffffffffffffffffffffffffffffffffffffffff021916905590555b8080600101915050610f7a565b505b5b3373ffffffffffffffffffffffffffffffffffffffff167f3d3dc018f55160b3fa5bcc9f5f8f595211524dd7cc1320607df0a09c236dd50e848787866040516112b69493929190615008565b60405180910390a25050505050565b600160009054906101000a900473ffffffffffffffffffffffffffffffffffffffff1673ffffffffffffffffffffffffffffffffffffffff163373ffffffffffffffffffffffffffffffffffffffff161461134c576040517feed3ab2300000000000000000000000000000000000000000000000000000000815260040160405180910390fd5b80600260006101000a81548173ffffffffffffffffffffffffffffffffffffffff021916908373ffffffffffffffffffffffffffffffffffffffff16021790555050565b600660205281600052604060002081815481106113ac57600080fd5b906000526020600020016000915091509054906101000a900473ffffffffffffffffffffffffffffffffffffffff1681565b6000546113ed82600080613b7c565b13611424576040517f56f37e7800000000000000000000000000000000000000000000000000000000815260040160405180910390fd5b60004790506000805b600660008573ffffffffffffffffffffffffffffffffffffffff1673ffffffffffffffffffffffffffffffffffffffff16815260200190815260200160002080549050811015611a5c576000600660008673ffffffffffffffffffffffffffffffffffffffff1673ffffffffffffffffffffffffffffffffffffffff16815260200190815260200160002082815481106114ca576114c96152b5565b5b9060005260206000200160009054906101000a900473ffffffffffffffffffffffffffffffffffffffff1690506000600560008773ffffffffffffffffffffffffffffffffffffffff1673ffffffffffffffffffffffffffffffffffffffff16815260200190815260200160002060008373ffffffffffffffffffffffffffffffffffffffff1673ffffffffffffffffffffffffffffffffffffffff168152602001908152602001600020549050600360009054906101000a900473ffffffffffffffffffffffffffffffffffffffff1673ffffffffffffffffffffffffffffffffffffffff168273ffffffffffffffffffffffffffffffffffffffff16036115e05780846115d991906151e5565b9350611769565b6000600260009054906101000a900473ffffffffffffffffffffffffffffffffffffffff1673ffffffffffffffffffffffffffffffffffffffff1663635bc0c284600360009054906101000a900473ffffffffffffffffffffffffffffffffffffffff16856040518463ffffffff1660e01b815260040161166393929190615219565b602060405180830381865afa158015611680573d6000803e3d6000fd5b505050506040513d601f19601f820116820180604052508101906116a49190615328565b9050600260009054906101000a900473ffffffffffffffffffffffffffffffffffffffff1673ffffffffffffffffffffffffffffffffffffffff1663fe9f5c0584600360009054906101000a900473ffffffffffffffffffffffffffffffffffffffff16856040518463ffffffff1660e01b815260040161172793929190615219565b600060405180830381600087803b15801561174157600080fd5b505af1158015611755573d6000803e3d6000fd5b50505050808561176591906151e5565b9450505b6000600560008873ffffffffffffffffffffffffffffffffffffffff1673ffffffffffffffffffffffffffffffffffffffff1681526020019081526020016000206000600660008a73ffffffffffffffffffffffffffffffffffffffff1673ffffffffffffffffffffffffffffffffffffffff16815260200190815260200160002086815481106117fd576117fc6152b5565b5b9060005260206000200160009054906101000a900473ffffffffffffffffffffffffffffffffffffffff1673ffffffffffffffffffffffffffffffffffffffff1673ffffffffffffffffffffffffffffffffffffffff16815260200190815260200160002081905550600660008773ffffffffffffffffffffffffffffffffffffffff1673ffffffffffffffffffffffffffffffffffffffff1681526020019081526020016000206001600660008973ffffffffffffffffffffffffffffffffffffffff1673ffffffffffffffffffffffffffffffffffffffff168152602001908152602001600020805490506118f4919061511e565b81548110611905576119046152b5565b5b9060005260206000200160009054906101000a900473ffffffffffffffffffffffffffffffffffffffff16600660008873ffffffffffffffffffffffffffffffffffffffff1673ffffffffffffffffffffffffffffffffffffffff1681526020019081526020016000208481548110611981576119806152b5565b5b9060005260206000200160006101000a81548173ffffffffffffffffffffffffffffffffffffffff021916908373ffffffffffffffffffffffffffffffffffffffff160217905550600660008773ffffffffffffffffffffffffffffffffffffffff1673ffffffffffffffffffffffffffffffffffffffff168152602001908152602001600020805480611a1857611a176152e4565b5b6001900381819060005260206000200160006101000a81549073ffffffffffffffffffffffffffffffffffffffff021916905590555050808060010191505061142d565b5060005b600760008573ffffffffffffffffffffffffffffffffffffffff1673ffffffffffffffffffffffffffffffffffffffff1681526020019081526020016000208054905081101561252d576000806000600760008873ffffffffffffffffffffffffffffffffffffffff1673ffffffffffffffffffffffffffffffffffffffff1681526020019081526020016000208481548110611b0057611aff6152b5565b5b9060005260206000200160009054906101000a900473ffffffffffffffffffffffffffffffffffffffff16905060005b600960008973ffffffffffffffffffffffffffffffffffffffff1673ffffffffffffffffffffffffffffffffffffffff16815260200190815260200160002060008373ffffffffffffffffffffffffffffffffffffffff1673ffffffffffffffffffffffffffffffffffffffff16815260200190815260200160002080549050811015611fb3576000600960008a73ffffffffffffffffffffffffffffffffffffffff1673ffffffffffffffffffffffffffffffffffffffff16815260200190815260200160002060008473ffffffffffffffffffffffffffffffffffffffff1673ffffffffffffffffffffffffffffffffffffffff1681526020019081526020016000208681548110611c4757611c466152b5565b5b906000526020600020015490506000600a60008b73ffffffffffffffffffffffffffffffffffffffff1673ffffffffffffffffffffffffffffffffffffffff16815260200190815260200160002060008381526020019081526020016000206001015490506000611cb9838c8461059a565b90508082611cc791906151e5565b87611cd291906151e5565b96508086611ce091906151e5565b95506000600a60008d73ffffffffffffffffffffffffffffffffffffffff1673ffffffffffffffffffffffffffffffffffffffff168152602001908152602001600020600085815260200190815260200160002060010181905550600960008c73ffffffffffffffffffffffffffffffffffffffff1673ffffffffffffffffffffffffffffffffffffffff16815260200190815260200160002060008673ffffffffffffffffffffffffffffffffffffffff1673ffffffffffffffffffffffffffffffffffffffff1681526020019081526020016000206001600960008e73ffffffffffffffffffffffffffffffffffffffff1673ffffffffffffffffffffffffffffffffffffffff16815260200190815260200160002060008873ffffffffffffffffffffffffffffffffffffffff1673ffffffffffffffffffffffffffffffffffffffff16815260200190815260200160002080549050611e43919061511e565b81548110611e5457611e536152b5565b5b9060005260206000200154600960008d73ffffffffffffffffffffffffffffffffffffffff1673ffffffffffffffffffffffffffffffffffffffff16815260200190815260200160002060008773ffffffffffffffffffffffffffffffffffffffff1673ffffffffffffffffffffffffffffffffffffffff1681526020019081526020016000208581548110611eed57611eec6152b5565b5b9060005260206000200181905550600960008c73ffffffffffffffffffffffffffffffffffffffff1673ffffffffffffffffffffffffffffffffffffffff16815260200190815260200160002060008673ffffffffffffffffffffffffffffffffffffffff1673ffffffffffffffffffffffffffffffffffffffff168152602001908152602001600020805480611f8757611f866152e4565b5b600190038181906000526020600020016000905590555050508480611fab90615355565b955050611b30565b50600360009054906101000a900473ffffffffffffffffffffffffffffffffffffffff1673ffffffffffffffffffffffffffffffffffffffff168173ffffffffffffffffffffffffffffffffffffffff160361201c578285612015919061511e565b94506121a5565b6000600260009054906101000a900473ffffffffffffffffffffffffffffffffffffffff1673ffffffffffffffffffffffffffffffffffffffff1663635bc0c283600360009054906101000a900473ffffffffffffffffffffffffffffffffffffffff16876040518463ffffffff1660e01b815260040161209f93929190615219565b602060405180830381865afa1580156120bc573d6000803e3d6000fd5b505050506040513d601f19601f820116820180604052508101906120e09190615328565b9050600260009054906101000a900473ffffffffffffffffffffffffffffffffffffffff1673ffffffffffffffffffffffffffffffffffffffff1663fe9f5c05600360009054906101000a900473ffffffffffffffffffffffffffffffffffffffff1684846040518463ffffffff1660e01b815260040161216393929190615219565b600060405180830381600087803b15801561217d57600080fd5b505af1158015612191573d6000803e3d6000fd5b5050505080866121a1919061511e565b9550505b6000600460009054906101000a900473ffffffffffffffffffffffffffffffffffffffff1673ffffffffffffffffffffffffffffffffffffffff1663989796b5836040518263ffffffff1660e01b81526004016122029190614c9e565b6040805180830381865afa15801561221e573d6000803e3d6000fd5b505050506040513d601f19601f8201168201806040525081019061224291906151a5565b5090508173ffffffffffffffffffffffffffffffffffffffff1663a9059cbb82866040518363ffffffff1660e01b815260040161228092919061539d565b6020604051808303816000875af115801561229f573d6000803e3d6000fd5b505050506040513d601f19601f820116820180604052508101906122c39190615288565b508073ffffffffffffffffffffffffffffffffffffffff1663cd682060846040518263ffffffff1660e01b81526004016122fd9190614bc7565b600060405180830381600087803b15801561231757600080fd5b505af115801561232b573d6000803e3d6000fd5b50505050600760008973ffffffffffffffffffffffffffffffffffffffff1673ffffffffffffffffffffffffffffffffffffffff1681526020019081526020016000206001600760008b73ffffffffffffffffffffffffffffffffffffffff1673ffffffffffffffffffffffffffffffffffffffff168152602001908152602001600020805490506123bd919061511e565b815481106123ce576123cd6152b5565b5b9060005260206000200160009054906101000a900473ffffffffffffffffffffffffffffffffffffffff16600760008a73ffffffffffffffffffffffffffffffffffffffff1673ffffffffffffffffffffffffffffffffffffffff168152602001908152602001600020868154811061244a576124496152b5565b5b9060005260206000200160006101000a81548173ffffffffffffffffffffffffffffffffffffffff021916908373ffffffffffffffffffffffffffffffffffffffff160217905550600760008973ffffffffffffffffffffffffffffffffffffffff1673ffffffffffffffffffffffffffffffffffffffff1681526020019081526020016000208054806124e1576124e06152e4565b5b6001900381819060005260206000200160006101000a81549073ffffffffffffffffffffffffffffffffffffffff0219169055905550505050808061252590615355565b915050611a60565b50600360009054906101000a900473ffffffffffffffffffffffffffffffffffffffff1673ffffffffffffffffffffffffffffffffffffffff1663a9059cbb33836040518363ffffffff1660e01b815260040161258b92919061539d565b6020604051808303816000875af11580156125aa573d6000803e3d6000fd5b505050506040513d601f19601f820116820180604052508101906125ce9190615288565b50600047905060003373ffffffffffffffffffffffffffffffffffffffff1684836125f9919061511e565b604051612605906153f7565b60006040518083038185875af1925050503d8060008114612642576040519150601f19603f3d011682016040523d82523d6000602084013e612647565b606091505b505090508061268b576040517f08c379a000000000000000000000000000000000000000000000000000000000815260040161268290615469565b60405180910390fd5b7f2c84ea15e82e281260950b7aac966ce1bffefd1627caf5e54ad38c2bbc5b132485336040516126bc929190615489565b60405180910390a15050505050565b600080600460009054906101000a900473ffffffffffffffffffffffffffffffffffffffff1673ffffffffffffffffffffffffffffffffffffffff1663989796b5856040518263ffffffff1660e01b81526004016127299190614c9e565b6040805180830381865afa158015612745573d6000803e3d6000fd5b505050506040513d601f19601f8201168201806040525081019061276991906151a5565b91509150600073ffffffffffffffffffffffffffffffffffffffff168273ffffffffffffffffffffffffffffffffffffffff16036127d3576040517f4ba53a4500000000000000000000000000000000000000000000000000000000815260040160405180910390fd5b6b204fce5e3e25026110000000836127ea836149ce565b6127f4919061507c565b101561282c576040517f779423de00000000000000000000000000000000000000000000000000000000815260040160405180910390fd5b8373ffffffffffffffffffffffffffffffffffffffff166323b872dd3330866040518463ffffffff1660e01b815260040161286993929190615219565b6020604051808303816000875af1158015612888573d6000803e3d6000fd5b505050506040513d601f19601f820116820180604052508101906128ac9190615288565b506001151561297e600660003373ffffffffffffffffffffffffffffffffffffffff1673ffffffffffffffffffffffffffffffffffffffff16815260200190815260200160002080548060200260200160405190810160405280929190818152602001828054801561297357602002820191906000526020600020905b8160009054906101000a900473ffffffffffffffffffffffffffffffffffffffff1673ffffffffffffffffffffffffffffffffffffffff1681526020019060010190808311612929575b505050505086614a4f565b151503612a2657600660003373ffffffffffffffffffffffffffffffffffffffff1673ffffffffffffffffffffffffffffffffffffffff168152602001908152602001600020849080600181540180825580915050600190039060005260206000200160009091909190916101000a81548173ffffffffffffffffffffffffffffffffffffffff021916908373ffffffffffffffffffffffffffffffffffffffff1602179055505b82600560003373ffffffffffffffffffffffffffffffffffffffff1673ffffffffffffffffffffffffffffffffffffffff16815260200190815260200160002060008673ffffffffffffffffffffffffffffffffffffffff1673ffffffffffffffffffffffffffffffffffffffff1681526020019081526020016000206000828254612ab291906151e5565b925050819055503373ffffffffffffffffffffffffffffffffffffffff167fb759534d8717c1bc7cde21fa6affd5a9d205d5ab4c3bce20bd815a13976029228585604051612b0192919061539d565b60405180910390a250505050565b600160009054906101000a900473ffffffffffffffffffffffffffffffffffffffff1673ffffffffffffffffffffffffffffffffffffffff163373ffffffffffffffffffffffffffffffffffffffff1614612b96576040517feed3ab2300000000000000000000000000000000000000000000000000000000815260040160405180910390fd5b80600360006101000a81548173ffffffffffffffffffffffffffffffffffffffff021916908373ffffffffffffffffffffffffffffffffffffffff16021790555050565b600081600560003373ffffffffffffffffffffffffffffffffffffffff1673ffffffffffffffffffffffffffffffffffffffff16815260200190815260200160002060008573ffffffffffffffffffffffffffffffffffffffff1673ffffffffffffffffffffffffffffffffffffffff16815260200190815260200160002054612c64919061511e565b108015612cb357506000600760003373ffffffffffffffffffffffffffffffffffffffff1673ffffffffffffffffffffffffffffffffffffffff16815260200190815260200160002080549050115b15612cea576040517f56f37e7800000000000000000000000000000000000000000000000000000000815260040160405180910390fd5b6000600460009054906101000a900473ffffffffffffffffffffffffffffffffffffffff1673ffffffffffffffffffffffffffffffffffffffff1663989796b5846040518263ffffffff1660e01b8152600401612d479190614c9e565b6040805180830381865afa158015612d63573d6000803e3d6000fd5b505050506040513d601f19601f82011682018060405250810190612d8791906151a5565b9150506402540be400600560003373ffffffffffffffffffffffffffffffffffffffff1673ffffffffffffffffffffffffffffffffffffffff16815260200190815260200160002060008573ffffffffffffffffffffffffffffffffffffffff1673ffffffffffffffffffffffffffffffffffffffff16815260200190815260200160002054612e16836149ce565b612e20919061507c565b1015612ea657600560003373ffffffffffffffffffffffffffffffffffffffff1673ffffffffffffffffffffffffffffffffffffffff16815260200190815260200160002060008473ffffffffffffffffffffffffffffffffffffffff1673ffffffffffffffffffffffffffffffffffffffff1681526020019081526020016000205491505b81600560003373ffffffffffffffffffffffffffffffffffffffff1673ffffffffffffffffffffffffffffffffffffffff16815260200190815260200160002060008573ffffffffffffffffffffffffffffffffffffffff1673ffffffffffffffffffffffffffffffffffffffff1681526020019081526020016000206000828254612f32919061511e565b925050819055508273ffffffffffffffffffffffffffffffffffffffff1663a9059cbb33846040518363ffffffff1660e01b8152600401612f7492919061539d565b6020604051808303816000875af1158015612f93573d6000803e3d6000fd5b505050506040513d601f19601f82011682018060405250810190612fb79190615288565b506000600560003373ffffffffffffffffffffffffffffffffffffffff1673ffffffffffffffffffffffffffffffffffffffff16815260200190815260200160002060008573ffffffffffffffffffffffffffffffffffffffff1673ffffffffffffffffffffffffffffffffffffffff168152602001908152602001600020540361332e5760005b600660003373ffffffffffffffffffffffffffffffffffffffff1673ffffffffffffffffffffffffffffffffffffffff1681526020019081526020016000208054905081101561332c578373ffffffffffffffffffffffffffffffffffffffff16600660003373ffffffffffffffffffffffffffffffffffffffff1673ffffffffffffffffffffffffffffffffffffffff16815260200190815260200160002082815481106130f1576130f06152b5565b5b9060005260206000200160009054906101000a900473ffffffffffffffffffffffffffffffffffffffff1673ffffffffffffffffffffffffffffffffffffffff160361331f57600660003373ffffffffffffffffffffffffffffffffffffffff1673ffffffffffffffffffffffffffffffffffffffff1681526020019081526020016000206001600660003373ffffffffffffffffffffffffffffffffffffffff1673ffffffffffffffffffffffffffffffffffffffff168152602001908152602001600020805490506131c5919061511e565b815481106131d6576131d56152b5565b5b9060005260206000200160009054906101000a900473ffffffffffffffffffffffffffffffffffffffff16600660003373ffffffffffffffffffffffffffffffffffffffff1673ffffffffffffffffffffffffffffffffffffffff1681526020019081526020016000208281548110613252576132516152b5565b5b9060005260206000200160006101000a81548173ffffffffffffffffffffffffffffffffffffffff021916908373ffffffffffffffffffffffffffffffffffffffff160217905550600660003373ffffffffffffffffffffffffffffffffffffffff1673ffffffffffffffffffffffffffffffffffffffff1681526020019081526020016000208054806132e9576132e86152e4565b5b6001900381819060005260206000200160006101000a81549073ffffffffffffffffffffffffffffffffffffffff021916905590555b808060010191505061303f565b505b3373ffffffffffffffffffffffffffffffffffffffff167fcfe1e6d30a42cc481f02ea9cce49c86f8ae93242f28b0622f864b30a35bbb2d2848460405161337692919061539d565b60405180910390a2505050565b6000600460009054906101000a900473ffffffffffffffffffffffffffffffffffffffff1673ffffffffffffffffffffffffffffffffffffffff1663989796b5846040518263ffffffff1660e01b81526004016133e09190614c9e565b6040805180830381865afa1580156133fc573d6000803e3d6000fd5b505050506040513d601f19601f8201168201806040525081019061342091906151a5565b509050600073ffffffffffffffffffffffffffffffffffffffff168173ffffffffffffffffffffffffffffffffffffffff1603613489576040517f4ba53a4500000000000000000000000000000000000000000000000000000000815260040160405180910390fd5b600054613497338585613b7c565b126134ce576040517f6fc3494000000000000000000000000000000000000000000000000000000000815260040160405180910390fd5b8073ffffffffffffffffffffffffffffffffffffffff1663c5ebeaec836040518263ffffffff1660e01b81526004016135079190614bc7565b600060405180830381600087803b15801561352157600080fd5b505af1158015613535573d6000803e3d6000fd5b505050506001151561360a600760003373ffffffffffffffffffffffffffffffffffffffff1673ffffffffffffffffffffffffffffffffffffffff1681526020019081526020016000208054806020026020016040519081016040528092919081815260200182805480156135ff57602002820191906000526020600020905b8160009054906101000a900473ffffffffffffffffffffffffffffffffffffffff1673ffffffffffffffffffffffffffffffffffffffff16815260200190600101908083116135b5575b505050505085614a4f565b1515036136b257600760003373ffffffffffffffffffffffffffffffffffffffff1673ffffffffffffffffffffffffffffffffffffffff168152602001908152602001600020839080600181540180825580915050600190039060005260206000200160009091909190916101000a81548173ffffffffffffffffffffffffffffffffffffffff021916908373ffffffffffffffffffffffffffffffffffffffff1602179055505b600960003373ffffffffffffffffffffffffffffffffffffffff1673ffffffffffffffffffffffffffffffffffffffff16815260200190815260200160002060008473ffffffffffffffffffffffffffffffffffffffff1673ffffffffffffffffffffffffffffffffffffffff168152602001908152602001600020600860003373ffffffffffffffffffffffffffffffffffffffff1673ffffffffffffffffffffffffffffffffffffffff16815260200190815260200160002054908060018154018082558091505060019003906000526020600020016000909190919091505560405180608001604052808473ffffffffffffffffffffffffffffffffffffffff1681526020018381526020014281526020018273ffffffffffffffffffffffffffffffffffffffff16636140dfd06040518163ffffffff1660e01b8152600401602060405180830381865afa158015613812573d6000803e3d6000fd5b505050506040513d601f19601f820116820180604052508101906138369190615328565b815250600a60003373ffffffffffffffffffffffffffffffffffffffff1673ffffffffffffffffffffffffffffffffffffffff1681526020019081526020016000206000600860003373ffffffffffffffffffffffffffffffffffffffff1673ffffffffffffffffffffffffffffffffffffffff16815260200190815260200160002054815260200190815260200160002060008201518160000160006101000a81548173ffffffffffffffffffffffffffffffffffffffff021916908373ffffffffffffffffffffffffffffffffffffffff1602179055506020820151816001015560408201518160020155606082015181600301559050508273ffffffffffffffffffffffffffffffffffffffff1663a9059cbb33846040518363ffffffff1660e01b815260040161396b92919061539d565b6020604051808303816000875af115801561398a573d6000803e3d6000fd5b505050506040513d601f19601f820116820180604052508101906139ae9190615288565b506001600860003373ffffffffffffffffffffffffffffffffffffffff1673ffffffffffffffffffffffffffffffffffffffff16815260200190815260200160002060008282546139ff91906151e5565b925050819055503373ffffffffffffffffffffffffffffffffffffffff167fde1ec58d6821a902fd200541e0254901c79b0c05f4a9d50d6dad669c8645805f8484604051613a4e92919061539d565b60405180910390a2505050565b60076020528160005260406000208181548110613a7757600080fd5b906000526020600020016000915091509054906101000a900473ffffffffffffffffffffffffffffffffffffffff1681565b6060600760008373ffffffffffffffffffffffffffffffffffffffff1673ffffffffffffffffffffffffffffffffffffffff168152602001908152602001600020805480602002602001604051908101604052809291908181526020018280548015613b6a57602002820191906000526020600020905b8160009054906101000a900473ffffffffffffffffffffffffffffffffffffffff1673ffffffffffffffffffffffffffffffffffffffff1681526020019060010190808311613b20575b50505050509050919050565b60005481565b6000806000806000600460009054906101000a900473ffffffffffffffffffffffffffffffffffffffff1673ffffffffffffffffffffffffffffffffffffffff1663989796b5886040518263ffffffff1660e01b8152600401613bdf9190614c9e565b6040805180830381865afa158015613bfb573d6000803e3d6000fd5b505050506040513d601f19601f82011682018060405250810190613c1f91906151a5565b9150915060008614158015613c615750600073ffffffffffffffffffffffffffffffffffffffff168273ffffffffffffffffffffffffffffffffffffffff1614155b15613c8e576000613c71826149ce565b90508681613c7f91906154b2565b84613c8a919061552a565b9350505b60005b600660008a73ffffffffffffffffffffffffffffffffffffffff1673ffffffffffffffffffffffffffffffffffffffff16815260200190815260200160002080549050811015613eb3576000600660008b73ffffffffffffffffffffffffffffffffffffffff1673ffffffffffffffffffffffffffffffffffffffff1681526020019081526020016000208281548110613d2e57613d2d6152b5565b5b9060005260206000200160009054906101000a900473ffffffffffffffffffffffffffffffffffffffff1690506000600560008c73ffffffffffffffffffffffffffffffffffffffff1673ffffffffffffffffffffffffffffffffffffffff16815260200190815260200160002060008373ffffffffffffffffffffffffffffffffffffffff1673ffffffffffffffffffffffffffffffffffffffff1681526020019081526020016000205490506000600460009054906101000a900473ffffffffffffffffffffffffffffffffffffffff1673ffffffffffffffffffffffffffffffffffffffff1663989796b5846040518263ffffffff1660e01b8152600401613e399190614c9e565b6040805180830381865afa158015613e55573d6000803e3d6000fd5b505050506040513d601f19601f82011682018060405250810190613e7991906151a5565b9150506000613e87826149ce565b90508281613e9591906154b2565b89613ea0919061552a565b9850505050508080600101915050613c91565b5060005b600760008a73ffffffffffffffffffffffffffffffffffffffff1673ffffffffffffffffffffffffffffffffffffffff16815260200190815260200160002080549050811015614323576000600760008b73ffffffffffffffffffffffffffffffffffffffff1673ffffffffffffffffffffffffffffffffffffffff1681526020019081526020016000208281548110613f5457613f536152b5565b5b9060005260206000200160009054906101000a900473ffffffffffffffffffffffffffffffffffffffff1690506000600960008c73ffffffffffffffffffffffffffffffffffffffff1673ffffffffffffffffffffffffffffffffffffffff16815260200190815260200160002060008373ffffffffffffffffffffffffffffffffffffffff1673ffffffffffffffffffffffffffffffffffffffff168152602001908152602001600020905060005b8180549050811015614313576000600a60003373ffffffffffffffffffffffffffffffffffffffff1673ffffffffffffffffffffffffffffffffffffffff1681526020019081526020016000206000848481548110614066576140656152b5565b5b906000526020600020015481526020019081526020016000206002015490506000600a60003373ffffffffffffffffffffffffffffffffffffffff1673ffffffffffffffffffffffffffffffffffffffff16815260200190815260200160002060008585815481106140db576140da6152b5565b5b906000526020600020015481526020019081526020016000206001015490506000600a60003373ffffffffffffffffffffffffffffffffffffffff1673ffffffffffffffffffffffffffffffffffffffff16815260200190815260200160002060008686815481106141505761414f6152b5565b5b9060005260206000200154815260200190815260200160002060000160009054906101000a900473ffffffffffffffffffffffffffffffffffffffff1690506000600a60003373ffffffffffffffffffffffffffffffffffffffff1673ffffffffffffffffffffffffffffffffffffffff16815260200190815260200160002060008787815481106141e5576141e46152b5565b5b90600052602060002001548152602001908152602001600020600301549050600063bbf81e00828686614218919061507c565b614222919061507c565b61422c91906150ed565b90506000600460009054906101000a900473ffffffffffffffffffffffffffffffffffffffff1673ffffffffffffffffffffffffffffffffffffffff1663989796b5856040518263ffffffff1660e01b815260040161428b9190614c9e565b6040805180830381865afa1580156142a7573d6000803e3d6000fd5b505050506040513d601f19601f820116820180604052508101906142cb91906151a5565b91505060006142d9826149ce565b905085836142e791906151e5565b816142f291906154b2565b8e6142fd919061552a565b9d50505050505050508080600101915050614004565b5050508080600101915050613eb7565b508360648461433291906154b2565b61433c919061556e565b9450505050509392505050565b6009602052826000526040600020602052816000526040600020818154811061437157600080fd5b9060005260206000200160009250925050505481565b60086020528060005260406000206000915090505481565b60606000805b600760008573ffffffffffffffffffffffffffffffffffffffff1673ffffffffffffffffffffffffffffffffffffffff1681526020019081526020016000208054905081101561450457600960008573ffffffffffffffffffffffffffffffffffffffff1673ffffffffffffffffffffffffffffffffffffffff1681526020019081526020016000206000600760008773ffffffffffffffffffffffffffffffffffffffff1673ffffffffffffffffffffffffffffffffffffffff1681526020019081526020016000208381548110614481576144806152b5565b5b9060005260206000200160009054906101000a900473ffffffffffffffffffffffffffffffffffffffff1673ffffffffffffffffffffffffffffffffffffffff1673ffffffffffffffffffffffffffffffffffffffff16815260200190815260200160002080549050826144f591906151e5565b915080806001019150506143a5565b5060008167ffffffffffffffff811115614521576145206155d8565b5b60405190808252806020026020018201604052801561454f5781602001602082028036833780820191505090505b5090506000805b600760008773ffffffffffffffffffffffffffffffffffffffff1673ffffffffffffffffffffffffffffffffffffffff168152602001908152602001600020805490508110156148015760005b600960008873ffffffffffffffffffffffffffffffffffffffff1673ffffffffffffffffffffffffffffffffffffffff1681526020019081526020016000206000600760008a73ffffffffffffffffffffffffffffffffffffffff1673ffffffffffffffffffffffffffffffffffffffff1681526020019081526020016000208481548110614635576146346152b5565b5b9060005260206000200160009054906101000a900473ffffffffffffffffffffffffffffffffffffffff1673ffffffffffffffffffffffffffffffffffffffff1673ffffffffffffffffffffffffffffffffffffffff168152602001908152602001600020805490508110156147f357600960008873ffffffffffffffffffffffffffffffffffffffff1673ffffffffffffffffffffffffffffffffffffffff1681526020019081526020016000206000600760008a73ffffffffffffffffffffffffffffffffffffffff1673ffffffffffffffffffffffffffffffffffffffff1681526020019081526020016000208481548110614737576147366152b5565b5b9060005260206000200160009054906101000a900473ffffffffffffffffffffffffffffffffffffffff1673ffffffffffffffffffffffffffffffffffffffff1673ffffffffffffffffffffffffffffffffffffffff16815260200190815260200160002081815481106147ae576147ad6152b5565b5b90600052602060002001548484815181106147cc576147cb6152b5565b5b60200260200101818152505082806147e390615355565b93505080806001019150506145a3565b508080600101915050614556565b50819350505050919050565b600260009054906101000a900473ffffffffffffffffffffffffffffffffffffffff1681565b6005602052816000526040600020602052806000526040600020600091509150505481565b600460009054906101000a900473ffffffffffffffffffffffffffffffffffffffff1681565b600360009054906101000a900473ffffffffffffffffffffffffffffffffffffffff1681565b600a602052816000526040600020602052806000526040600020600091509150508060000160009054906101000a900473ffffffffffffffffffffffffffffffffffffffff16908060010154908060020154908060030154905084565b6060600660008373ffffffffffffffffffffffffffffffffffffffff1673ffffffffffffffffffffffffffffffffffffffff1681526020019081526020016000208054806020026020016040519081016040528092919081815260200182805480156149c257602002820191906000526020600020905b8160009054906101000a900473ffffffffffffffffffffffffffffffffffffffff1673ffffffffffffffffffffffffffffffffffffffff1681526020019060010190808311614978575b50505050509050919050565b6000808273ffffffffffffffffffffffffffffffffffffffff1663feaf968c6040518163ffffffff1660e01b815260040160a060405180830381865afa158015614a1c573d6000803e3d6000fd5b505050506040513d601f19601f82011682018060405250810190614a409190615675565b50505091505080915050919050565b6000806001905060005b8451811015614ac157848181518110614a7557614a746152b5565b5b602002602001015173ffffffffffffffffffffffffffffffffffffffff168473ffffffffffffffffffffffffffffffffffffffff1603614ab457600091505b8080600101915050614a59565b508091505092915050565b600080fd5b6000819050919050565b614ae481614ad1565b8114614aef57600080fd5b50565b600081359050614b0181614adb565b92915050565b600073ffffffffffffffffffffffffffffffffffffffff82169050919050565b6000614b3282614b07565b9050919050565b614b4281614b27565b8114614b4d57600080fd5b50565b600081359050614b5f81614b39565b92915050565b600080600060608486031215614b7e57614b7d614acc565b5b6000614b8c86828701614af2565b9350506020614b9d86828701614b50565b9250506040614bae86828701614af2565b9150509250925092565b614bc181614ad1565b82525050565b6000602082019050614bdc6000830184614bb8565b92915050565b60008060408385031215614bf957614bf8614acc565b5b6000614c0785828601614af2565b9250506020614c1885828601614af2565b9150509250929050565b600060208284031215614c3857614c37614acc565b5b6000614c4684828501614b50565b91505092915050565b60008060408385031215614c6657614c65614acc565b5b6000614c7485828601614b50565b9250506020614c8585828601614af2565b9150509250929050565b614c9881614b27565b82525050565b6000602082019050614cb36000830184614c8f565b92915050565b600081519050919050565b600082825260208201905092915050565b6000819050602082019050919050565b614cee81614b27565b82525050565b6000614d008383614ce5565b60208301905092915050565b6000602082019050919050565b6000614d2482614cb9565b614d2e8185614cc4565b9350614d3983614cd5565b8060005b83811015614d6a578151614d518882614cf4565b9750614d5c83614d0c565b925050600181019050614d3d565b5085935050505092915050565b60006020820190508181036000830152614d918184614d19565b905092915050565b6000819050919050565b614dac81614d99565b82525050565b6000602082019050614dc76000830184614da3565b92915050565b600080600060608486031215614de657614de5614acc565b5b6000614df486828701614b50565b9350506020614e0586828701614b50565b9250506040614e1686828701614af2565b9150509250925092565b600081519050919050565b600082825260208201905092915050565b6000819050602082019050919050565b614e5581614ad1565b82525050565b6000614e678383614e4c565b60208301905092915050565b6000602082019050919050565b6000614e8b82614e20565b614e958185614e2b565b9350614ea083614e3c565b8060005b83811015614ed1578151614eb88882614e5b565b9750614ec383614e73565b925050600181019050614ea4565b5085935050505092915050565b60006020820190508181036000830152614ef88184614e80565b905092915050565b6000819050919050565b6000614f25614f20614f1b84614b07565b614f00565b614b07565b9050919050565b6000614f3782614f0a565b9050919050565b6000614f4982614f2c565b9050919050565b614f5981614f3e565b82525050565b6000602082019050614f746000830184614f50565b92915050565b60008060408385031215614f9157614f90614acc565b5b6000614f9f85828601614b50565b9250506020614fb085828601614b50565b9150509250929050565b6000614fc582614f0a565b9050919050565b6000614fd782614fba565b9050919050565b614fe781614fcc565b82525050565b60006020820190506150026000830184614fde565b92915050565b600060808201905061501d6000830187614c8f565b61502a6020830186614bb8565b6150376040830185614bb8565b6150446060830184614bb8565b95945050505050565b7f4e487b7100000000000000000000000000000000000000000000000000000000600052601160045260246000fd5b600061508782614ad1565b915061509283614ad1565b92508282026150a081614ad1565b915082820484148315176150b7576150b661504d565b5b5092915050565b7f4e487b7100000000000000000000000000000000000000000000000000000000600052601260045260246000fd5b60006150f882614ad1565b915061510383614ad1565b925082615113576151126150be565b5b828204905092915050565b600061512982614ad1565b915061513483614ad1565b925082820390508181111561514c5761514b61504d565b5b92915050565b600061515d82614b27565b9050919050565b61516d81615152565b811461517857600080fd5b50565b60008151905061518a81615164565b92915050565b60008151905061519f81614b39565b92915050565b600080604083850312156151bc576151bb614acc565b5b60006151ca8582860161517b565b92505060206151db85828601615190565b9150509250929050565b60006151f082614ad1565b91506151fb83614ad1565b92508282019050808211156152135761521261504d565b5b92915050565b600060608201905061522e6000830186614c8f565b61523b6020830185614c8f565b6152486040830184614bb8565b949350505050565b60008115159050919050565b61526581615250565b811461527057600080fd5b50565b6000815190506152828161525c565b92915050565b60006020828403121561529e5761529d614acc565b5b60006152ac84828501615273565b91505092915050565b7f4e487b7100000000000000000000000000000000000000000000000000000000600052603260045260246000fd5b7f4e487b7100000000000000000000000000000000000000000000000000000000600052603160045260246000fd5b60008151905061532281614adb565b92915050565b60006020828403121561533e5761533d614acc565b5b600061534c84828501615313565b91505092915050565b600061536082614ad1565b91507fffffffffffffffffffffffffffffffffffffffffffffffffffffffffffffffff82036153925761539161504d565b5b600182019050919050565b60006040820190506153b26000830185614c8f565b6153bf6020830184614bb8565b9392505050565b600081905092915050565b50565b60006153e16000836153c6565b91506153ec826153d1565b600082019050919050565b6000615402826153d4565b9150819050919050565b600082825260208201905092915050565b7f4661696c656420746f2073656e64204574686572000000000000000000000000600082015250565b600061545360148361540c565b915061545e8261541d565b602082019050919050565b6000602082019050818103600083015261548281615446565b9050919050565b600060408201905061549e6000830185614c8f565b6154ab6020830184614c8f565b9392505050565b60006154bd82614d99565b91506154c883614d99565b92508282026154d681614d99565b91507f8000000000000000000000000000000000000000000000000000000000000000841460008412161561550e5761550d61504d565b5b82820584148315176155235761552261504d565b5b5092915050565b600061553582614d99565b915061554083614d99565b9250828201905082811215600083121683821260008412151617156155685761556761504d565b5b92915050565b600061557982614d99565b915061558483614d99565b925082615594576155936150be565b5b600160000383147f8000000000000000000000000000000000000000000000000000000000000000831416156155cd576155cc61504d565b5b828205905092915050565b7f4e487b7100000000000000000000000000000000000000000000000000000000600052604160045260246000fd5b600069ffffffffffffffffffff82169050919050565b61562681615607565b811461563157600080fd5b50565b6000815190506156438161561d565b92915050565b61565281614d99565b811461565d57600080fd5b50565b60008151905061566f81615649565b92915050565b600080600080600060a0868803121561569157615690614acc565b5b600061569f88828901615634565b95505060206156b088828901615660565b94505060406156c188828901615313565b93505060606156d288828901615313565b92505060806156e388828901615634565b915050929550929590935056fea26469706673582212209c0cae291ed5e9233e72aa73e29d6b49d08a1e6fb0526701f890ec3adf69a01c64736f6c63430008180033",
  "linkReferences": {},
  "deployedLinkReferences": {}
}