{
  "_format": "hh-sol-artifact-1",
  "contractName": "LendingTracker",
  "sourceName": "contracts/Lending/LendingTracker.sol",
  "abi": [
    {
      "inputs": [],
      "stateMutability": "nonpayable",
      "type": "constructor"
    },
    {
      "inputs": [],
      "name": "lendingTracker_addressNotAllowed",
      "type": "error"
    },
    {
      "inputs": [],
      "name": "lendingTracker_amountTooHigh",
      "type": "error"
    },
    {
      "inputs": [],
      "name": "lendingTracker_poolExists",
      "type": "error"
    },
    {
      "inputs": [],
      "name": "lendingTracker_poolNotAvailable",
      "type": "error"
    },
    {
      "anonymous": false,
      "inputs": [
        {
          "indexed": false,
          "internalType": "address",
          "name": "user",
          "type": "address"
        },
        {
          "indexed": false,
          "internalType": "address",
          "name": "tokenAddress",
          "type": "address"
        },
        {
          "indexed": false,
          "internalType": "uint256",
          "name": "tokenAmount",
          "type": "uint256"
        }
      ],
      "name": "userFarmedYield",
      "type": "event"
    },
    {
      "anonymous": false,
      "inputs": [
        {
          "indexed": true,
          "internalType": "address",
          "name": "user",
          "type": "address"
        },
        {
          "indexed": false,
          "internalType": "address",
          "name": "tokenAddress",
          "type": "address"
        },
        {
          "indexed": false,
          "internalType": "uint256",
          "name": "tokenAmount",
          "type": "uint256"
        }
      ],
      "name": "userLended",
      "type": "event"
    },
    {
      "anonymous": false,
      "inputs": [
        {
          "indexed": true,
          "internalType": "address",
          "name": "user",
          "type": "address"
        },
        {
          "indexed": false,
          "internalType": "address",
          "name": "tokenAddress",
          "type": "address"
        },
        {
          "indexed": false,
          "internalType": "uint256",
          "name": "tokenAmount",
          "type": "uint256"
        }
      ],
      "name": "userWithdrawnLendedTokens",
      "type": "event"
    },
    {
      "inputs": [
        {
          "internalType": "address",
          "name": "newBorrowingContract",
          "type": "address"
        }
      ],
      "name": "addBorrowingContract",
      "outputs": [],
      "stateMutability": "nonpayable",
      "type": "function"
    },
    {
      "inputs": [
        {
          "internalType": "address",
          "name": "tokenAddress",
          "type": "address"
        },
        {
          "internalType": "address",
          "name": "priceAddress",
          "type": "address"
        }
      ],
      "name": "addTokenPool",
      "outputs": [],
      "stateMutability": "nonpayable",
      "type": "function"
    },
    {
      "inputs": [],
      "name": "allAvailableTokens",
      "outputs": [
        {
          "internalType": "address[]",
          "name": "",
          "type": "address[]"
        }
      ],
      "stateMutability": "view",
      "type": "function"
    },
    {
      "inputs": [
        {
          "internalType": "uint256",
          "name": "",
          "type": "uint256"
        }
      ],
      "name": "availableTokens",
      "outputs": [
        {
          "internalType": "address",
          "name": "",
          "type": "address"
        }
      ],
      "stateMutability": "view",
      "type": "function"
    },
    {
      "inputs": [],
      "name": "borrowingContract",
      "outputs": [
        {
          "internalType": "address",
          "name": "",
          "type": "address"
        }
      ],
      "stateMutability": "view",
      "type": "function"
    },
    {
      "inputs": [
        {
          "internalType": "address",
          "name": "tokenAddress",
          "type": "address"
        },
        {
          "internalType": "uint256",
          "name": "newAPY",
          "type": "uint256"
        }
      ],
      "name": "changeBorrowingAPY",
      "outputs": [],
      "stateMutability": "nonpayable",
      "type": "function"
    },
    {
      "inputs": [
        {
          "internalType": "address",
          "name": "tokenAddress",
          "type": "address"
        },
        {
          "internalType": "address",
          "name": "priceAddress",
          "type": "address"
        }
      ],
      "name": "changePriceFeed",
      "outputs": [],
      "stateMutability": "nonpayable",
      "type": "function"
    },
    {
      "inputs": [
        {
          "internalType": "address",
          "name": "user",
          "type": "address"
        }
      ],
      "name": "getLoanedTokens",
      "outputs": [
        {
          "internalType": "address[]",
          "name": "",
          "type": "address[]"
        }
      ],
      "stateMutability": "view",
      "type": "function"
    },
    {
      "inputs": [
        {
          "internalType": "address",
          "name": "_tokenAddress",
          "type": "address"
        }
      ],
      "name": "getTokenPrice",
      "outputs": [
        {
          "internalType": "int256",
          "name": "",
          "type": "int256"
        }
      ],
      "stateMutability": "view",
      "type": "function"
    },
    {
      "inputs": [
        {
          "internalType": "address",
          "name": "tokenAddress",
          "type": "address"
        }
      ],
      "name": "getYield",
      "outputs": [],
      "stateMutability": "nonpayable",
      "type": "function"
    },
    {
      "inputs": [
        {
          "internalType": "address",
          "name": "tokenAddress",
          "type": "address"
        },
        {
          "internalType": "uint256",
          "name": "tokenAmount",
          "type": "uint256"
        }
      ],
      "name": "lendToken",
      "outputs": [],
      "stateMutability": "nonpayable",
      "type": "function"
    },
    {
      "inputs": [
        {
          "internalType": "address",
          "name": "",
          "type": "address"
        }
      ],
      "name": "tokenToPool",
      "outputs": [
        {
          "internalType": "contract Pool",
          "name": "poolAddress",
          "type": "address"
        },
        {
          "internalType": "address",
          "name": "priceAddress",
          "type": "address"
        }
      ],
      "stateMutability": "view",
      "type": "function"
    },
    {
      "inputs": [
        {
          "internalType": "address",
          "name": "",
          "type": "address"
        }
      ],
      "name": "totalLent",
      "outputs": [
        {
          "internalType": "uint256",
          "name": "",
          "type": "uint256"
        }
      ],
      "stateMutability": "view",
      "type": "function"
    },
    {
      "inputs": [
        {
          "internalType": "address",
          "name": "",
          "type": "address"
        },
        {
          "internalType": "address",
          "name": "",
          "type": "address"
        }
      ],
      "name": "userLendedAmount",
      "outputs": [
        {
          "internalType": "uint256",
          "name": "",
          "type": "uint256"
        }
      ],
      "stateMutability": "view",
      "type": "function"
    },
    {
      "inputs": [
        {
          "internalType": "address",
          "name": "",
          "type": "address"
        },
        {
          "internalType": "uint256",
          "name": "",
          "type": "uint256"
        }
      ],
      "name": "userLendedTokens",
      "outputs": [
        {
          "internalType": "address",
          "name": "",
          "type": "address"
        }
      ],
      "stateMutability": "view",
      "type": "function"
    },
    {
      "inputs": [
        {
          "internalType": "address",
          "name": "tokenAddress",
          "type": "address"
        },
        {
          "internalType": "uint256",
          "name": "tokenAmount",
          "type": "uint256"
        }
      ],
      "name": "withdrawLendedToken",
      "outputs": [],
      "stateMutability": "nonpayable",
      "type": "function"
    }
  ],
  "bytecode": "0x608060405234801561001057600080fd5b50336000806101000a81548173ffffffffffffffffffffffffffffffffffffffff021916908373ffffffffffffffffffffffffffffffffffffffff160217905550613d63806100606000396000f3fe60806040523480156200001157600080fd5b5060043610620001185760003560e01c806364c3397711620000a5578063ad64d068116200006f578063ad64d06814620002fa578063d02641a01462000330578063e1a777a01462000366578063ff87fe81146200039c5762000118565b806364c33977146200025f57806384a965ed146200027f578063989796b514620002a1578063a0638ddd14620002d85762000118565b80633e1a52b411620000e75780633e1a52b414620001c957806341d1265714620001e957806343b91303146200021f57806359c98516146200023f5762000118565b806302201c70146200011d57806325470355146200013d5780632921f392146200015d57806330e81a8a1462000193575b600080fd5b6200013b600480360381019062000135919062001f48565b620003bc565b005b6200015b600480360381019062000155919062001fca565b62000590565b005b6200017b600480360381019062000175919062001f48565b62000bc1565b6040516200018a919062002022565b60405180910390f35b620001b16004803603810190620001ab91906200203f565b62000be6565b604051620001c0919062002022565b60405180910390f35b620001e76004803603810190620001e1919062001fca565b62000bfe565b005b6200020760048036038101906200020191906200203f565b62001413565b6040516200021691906200213f565b60405180910390f35b6200023d600480360381019062000237919062001f48565b620014e2565b005b6200025d600480360381019062000257919062001fca565b6200180b565b005b6200027d60048036038101906200027791906200203f565b62001966565b005b6200028962001b0c565b60405162000298919062002174565b60405180910390f35b620002bf6004803603810190620002b991906200203f565b62001b32565b604051620002cf929190620021fc565b60405180910390f35b620002e262001b96565b604051620002f191906200213f565b60405180910390f35b62000318600480360381019062000312919062002229565b62001c26565b60405162000327919062002174565b60405180910390f35b6200034e60048036038101906200034891906200203f565b62001c66565b6040516200035d919062002276565b60405180910390f35b6200038460048036038101906200037e919062001fca565b62001db9565b60405162000393919062002174565b60405180910390f35b620003ba6004803603810190620003b491906200203f565b62001e08565b005b60008054906101000a900473ffffffffffffffffffffffffffffffffffffffff1673ffffffffffffffffffffffffffffffffffffffff163373ffffffffffffffffffffffffffffffffffffffff161462000442576040517f56f37e7800000000000000000000000000000000000000000000000000000000815260040160405180910390fd5b600073ffffffffffffffffffffffffffffffffffffffff16600260008473ffffffffffffffffffffffffffffffffffffffff1673ffffffffffffffffffffffffffffffffffffffff16815260200190815260200160002060000160009054906101000a900473ffffffffffffffffffffffffffffffffffffffff1673ffffffffffffffffffffffffffffffffffffffff16036200050b576040517f4ba53a4500000000000000000000000000000000000000000000000000000000815260040160405180910390fd5b80600260008473ffffffffffffffffffffffffffffffffffffffff1673ffffffffffffffffffffffffffffffffffffffff16815260200190815260200160002060010160006101000a81548173ffffffffffffffffffffffffffffffffffffffff021916908373ffffffffffffffffffffffffffffffffffffffff1602179055505050565b600073ffffffffffffffffffffffffffffffffffffffff16600260008473ffffffffffffffffffffffffffffffffffffffff1673ffffffffffffffffffffffffffffffffffffffff16815260200190815260200160002060000160009054906101000a900473ffffffffffffffffffffffffffffffffffffffff1673ffffffffffffffffffffffffffffffffffffffff160362000659576040517f4ba53a4500000000000000000000000000000000000000000000000000000000815260040160405180910390fd5b8173ffffffffffffffffffffffffffffffffffffffff166323b872dd3330846040518463ffffffff1660e01b8152600401620006989392919062002293565b6020604051808303816000875af1158015620006b8573d6000803e3d6000fd5b505050506040513d601f19601f82011682018060405250810190620006de91906200230d565b508173ffffffffffffffffffffffffffffffffffffffff1663095ea7b3600260008573ffffffffffffffffffffffffffffffffffffffff1673ffffffffffffffffffffffffffffffffffffffff16815260200190815260200160002060000160009054906101000a900473ffffffffffffffffffffffffffffffffffffffff16836040518363ffffffff1660e01b81526004016200077e9291906200233f565b6020604051808303816000875af11580156200079e573d6000803e3d6000fd5b505050506040513d601f19601f82011682018060405250810190620007c491906200230d565b5062000896600560003373ffffffffffffffffffffffffffffffffffffffff1673ffffffffffffffffffffffffffffffffffffffff1681526020019081526020016000208054806020026020016040519081016040528092919081815260200182805480156200088a57602002820191906000526020600020905b8160009054906101000a900473ffffffffffffffffffffffffffffffffffffffff1673ffffffffffffffffffffffffffffffffffffffff16815260200190600101908083116200083f575b50505050508362001e4c565b156200093d57600560003373ffffffffffffffffffffffffffffffffffffffff1673ffffffffffffffffffffffffffffffffffffffff168152602001908152602001600020829080600181540180825580915050600190039060005260206000200160009091909190916101000a81548173ffffffffffffffffffffffffffffffffffffffff021916908373ffffffffffffffffffffffffffffffffffffffff1602179055505b80600460003373ffffffffffffffffffffffffffffffffffffffff1673ffffffffffffffffffffffffffffffffffffffff16815260200190815260200160002060008473ffffffffffffffffffffffffffffffffffffffff1673ffffffffffffffffffffffffffffffffffffffff1681526020019081526020016000206000828254620009cb91906200239b565b92505081905550600260008373ffffffffffffffffffffffffffffffffffffffff1673ffffffffffffffffffffffffffffffffffffffff16815260200190815260200160002060000160009054906101000a900473ffffffffffffffffffffffffffffffffffffffff1673ffffffffffffffffffffffffffffffffffffffff1663a6aa57ce826040518263ffffffff1660e01b815260040162000a6f919062002022565b600060405180830381600087803b15801562000a8a57600080fd5b505af115801562000a9f573d6000803e3d6000fd5b50505050600062000ab08362001c66565b9050600081121562000af9576040517f08c379a000000000000000000000000000000000000000000000000000000000815260040162000af09062002437565b60405180910390fd5b60008190506000838262000b0e919062002459565b905080600660003373ffffffffffffffffffffffffffffffffffffffff1673ffffffffffffffffffffffffffffffffffffffff168152602001908152602001600020600082825462000b6191906200239b565b925050819055503373ffffffffffffffffffffffffffffffffffffffff167fbae46e7122b75f20fe8069d88135321512a64b320000386d592d5082c26afb64868660405162000bb29291906200233f565b60405180910390a25050505050565b6004602052816000526040600020602052806000526040600020600091509150505481565b60066020528060005260406000206000915090505481565b600073ffffffffffffffffffffffffffffffffffffffff16600260008473ffffffffffffffffffffffffffffffffffffffff1673ffffffffffffffffffffffffffffffffffffffff16815260200190815260200160002060000160009054906101000a900473ffffffffffffffffffffffffffffffffffffffff1673ffffffffffffffffffffffffffffffffffffffff160362000cc7576040517f4ba53a4500000000000000000000000000000000000000000000000000000000815260040160405180910390fd5b80600460003373ffffffffffffffffffffffffffffffffffffffff1673ffffffffffffffffffffffffffffffffffffffff16815260200190815260200160002060008473ffffffffffffffffffffffffffffffffffffffff1673ffffffffffffffffffffffffffffffffffffffff16815260200190815260200160002054101562000d7e576040517f6fc3494000000000000000000000000000000000000000000000000000000000815260040160405180910390fd5b80600460003373ffffffffffffffffffffffffffffffffffffffff1673ffffffffffffffffffffffffffffffffffffffff16815260200190815260200160002060008473ffffffffffffffffffffffffffffffffffffffff1673ffffffffffffffffffffffffffffffffffffffff168152602001908152602001600020600082825462000e0c9190620024a4565b92505081905550600260008373ffffffffffffffffffffffffffffffffffffffff1673ffffffffffffffffffffffffffffffffffffffff16815260200190815260200160002060000160009054906101000a900473ffffffffffffffffffffffffffffffffffffffff1673ffffffffffffffffffffffffffffffffffffffff16632e1a7d4d826040518263ffffffff1660e01b815260040162000eb0919062002022565b600060405180830381600087803b15801562000ecb57600080fd5b505af115801562000ee0573d6000803e3d6000fd5b505050508173ffffffffffffffffffffffffffffffffffffffff1663a9059cbb33836040518363ffffffff1660e01b815260040162000f219291906200233f565b6020604051808303816000875af115801562000f41573d6000803e3d6000fd5b505050506040513d601f19601f8201168201806040525081019062000f6791906200230d565b506000600460003373ffffffffffffffffffffffffffffffffffffffff1673ffffffffffffffffffffffffffffffffffffffff16815260200190815260200160002060008473ffffffffffffffffffffffffffffffffffffffff1673ffffffffffffffffffffffffffffffffffffffff1681526020019081526020016000205403620012f55760005b600560003373ffffffffffffffffffffffffffffffffffffffff1673ffffffffffffffffffffffffffffffffffffffff16815260200190815260200160002080549050811015620012f3578273ffffffffffffffffffffffffffffffffffffffff16600560003373ffffffffffffffffffffffffffffffffffffffff1673ffffffffffffffffffffffffffffffffffffffff1681526020019081526020016000208281548110620010a657620010a5620024df565b5b9060005260206000200160009054906101000a900473ffffffffffffffffffffffffffffffffffffffff1673ffffffffffffffffffffffffffffffffffffffff1603620012e557600560003373ffffffffffffffffffffffffffffffffffffffff1673ffffffffffffffffffffffffffffffffffffffff1681526020019081526020016000206001600560003373ffffffffffffffffffffffffffffffffffffffff1673ffffffffffffffffffffffffffffffffffffffff168152602001908152602001600020805490506200117d9190620024a4565b81548110620011915762001190620024df565b5b9060005260206000200160009054906101000a900473ffffffffffffffffffffffffffffffffffffffff16600560003373ffffffffffffffffffffffffffffffffffffffff1673ffffffffffffffffffffffffffffffffffffffff168152602001908152602001600020828154811062001210576200120f620024df565b5b9060005260206000200160006101000a81548173ffffffffffffffffffffffffffffffffffffffff021916908373ffffffffffffffffffffffffffffffffffffffff160217905550600560003373ffffffffffffffffffffffffffffffffffffffff1673ffffffffffffffffffffffffffffffffffffffff168152602001908152602001600020805480620012aa57620012a96200250e565b5b6001900381819060005260206000200160006101000a81549073ffffffffffffffffffffffffffffffffffffffff02191690559055620012f3565b808060010191505062000ff0565b505b6000620013028362001c66565b905060008112156200134b576040517f08c379a0000000000000000000000000000000000000000000000000000000008152600401620013429062002437565b60405180910390fd5b60008190506000838262001360919062002459565b905080600660003373ffffffffffffffffffffffffffffffffffffffff1673ffffffffffffffffffffffffffffffffffffffff1681526020019081526020016000206000828254620013b39190620024a4565b925050819055503373ffffffffffffffffffffffffffffffffffffffff167f86c5c7a77e073d103cb6d0edf1f3809dbf9b9dfbf09656d8ecc9515a4782e3858686604051620014049291906200233f565b60405180910390a25050505050565b6060600560008373ffffffffffffffffffffffffffffffffffffffff1673ffffffffffffffffffffffffffffffffffffffff168152602001908152602001600020805480602002602001604051908101604052809291908181526020018280548015620014d657602002820191906000526020600020905b8160009054906101000a900473ffffffffffffffffffffffffffffffffffffffff1673ffffffffffffffffffffffffffffffffffffffff16815260200190600101908083116200148b575b50505050509050919050565b60008054906101000a900473ffffffffffffffffffffffffffffffffffffffff1673ffffffffffffffffffffffffffffffffffffffff163373ffffffffffffffffffffffffffffffffffffffff161462001568576040517f56f37e7800000000000000000000000000000000000000000000000000000000815260040160405180910390fd5b600073ffffffffffffffffffffffffffffffffffffffff16600260008473ffffffffffffffffffffffffffffffffffffffff1673ffffffffffffffffffffffffffffffffffffffff16815260200190815260200160002060000160009054906101000a900473ffffffffffffffffffffffffffffffffffffffff1673ffffffffffffffffffffffffffffffffffffffff161462001631576040517f8324c21500000000000000000000000000000000000000000000000000000000815260040160405180910390fd5b600082600160009054906101000a900473ffffffffffffffffffffffffffffffffffffffff16604051620016659062001ed0565b620016729291906200253d565b604051809103906000f0801580156200168f573d6000803e3d6000fd5b50905060405180604001604052808273ffffffffffffffffffffffffffffffffffffffff1681526020018373ffffffffffffffffffffffffffffffffffffffff16815250600260008573ffffffffffffffffffffffffffffffffffffffff1673ffffffffffffffffffffffffffffffffffffffff16815260200190815260200160002060008201518160000160006101000a81548173ffffffffffffffffffffffffffffffffffffffff021916908373ffffffffffffffffffffffffffffffffffffffff16021790555060208201518160010160006101000a81548173ffffffffffffffffffffffffffffffffffffffff021916908373ffffffffffffffffffffffffffffffffffffffff1602179055509050506003839080600181540180825580915050600190039060005260206000200160009091909190916101000a81548173ffffffffffffffffffffffffffffffffffffffff021916908373ffffffffffffffffffffffffffffffffffffffff160217905550505050565b60008054906101000a900473ffffffffffffffffffffffffffffffffffffffff1673ffffffffffffffffffffffffffffffffffffffff163373ffffffffffffffffffffffffffffffffffffffff161462001891576040517f56f37e7800000000000000000000000000000000000000000000000000000000815260040160405180910390fd5b600260008373ffffffffffffffffffffffffffffffffffffffff1673ffffffffffffffffffffffffffffffffffffffff16815260200190815260200160002060000160009054906101000a900473ffffffffffffffffffffffffffffffffffffffff1673ffffffffffffffffffffffffffffffffffffffff16639770b125826040518263ffffffff1660e01b81526004016200192e919062002022565b600060405180830381600087803b1580156200194957600080fd5b505af11580156200195e573d6000803e3d6000fd5b505050505050565b6000600260008373ffffffffffffffffffffffffffffffffffffffff1673ffffffffffffffffffffffffffffffffffffffff16815260200190815260200160002060000160009054906101000a900473ffffffffffffffffffffffffffffffffffffffff1673ffffffffffffffffffffffffffffffffffffffff1663f88cc4a233600460003373ffffffffffffffffffffffffffffffffffffffff1673ffffffffffffffffffffffffffffffffffffffff16815260200190815260200160002060008673ffffffffffffffffffffffffffffffffffffffff1673ffffffffffffffffffffffffffffffffffffffff168152602001908152602001600020546040518363ffffffff1660e01b815260040162001a839291906200233f565b6020604051808303816000875af115801562001aa3573d6000803e3d6000fd5b505050506040513d601f19601f8201168201806040525081019062001ac9919062002581565b90507fb24f6706501e087731866f09ba73332b50d43f9f408403653052ab002c45612a33838360405162001b009392919062002293565b60405180910390a15050565b600160009054906101000a900473ffffffffffffffffffffffffffffffffffffffff1681565b60026020528060005260406000206000915090508060000160009054906101000a900473ffffffffffffffffffffffffffffffffffffffff16908060010160009054906101000a900473ffffffffffffffffffffffffffffffffffffffff16905082565b6060600380548060200260200160405190810160405280929190818152602001828054801562001c1c57602002820191906000526020600020905b8160009054906101000a900473ffffffffffffffffffffffffffffffffffffffff1673ffffffffffffffffffffffffffffffffffffffff168152602001906001019080831162001bd1575b5050505050905090565b6003818154811062001c3757600080fd5b906000526020600020016000915054906101000a900473ffffffffffffffffffffffffffffffffffffffff1681565b600080600260008473ffffffffffffffffffffffffffffffffffffffff1673ffffffffffffffffffffffffffffffffffffffff16815260200190815260200160002060010160009054906101000a900473ffffffffffffffffffffffffffffffffffffffff169050600073ffffffffffffffffffffffffffffffffffffffff168173ffffffffffffffffffffffffffffffffffffffff160362001d35576040517f4ba53a4500000000000000000000000000000000000000000000000000000000815260040160405180910390fd5b60008173ffffffffffffffffffffffffffffffffffffffff1663feaf968c6040518163ffffffff1660e01b815260040160a060405180830381865afa15801562001d83573d6000803e3d6000fd5b505050506040513d601f19601f8201168201806040525081019062001da991906200262b565b5050509150508092505050919050565b6005602052816000526040600020818154811062001dd657600080fd5b906000526020600020016000915091509054906101000a900473ffffffffffffffffffffffffffffffffffffffff1681565b80600160006101000a81548173ffffffffffffffffffffffffffffffffffffffff021916908373ffffffffffffffffffffffffffffffffffffffff16021790555050565b6000805b835181101562001ec45783818151811062001e705762001e6f620024df565b5b602002602001015173ffffffffffffffffffffffffffffffffffffffff168373ffffffffffffffffffffffffffffffffffffffff160362001eb657600091505062001eca565b808060010191505062001e50565b50600190505b92915050565b61167a80620026b483390190565b600080fd5b600073ffffffffffffffffffffffffffffffffffffffff82169050919050565b600062001f108262001ee3565b9050919050565b62001f228162001f03565b811462001f2e57600080fd5b50565b60008135905062001f428162001f17565b92915050565b6000806040838503121562001f625762001f6162001ede565b5b600062001f728582860162001f31565b925050602062001f858582860162001f31565b9150509250929050565b6000819050919050565b62001fa48162001f8f565b811462001fb057600080fd5b50565b60008135905062001fc48162001f99565b92915050565b6000806040838503121562001fe45762001fe362001ede565b5b600062001ff48582860162001f31565b9250506020620020078582860162001fb3565b9150509250929050565b6200201c8162001f8f565b82525050565b600060208201905062002039600083018462002011565b92915050565b60006020828403121562002058576200205762001ede565b5b6000620020688482850162001f31565b91505092915050565b600081519050919050565b600082825260208201905092915050565b6000819050602082019050919050565b620020a88162001f03565b82525050565b6000620020bc83836200209d565b60208301905092915050565b6000602082019050919050565b6000620020e28262002071565b620020ee81856200207c565b9350620020fb836200208d565b8060005b8381101562002132578151620021168882620020ae565b97506200212383620020c8565b925050600181019050620020ff565b5085935050505092915050565b600060208201905081810360008301526200215b8184620020d5565b905092915050565b6200216e8162001f03565b82525050565b60006020820190506200218b600083018462002163565b92915050565b6000819050919050565b6000620021bc620021b6620021b08462001ee3565b62002191565b62001ee3565b9050919050565b6000620021d0826200219b565b9050919050565b6000620021e482620021c3565b9050919050565b620021f681620021d7565b82525050565b6000604082019050620022136000830185620021eb565b62002222602083018462002163565b9392505050565b60006020828403121562002242576200224162001ede565b5b6000620022528482850162001fb3565b91505092915050565b6000819050919050565b62002270816200225b565b82525050565b60006020820190506200228d600083018462002265565b92915050565b6000606082019050620022aa600083018662002163565b620022b9602083018562002163565b620022c8604083018462002011565b949350505050565b60008115159050919050565b620022e781620022d0565b8114620022f357600080fd5b50565b6000815190506200230781620022dc565b92915050565b60006020828403121562002326576200232562001ede565b5b60006200233684828501620022f6565b91505092915050565b600060408201905062002356600083018562002163565b62002365602083018462002011565b9392505050565b7f4e487b7100000000000000000000000000000000000000000000000000000000600052601160045260246000fd5b6000620023a88262001f8f565b9150620023b58362001f8f565b9250828201905080821115620023d057620023cf6200236c565b5b92915050565b600082825260208201905092915050565b7f436f6e76657273696f6e206d757374206265206e6f6e2d6e6567617469766500600082015250565b60006200241f601f83620023d6565b91506200242c82620023e7565b602082019050919050565b60006020820190508181036000830152620024528162002410565b9050919050565b6000620024668262001f8f565b9150620024738362001f8f565b9250828202620024838162001f8f565b915082820484148315176200249d576200249c6200236c565b5b5092915050565b6000620024b18262001f8f565b9150620024be8362001f8f565b9250828203905081811115620024d957620024d86200236c565b5b92915050565b7f4e487b7100000000000000000000000000000000000000000000000000000000600052603260045260246000fd5b7f4e487b7100000000000000000000000000000000000000000000000000000000600052603160045260246000fd5b600060408201905062002554600083018562002163565b62002563602083018462002163565b9392505050565b6000815190506200257b8162001f99565b92915050565b6000602082840312156200259a576200259962001ede565b5b6000620025aa848285016200256a565b91505092915050565b600069ffffffffffffffffffff82169050919050565b620025d481620025b3565b8114620025e057600080fd5b50565b600081519050620025f481620025c9565b92915050565b62002605816200225b565b81146200261157600080fd5b50565b6000815190506200262581620025fa565b92915050565b600080600080600060a086880312156200264a576200264962001ede565b5b60006200265a88828901620025e3565b95505060206200266d8882890162002614565b945050604062002680888289016200256a565b935050606062002693888289016200256a565b9250506080620026a688828901620025e3565b915050929550929590935056fe60806040523480156200001157600080fd5b506040516200167a3803806200167a83398181016040528101906200003791906200016b565b80600260006101000a81548173ffffffffffffffffffffffffffffffffffffffff021916908373ffffffffffffffffffffffffffffffffffffffff160217905550816000806101000a81548173ffffffffffffffffffffffffffffffffffffffff021916908373ffffffffffffffffffffffffffffffffffffffff16021790555033600160006101000a81548173ffffffffffffffffffffffffffffffffffffffff021916908373ffffffffffffffffffffffffffffffffffffffff1602179055505050620001b2565b600080fd5b600073ffffffffffffffffffffffffffffffffffffffff82169050919050565b6000620001338262000106565b9050919050565b620001458162000126565b81146200015157600080fd5b50565b60008151905062000165816200013a565b92915050565b6000806040838503121562000185576200018462000101565b5b6000620001958582860162000154565b9250506020620001a88582860162000154565b9150509250929050565b6114b880620001c26000396000f3fe608060405234801561001057600080fd5b506004361061010b5760003560e01c8063a2b2c32a116100a2578063cd68206011610071578063cd68206014610280578063ed433abc1461029c578063f88cc4a2146102ba578063fc0c546a146102ea578063ffebfc8c146103085761010b565b8063a2b2c32a1461020c578063a6aa57ce1461022a578063c5ebeaec14610246578063cd3293de146102625761010b565b80637f74ac15116100de5780637f74ac151461018457806384a965ed146101a25780639770b125146101c05780639a61c36a146101dc5761010b565b806328593984146101105780632e1a7d4d1461012e5780634bc47c461461014a5780636140dfd014610166575b600080fd5b610118610338565b604051610125919061109c565b60405180910390f35b610148600480360381019061014391906110e8565b61033e565b005b610164600480360381019061015f9190611173565b610524565b005b61016e61064b565b60405161017b919061109c565b60405180910390f35b61018c610651565b60405161019991906111af565b60405180910390f35b6101aa610677565b6040516101b791906111af565b60405180910390f35b6101da60048036038101906101d591906110e8565b61069d565b005b6101f660048036038101906101f19190611173565b61078a565b604051610203919061109c565b60405180910390f35b6102146107a2565b604051610221919061109c565b60405180910390f35b610244600480360381019061023f91906110e8565b6107a8565b005b610260600480360381019061025b91906110e8565b610948565b005b61026a610b15565b604051610277919061109c565b60405180910390f35b61029a600480360381019061029591906110e8565b610b1b565b005b6102a4610c1a565b6040516102b1919061109c565b60405180910390f35b6102d460048036038101906102cf91906111ca565b610c20565b6040516102e1919061109c565b60405180910390f35b6102f2610f96565b6040516102ff9190611269565b60405180910390f35b610322600480360381019061031d9190611173565b610fba565b60405161032f919061109c565b60405180910390f35b60065481565b600160009054906101000a900473ffffffffffffffffffffffffffffffffffffffff1673ffffffffffffffffffffffffffffffffffffffff163373ffffffffffffffffffffffffffffffffffffffff16141580156103ea5750600260009054906101000a900473ffffffffffffffffffffffffffffffffffffffff1673ffffffffffffffffffffffffffffffffffffffff163373ffffffffffffffffffffffffffffffffffffffff1614155b15610421576040517feed3ab2300000000000000000000000000000000000000000000000000000000815260040160405180910390fd5b60008160045461043191906112b3565b1015610469576040517f5a6c8ab300000000000000000000000000000000000000000000000000000000815260040160405180910390fd5b60008054906101000a900473ffffffffffffffffffffffffffffffffffffffff1673ffffffffffffffffffffffffffffffffffffffff1663a9059cbb33836040518363ffffffff1660e01b81526004016104c49291906112e7565b6020604051808303816000875af11580156104e3573d6000803e3d6000fd5b505050506040513d601f19601f820116820180604052508101906105079190611348565b50806004600082825461051a91906112b3565b9250508190555050565b600160009054906101000a900473ffffffffffffffffffffffffffffffffffffffff1673ffffffffffffffffffffffffffffffffffffffff163373ffffffffffffffffffffffffffffffffffffffff16141580156105d05750600260009054906101000a900473ffffffffffffffffffffffffffffffffffffffff1673ffffffffffffffffffffffffffffffffffffffff163373ffffffffffffffffffffffffffffffffffffffff1614155b15610607576040517feed3ab2300000000000000000000000000000000000000000000000000000000815260040160405180910390fd5b80600260006101000a81548173ffffffffffffffffffffffffffffffffffffffff021916908373ffffffffffffffffffffffffffffffffffffffff16021790555050565b60055481565b600160009054906101000a900473ffffffffffffffffffffffffffffffffffffffff1681565b600260009054906101000a900473ffffffffffffffffffffffffffffffffffffffff1681565b600160009054906101000a900473ffffffffffffffffffffffffffffffffffffffff1673ffffffffffffffffffffffffffffffffffffffff163373ffffffffffffffffffffffffffffffffffffffff16141580156107495750600260009054906101000a900473ffffffffffffffffffffffffffffffffffffffff1673ffffffffffffffffffffffffffffffffffffffff163373ffffffffffffffffffffffffffffffffffffffff1614155b15610780576040517feed3ab2300000000000000000000000000000000000000000000000000000000815260040160405180910390fd5b8060058190555050565b60096020528060005260406000206000915090505481565b60035481565b600160009054906101000a900473ffffffffffffffffffffffffffffffffffffffff1673ffffffffffffffffffffffffffffffffffffffff163373ffffffffffffffffffffffffffffffffffffffff16141580156108545750600260009054906101000a900473ffffffffffffffffffffffffffffffffffffffff1673ffffffffffffffffffffffffffffffffffffffff163373ffffffffffffffffffffffffffffffffffffffff1614155b1561088b576040517feed3ab2300000000000000000000000000000000000000000000000000000000815260040160405180910390fd5b60008054906101000a900473ffffffffffffffffffffffffffffffffffffffff1673ffffffffffffffffffffffffffffffffffffffff166323b872dd3330846040518463ffffffff1660e01b81526004016108e893929190611375565b6020604051808303816000875af1158015610907573d6000803e3d6000fd5b505050506040513d601f19601f8201168201806040525081019061092b9190611348565b50806004600082825461093e91906113ac565b9250508190555050565b600160009054906101000a900473ffffffffffffffffffffffffffffffffffffffff1673ffffffffffffffffffffffffffffffffffffffff163373ffffffffffffffffffffffffffffffffffffffff16141580156109f45750600260009054906101000a900473ffffffffffffffffffffffffffffffffffffffff1673ffffffffffffffffffffffffffffffffffffffff163373ffffffffffffffffffffffffffffffffffffffff1614155b15610a2b576040517feed3ab2300000000000000000000000000000000000000000000000000000000815260040160405180910390fd5b600081600454610a3b91906112b3565b1015610a73576040517f810ffca300000000000000000000000000000000000000000000000000000000815260040160405180910390fd5b60008054906101000a900473ffffffffffffffffffffffffffffffffffffffff1673ffffffffffffffffffffffffffffffffffffffff1663a9059cbb33836040518363ffffffff1660e01b8152600401610ace9291906112e7565b6020604051808303816000875af1158015610aed573d6000803e3d6000fd5b505050506040513d601f19601f82011682018060405250810190610b119190611348565b5050565b60045481565b600160009054906101000a900473ffffffffffffffffffffffffffffffffffffffff1673ffffffffffffffffffffffffffffffffffffffff163373ffffffffffffffffffffffffffffffffffffffff1614158015610bc75750600260009054906101000a900473ffffffffffffffffffffffffffffffffffffffff1673ffffffffffffffffffffffffffffffffffffffff163373ffffffffffffffffffffffffffffffffffffffff1614155b15610bfe576040517feed3ab2300000000000000000000000000000000000000000000000000000000815260040160405180910390fd5b8060066000828254610c1091906113ac565b9250508190555050565b60075481565b6000600160009054906101000a900473ffffffffffffffffffffffffffffffffffffffff1673ffffffffffffffffffffffffffffffffffffffff163373ffffffffffffffffffffffffffffffffffffffff1614158015610cce5750600260009054906101000a900473ffffffffffffffffffffffffffffffffffffffff1673ffffffffffffffffffffffffffffffffffffffff163373ffffffffffffffffffffffffffffffffffffffff1614155b15610d05576040517feed3ab2300000000000000000000000000000000000000000000000000000000815260040160405180910390fd5b60001515610d1284610fd2565b151503610d4b576040517f1fa8d33700000000000000000000000000000000000000000000000000000000815260040160405180910390fd5b42600860008573ffffffffffffffffffffffffffffffffffffffff1673ffffffffffffffffffffffffffffffffffffffff168152602001908152602001600020819055506000600960008573ffffffffffffffffffffffffffffffffffffffff1673ffffffffffffffffffffffffffffffffffffffff1681526020019081526020016000205490506000600354606485610de591906113e0565b610def9190611451565b9050600060648283606486610e0491906113e0565b610e0e9190611451565b600654610e1b91906112b3565b610e2591906113e0565b610e2f9190611451565b9050600754600654610e4191906112b3565b811115610e7a576040517f1fa8d33700000000000000000000000000000000000000000000000000000000815260040160405180910390fd5b80600960003373ffffffffffffffffffffffffffffffffffffffff1673ffffffffffffffffffffffffffffffffffffffff1681526020019081526020016000206000828254610ec991906113ac565b925050819055508060076000828254610ee291906113ac565b9250508190555060008054906101000a900473ffffffffffffffffffffffffffffffffffffffff1673ffffffffffffffffffffffffffffffffffffffff1663a9059cbb876006546040518363ffffffff1660e01b8152600401610f469291906112e7565b6020604051808303816000875af1158015610f65573d6000803e3d6000fd5b505050506040513d601f19601f82011682018060405250810190610f899190611348565b5080935050505092915050565b60008054906101000a900473ffffffffffffffffffffffffffffffffffffffff1681565b60086020528060005260406000206000915090505481565b6000600860008373ffffffffffffffffffffffffffffffffffffffff1673ffffffffffffffffffffffffffffffffffffffff1681526020019081526020016000205060004290508062015180600860008673ffffffffffffffffffffffffffffffffffffffff1673ffffffffffffffffffffffffffffffffffffffff1681526020019081526020016000205461106891906113ac565b101561107857600191505061107e565b60009150505b919050565b6000819050919050565b61109681611083565b82525050565b60006020820190506110b1600083018461108d565b92915050565b600080fd5b6110c581611083565b81146110d057600080fd5b50565b6000813590506110e2816110bc565b92915050565b6000602082840312156110fe576110fd6110b7565b5b600061110c848285016110d3565b91505092915050565b600073ffffffffffffffffffffffffffffffffffffffff82169050919050565b600061114082611115565b9050919050565b61115081611135565b811461115b57600080fd5b50565b60008135905061116d81611147565b92915050565b600060208284031215611189576111886110b7565b5b60006111978482850161115e565b91505092915050565b6111a981611135565b82525050565b60006020820190506111c460008301846111a0565b92915050565b600080604083850312156111e1576111e06110b7565b5b60006111ef8582860161115e565b9250506020611200858286016110d3565b9150509250929050565b6000819050919050565b600061122f61122a61122584611115565b61120a565b611115565b9050919050565b600061124182611214565b9050919050565b600061125382611236565b9050919050565b61126381611248565b82525050565b600060208201905061127e600083018461125a565b92915050565b7f4e487b7100000000000000000000000000000000000000000000000000000000600052601160045260246000fd5b60006112be82611083565b91506112c983611083565b92508282039050818111156112e1576112e0611284565b5b92915050565b60006040820190506112fc60008301856111a0565b611309602083018461108d565b9392505050565b60008115159050919050565b61132581611310565b811461133057600080fd5b50565b6000815190506113428161131c565b92915050565b60006020828403121561135e5761135d6110b7565b5b600061136c84828501611333565b91505092915050565b600060608201905061138a60008301866111a0565b61139760208301856111a0565b6113a4604083018461108d565b949350505050565b60006113b782611083565b91506113c283611083565b92508282019050808211156113da576113d9611284565b5b92915050565b60006113eb82611083565b91506113f683611083565b925082820261140481611083565b9150828204841483151761141b5761141a611284565b5b5092915050565b7f4e487b7100000000000000000000000000000000000000000000000000000000600052601260045260246000fd5b600061145c82611083565b915061146783611083565b92508261147757611476611422565b5b82820490509291505056fea264697066735822122082ebf6002b7f3be37256bec078332e3aa712811a22f6761e71d2ad238825372e64736f6c63430008180033a2646970667358221220b5b18b82bff5d41c71763b22d9bbc318042f7f1d2e2e08ce1fdf5d0ae3dc408c64736f6c63430008180033",
  "linkReferences": {},
  "deployedLinkReferences": {}
}