{
  "_format": "hh-sol-artifact-1",
  "contractName": "LendingTracker",
  "sourceName": "contracts/Lending/LendingTracker.sol",
  "abi": [
    {
      "inputs": [],
      "stateMutability": "nonpayable",
      "type": "constructor"
    },
    {
      "inputs": [],
      "name": "lendingTracker_addressNotAllowed",
      "type": "error"
    },
    {
      "inputs": [],
      "name": "lendingTracker_amountTooHigh",
      "type": "error"
    },
    {
      "inputs": [],
      "name": "lendingTracker_poolExists",
      "type": "error"
    },
    {
      "inputs": [],
      "name": "lendingTracker_poolNotAvailable",
      "type": "error"
    },
    {
      "anonymous": false,
      "inputs": [
        {
          "indexed": false,
          "internalType": "address",
          "name": "user",
          "type": "address"
        },
        {
          "indexed": false,
          "internalType": "address",
          "name": "tokenAddress",
          "type": "address"
        },
        {
          "indexed": false,
          "internalType": "uint256",
          "name": "tokenAmount",
          "type": "uint256"
        }
      ],
      "name": "userFarmedYield",
      "type": "event"
    },
    {
      "anonymous": false,
      "inputs": [
        {
          "indexed": true,
          "internalType": "address",
          "name": "user",
          "type": "address"
        },
        {
          "indexed": false,
          "internalType": "address",
          "name": "tokenAddress",
          "type": "address"
        },
        {
          "indexed": false,
          "internalType": "uint256",
          "name": "tokenAmount",
          "type": "uint256"
        }
      ],
      "name": "userLended",
      "type": "event"
    },
    {
      "anonymous": false,
      "inputs": [
        {
          "indexed": true,
          "internalType": "address",
          "name": "user",
          "type": "address"
        },
        {
          "indexed": false,
          "internalType": "address",
          "name": "tokenAddress",
          "type": "address"
        },
        {
          "indexed": false,
          "internalType": "uint256",
          "name": "tokenAmount",
          "type": "uint256"
        }
      ],
      "name": "userWithdrawnLendedTokens",
      "type": "event"
    },
    {
      "inputs": [
        {
          "internalType": "address",
          "name": "newBorrowingContract",
          "type": "address"
        }
      ],
      "name": "addBorrowingContract",
      "outputs": [],
      "stateMutability": "nonpayable",
      "type": "function"
    },
    {
      "inputs": [
        {
          "internalType": "address",
          "name": "tokenAddress",
          "type": "address"
        },
        {
          "internalType": "address",
          "name": "priceAddress",
          "type": "address"
        }
      ],
      "name": "addTokenPool",
      "outputs": [],
      "stateMutability": "nonpayable",
      "type": "function"
    },
    {
      "inputs": [],
      "name": "allAvailableTokens",
      "outputs": [
        {
          "internalType": "address[]",
          "name": "",
          "type": "address[]"
        }
      ],
      "stateMutability": "view",
      "type": "function"
    },
    {
      "inputs": [
        {
          "internalType": "uint256",
          "name": "",
          "type": "uint256"
        }
      ],
      "name": "availableTokens",
      "outputs": [
        {
          "internalType": "address",
          "name": "",
          "type": "address"
        }
      ],
      "stateMutability": "view",
      "type": "function"
    },
    {
      "inputs": [],
      "name": "borrowingContract",
      "outputs": [
        {
          "internalType": "address",
          "name": "",
          "type": "address"
        }
      ],
      "stateMutability": "view",
      "type": "function"
    },
    {
      "inputs": [
        {
          "internalType": "address",
          "name": "tokenAddress",
          "type": "address"
        },
        {
          "internalType": "uint256",
          "name": "newAPY",
          "type": "uint256"
        }
      ],
      "name": "changeBorrowingAPY",
      "outputs": [],
      "stateMutability": "nonpayable",
      "type": "function"
    },
    {
      "inputs": [
        {
          "internalType": "address",
          "name": "tokenAddress",
          "type": "address"
        },
        {
          "internalType": "address",
          "name": "priceAddress",
          "type": "address"
        }
      ],
      "name": "changePriceFeed",
      "outputs": [],
      "stateMutability": "nonpayable",
      "type": "function"
    },
    {
      "inputs": [
        {
          "internalType": "address",
          "name": "user",
          "type": "address"
        }
      ],
      "name": "getLoanedTokens",
      "outputs": [
        {
          "internalType": "address[]",
          "name": "",
          "type": "address[]"
        }
      ],
      "stateMutability": "view",
      "type": "function"
    },
    {
      "inputs": [
        {
          "internalType": "address",
          "name": "_tokenAddress",
          "type": "address"
        }
      ],
      "name": "getTokenPrice",
      "outputs": [
        {
          "internalType": "int256",
          "name": "",
          "type": "int256"
        }
      ],
      "stateMutability": "view",
      "type": "function"
    },
    {
      "inputs": [
        {
          "internalType": "address",
          "name": "tokenAddress",
          "type": "address"
        }
      ],
      "name": "getYield",
      "outputs": [],
      "stateMutability": "nonpayable",
      "type": "function"
    },
    {
      "inputs": [
        {
          "internalType": "address",
          "name": "tokenAddress",
          "type": "address"
        },
        {
          "internalType": "uint256",
          "name": "tokenAmount",
          "type": "uint256"
        }
      ],
      "name": "lendToken",
      "outputs": [],
      "stateMutability": "nonpayable",
      "type": "function"
    },
    {
      "inputs": [
        {
          "internalType": "address",
          "name": "",
          "type": "address"
        }
      ],
      "name": "tokenToPool",
      "outputs": [
        {
          "internalType": "contract Pool",
          "name": "poolAddress",
          "type": "address"
        },
        {
          "internalType": "address",
          "name": "priceAddress",
          "type": "address"
        }
      ],
      "stateMutability": "view",
      "type": "function"
    },
    {
      "inputs": [
        {
          "internalType": "address",
          "name": "",
          "type": "address"
        },
        {
          "internalType": "address",
          "name": "",
          "type": "address"
        }
      ],
      "name": "userLendedAmount",
      "outputs": [
        {
          "internalType": "uint256",
          "name": "",
          "type": "uint256"
        }
      ],
      "stateMutability": "view",
      "type": "function"
    },
    {
      "inputs": [
        {
          "internalType": "address",
          "name": "",
          "type": "address"
        },
        {
          "internalType": "uint256",
          "name": "",
          "type": "uint256"
        }
      ],
      "name": "userLendedTokens",
      "outputs": [
        {
          "internalType": "address",
          "name": "",
          "type": "address"
        }
      ],
      "stateMutability": "view",
      "type": "function"
    },
    {
      "inputs": [
        {
          "internalType": "address",
          "name": "tokenAddress",
          "type": "address"
        },
        {
          "internalType": "uint256",
          "name": "tokenAmount",
          "type": "uint256"
        }
      ],
      "name": "withdrawLendedToken",
      "outputs": [],
      "stateMutability": "nonpayable",
      "type": "function"
    }
  ],
  "bytecode": "0x608060405234801561001057600080fd5b50336000806101000a81548173ffffffffffffffffffffffffffffffffffffffff021916908373ffffffffffffffffffffffffffffffffffffffff160217905550613bbe806100606000396000f3fe60806040523480156200001157600080fd5b50600436106200010c5760003560e01c806364c3397711620000a5578063ad64d068116200006f578063ad64d06814620002b8578063d02641a014620002ee578063e1a777a01462000324578063ff87fe81146200035a576200010c565b806364c33977146200021d57806384a965ed146200023d578063989796b5146200025f578063a0638ddd1462000296576200010c565b80633e1a52b411620000e75780633e1a52b4146200018757806341d1265714620001a757806343b9130314620001dd57806359c9851614620001fd576200010c565b806302201c7014620001115780632547035514620001315780632921f3921462000151575b600080fd5b6200012f600480360381019062000129919062001e42565b6200037a565b005b6200014f600480360381019062000149919062001ec4565b6200054e565b005b6200016f600480360381019062000169919062001e42565b62000abd565b6040516200017e919062001f1c565b60405180910390f35b620001a560048036038101906200019f919062001ec4565b62000ae2565b005b620001c56004803603810190620001bf919062001f39565b6200120f565b604051620001d4919062002039565b60405180910390f35b620001fb6004803603810190620001f5919062001e42565b620012de565b005b6200021b600480360381019062000215919062001ec4565b62001607565b005b6200023b600480360381019062000235919062001f39565b62001762565b005b6200024762001908565b6040516200025691906200206e565b60405180910390f35b6200027d600480360381019062000277919062001f39565b6200192e565b6040516200028d929190620020f6565b60405180910390f35b620002a062001992565b604051620002af919062002039565b60405180910390f35b620002d66004803603810190620002d0919062002123565b62001a22565b604051620002e591906200206e565b60405180910390f35b6200030c600480360381019062000306919062001f39565b62001a62565b6040516200031b919062002170565b60405180910390f35b6200034260048036038101906200033c919062001ec4565b62001bc0565b6040516200035191906200206e565b60405180910390f35b62000378600480360381019062000372919062001f39565b62001c0f565b005b60008054906101000a900473ffffffffffffffffffffffffffffffffffffffff1673ffffffffffffffffffffffffffffffffffffffff163373ffffffffffffffffffffffffffffffffffffffff161462000400576040517f56f37e7800000000000000000000000000000000000000000000000000000000815260040160405180910390fd5b600073ffffffffffffffffffffffffffffffffffffffff16600260008473ffffffffffffffffffffffffffffffffffffffff1673ffffffffffffffffffffffffffffffffffffffff16815260200190815260200160002060000160009054906101000a900473ffffffffffffffffffffffffffffffffffffffff1673ffffffffffffffffffffffffffffffffffffffff1603620004c9576040517f4ba53a4500000000000000000000000000000000000000000000000000000000815260040160405180910390fd5b80600260008473ffffffffffffffffffffffffffffffffffffffff1673ffffffffffffffffffffffffffffffffffffffff16815260200190815260200160002060010160006101000a81548173ffffffffffffffffffffffffffffffffffffffff021916908373ffffffffffffffffffffffffffffffffffffffff1602179055505050565b600073ffffffffffffffffffffffffffffffffffffffff16600260008473ffffffffffffffffffffffffffffffffffffffff1673ffffffffffffffffffffffffffffffffffffffff16815260200190815260200160002060000160009054906101000a900473ffffffffffffffffffffffffffffffffffffffff1673ffffffffffffffffffffffffffffffffffffffff160362000617576040517f4ba53a4500000000000000000000000000000000000000000000000000000000815260040160405180910390fd5b8173ffffffffffffffffffffffffffffffffffffffff166323b872dd3330846040518463ffffffff1660e01b815260040162000656939291906200218d565b6020604051808303816000875af115801562000676573d6000803e3d6000fd5b505050506040513d601f19601f820116820180604052508101906200069c919062002207565b508173ffffffffffffffffffffffffffffffffffffffff1663095ea7b3600260008573ffffffffffffffffffffffffffffffffffffffff1673ffffffffffffffffffffffffffffffffffffffff16815260200190815260200160002060000160009054906101000a900473ffffffffffffffffffffffffffffffffffffffff16836040518363ffffffff1660e01b81526004016200073c92919062002239565b6020604051808303816000875af11580156200075c573d6000803e3d6000fd5b505050506040513d601f19601f8201168201806040525081019062000782919062002207565b506001151562000858600560003373ffffffffffffffffffffffffffffffffffffffff1673ffffffffffffffffffffffffffffffffffffffff1681526020019081526020016000208054806020026020016040519081016040528092919081815260200182805480156200084c57602002820191906000526020600020905b8160009054906101000a900473ffffffffffffffffffffffffffffffffffffffff1673ffffffffffffffffffffffffffffffffffffffff168152602001906001019080831162000801575b50505050508462001c53565b1515036200090157600560003373ffffffffffffffffffffffffffffffffffffffff1673ffffffffffffffffffffffffffffffffffffffff168152602001908152602001600020829080600181540180825580915050600190039060005260206000200160009091909190916101000a81548173ffffffffffffffffffffffffffffffffffffffff021916908373ffffffffffffffffffffffffffffffffffffffff1602179055505b80600460003373ffffffffffffffffffffffffffffffffffffffff1673ffffffffffffffffffffffffffffffffffffffff16815260200190815260200160002060008473ffffffffffffffffffffffffffffffffffffffff1673ffffffffffffffffffffffffffffffffffffffff16815260200190815260200160002060008282546200098f919062002295565b92505081905550600260008373ffffffffffffffffffffffffffffffffffffffff1673ffffffffffffffffffffffffffffffffffffffff16815260200190815260200160002060000160009054906101000a900473ffffffffffffffffffffffffffffffffffffffff1673ffffffffffffffffffffffffffffffffffffffff1663a6aa57ce826040518263ffffffff1660e01b815260040162000a33919062001f1c565b600060405180830381600087803b15801562000a4e57600080fd5b505af115801562000a63573d6000803e3d6000fd5b505050503373ffffffffffffffffffffffffffffffffffffffff167fbae46e7122b75f20fe8069d88135321512a64b320000386d592d5082c26afb64838360405162000ab192919062002239565b60405180910390a25050565b6004602052816000526040600020602052806000526040600020600091509150505481565b600073ffffffffffffffffffffffffffffffffffffffff16600260008473ffffffffffffffffffffffffffffffffffffffff1673ffffffffffffffffffffffffffffffffffffffff16815260200190815260200160002060000160009054906101000a900473ffffffffffffffffffffffffffffffffffffffff1673ffffffffffffffffffffffffffffffffffffffff160362000bab576040517f4ba53a4500000000000000000000000000000000000000000000000000000000815260040160405180910390fd5b80600460003373ffffffffffffffffffffffffffffffffffffffff1673ffffffffffffffffffffffffffffffffffffffff16815260200190815260200160002060008473ffffffffffffffffffffffffffffffffffffffff1673ffffffffffffffffffffffffffffffffffffffff16815260200190815260200160002054101562000c62576040517f6fc3494000000000000000000000000000000000000000000000000000000000815260040160405180910390fd5b80600460003373ffffffffffffffffffffffffffffffffffffffff1673ffffffffffffffffffffffffffffffffffffffff16815260200190815260200160002060008473ffffffffffffffffffffffffffffffffffffffff1673ffffffffffffffffffffffffffffffffffffffff168152602001908152602001600020600082825462000cf09190620022d0565b92505081905550600260008373ffffffffffffffffffffffffffffffffffffffff1673ffffffffffffffffffffffffffffffffffffffff16815260200190815260200160002060000160009054906101000a900473ffffffffffffffffffffffffffffffffffffffff1673ffffffffffffffffffffffffffffffffffffffff16632e1a7d4d826040518263ffffffff1660e01b815260040162000d94919062001f1c565b600060405180830381600087803b15801562000daf57600080fd5b505af115801562000dc4573d6000803e3d6000fd5b505050508173ffffffffffffffffffffffffffffffffffffffff1663a9059cbb33836040518363ffffffff1660e01b815260040162000e0592919062002239565b6020604051808303816000875af115801562000e25573d6000803e3d6000fd5b505050506040513d601f19601f8201168201806040525081019062000e4b919062002207565b506000600460003373ffffffffffffffffffffffffffffffffffffffff1673ffffffffffffffffffffffffffffffffffffffff16815260200190815260200160002060008473ffffffffffffffffffffffffffffffffffffffff1673ffffffffffffffffffffffffffffffffffffffff1681526020019081526020016000205403620011b95760005b600560003373ffffffffffffffffffffffffffffffffffffffff1673ffffffffffffffffffffffffffffffffffffffff16815260200190815260200160002080549050811015620011b7578273ffffffffffffffffffffffffffffffffffffffff16600560003373ffffffffffffffffffffffffffffffffffffffff1673ffffffffffffffffffffffffffffffffffffffff168152602001908152602001600020828154811062000f8a5762000f896200230b565b5b9060005260206000200160009054906101000a900473ffffffffffffffffffffffffffffffffffffffff1673ffffffffffffffffffffffffffffffffffffffff1603620011a957600560003373ffffffffffffffffffffffffffffffffffffffff1673ffffffffffffffffffffffffffffffffffffffff1681526020019081526020016000206001600560003373ffffffffffffffffffffffffffffffffffffffff1673ffffffffffffffffffffffffffffffffffffffff16815260200190815260200160002080549050620010619190620022d0565b815481106200107557620010746200230b565b5b9060005260206000200160009054906101000a900473ffffffffffffffffffffffffffffffffffffffff1673ffffffffffffffffffffffffffffffffffffffff16600560003373ffffffffffffffffffffffffffffffffffffffff1673ffffffffffffffffffffffffffffffffffffffff16815260200190815260200160002082815481106200110a57620011096200230b565b5b9060005260206000200160009054906101000a90505050600560003373ffffffffffffffffffffffffffffffffffffffff1673ffffffffffffffffffffffffffffffffffffffff1681526020019081526020016000208054806200117357620011726200233a565b5b6001900381819060005260206000200160006101000a81549073ffffffffffffffffffffffffffffffffffffffff021916905590555b808060010191505062000ed4565b505b3373ffffffffffffffffffffffffffffffffffffffff167f86c5c7a77e073d103cb6d0edf1f3809dbf9b9dfbf09656d8ecc9515a4782e38583836040516200120392919062002239565b60405180910390a25050565b6060600560008373ffffffffffffffffffffffffffffffffffffffff1673ffffffffffffffffffffffffffffffffffffffff168152602001908152602001600020805480602002602001604051908101604052809291908181526020018280548015620012d257602002820191906000526020600020905b8160009054906101000a900473ffffffffffffffffffffffffffffffffffffffff1673ffffffffffffffffffffffffffffffffffffffff168152602001906001019080831162001287575b50505050509050919050565b60008054906101000a900473ffffffffffffffffffffffffffffffffffffffff1673ffffffffffffffffffffffffffffffffffffffff163373ffffffffffffffffffffffffffffffffffffffff161462001364576040517f56f37e7800000000000000000000000000000000000000000000000000000000815260040160405180910390fd5b600073ffffffffffffffffffffffffffffffffffffffff16600260008473ffffffffffffffffffffffffffffffffffffffff1673ffffffffffffffffffffffffffffffffffffffff16815260200190815260200160002060000160009054906101000a900473ffffffffffffffffffffffffffffffffffffffff1673ffffffffffffffffffffffffffffffffffffffff16146200142d576040517f8324c21500000000000000000000000000000000000000000000000000000000815260040160405180910390fd5b600082600160009054906101000a900473ffffffffffffffffffffffffffffffffffffffff16604051620014619062001dbe565b6200146e92919062002369565b604051809103906000f0801580156200148b573d6000803e3d6000fd5b50905060405180604001604052808273ffffffffffffffffffffffffffffffffffffffff1681526020018373ffffffffffffffffffffffffffffffffffffffff16815250600260008573ffffffffffffffffffffffffffffffffffffffff1673ffffffffffffffffffffffffffffffffffffffff16815260200190815260200160002060008201518160000160006101000a81548173ffffffffffffffffffffffffffffffffffffffff021916908373ffffffffffffffffffffffffffffffffffffffff16021790555060208201518160010160006101000a81548173ffffffffffffffffffffffffffffffffffffffff021916908373ffffffffffffffffffffffffffffffffffffffff1602179055509050506003839080600181540180825580915050600190039060005260206000200160009091909190916101000a81548173ffffffffffffffffffffffffffffffffffffffff021916908373ffffffffffffffffffffffffffffffffffffffff160217905550505050565b60008054906101000a900473ffffffffffffffffffffffffffffffffffffffff1673ffffffffffffffffffffffffffffffffffffffff163373ffffffffffffffffffffffffffffffffffffffff16146200168d576040517f56f37e7800000000000000000000000000000000000000000000000000000000815260040160405180910390fd5b600260008373ffffffffffffffffffffffffffffffffffffffff1673ffffffffffffffffffffffffffffffffffffffff16815260200190815260200160002060000160009054906101000a900473ffffffffffffffffffffffffffffffffffffffff1673ffffffffffffffffffffffffffffffffffffffff16639770b125826040518263ffffffff1660e01b81526004016200172a919062001f1c565b600060405180830381600087803b1580156200174557600080fd5b505af11580156200175a573d6000803e3d6000fd5b505050505050565b6000600260008373ffffffffffffffffffffffffffffffffffffffff1673ffffffffffffffffffffffffffffffffffffffff16815260200190815260200160002060000160009054906101000a900473ffffffffffffffffffffffffffffffffffffffff1673ffffffffffffffffffffffffffffffffffffffff1663f88cc4a233600460003373ffffffffffffffffffffffffffffffffffffffff1673ffffffffffffffffffffffffffffffffffffffff16815260200190815260200160002060008673ffffffffffffffffffffffffffffffffffffffff1673ffffffffffffffffffffffffffffffffffffffff168152602001908152602001600020546040518363ffffffff1660e01b81526004016200187f92919062002239565b6020604051808303816000875af11580156200189f573d6000803e3d6000fd5b505050506040513d601f19601f82011682018060405250810190620018c59190620023ad565b90507fb24f6706501e087731866f09ba73332b50d43f9f408403653052ab002c45612a338383604051620018fc939291906200218d565b60405180910390a15050565b600160009054906101000a900473ffffffffffffffffffffffffffffffffffffffff1681565b60026020528060005260406000206000915090508060000160009054906101000a900473ffffffffffffffffffffffffffffffffffffffff16908060010160009054906101000a900473ffffffffffffffffffffffffffffffffffffffff16905082565b6060600380548060200260200160405190810160405280929190818152602001828054801562001a1857602002820191906000526020600020905b8160009054906101000a900473ffffffffffffffffffffffffffffffffffffffff1673ffffffffffffffffffffffffffffffffffffffff1681526020019060010190808311620019cd575b5050505050905090565b6003818154811062001a3357600080fd5b906000526020600020016000915054906101000a900473ffffffffffffffffffffffffffffffffffffffff1681565b600080600260008473ffffffffffffffffffffffffffffffffffffffff1673ffffffffffffffffffffffffffffffffffffffff16815260200190815260200160002060010160009054906101000a900473ffffffffffffffffffffffffffffffffffffffff16905062001ad58162001cd6565b600073ffffffffffffffffffffffffffffffffffffffff168173ffffffffffffffffffffffffffffffffffffffff160362001b3c576040517f4ba53a4500000000000000000000000000000000000000000000000000000000815260040160405180910390fd5b60008173ffffffffffffffffffffffffffffffffffffffff1663feaf968c6040518163ffffffff1660e01b815260040160a060405180830381865afa15801562001b8a573d6000803e3d6000fd5b505050506040513d601f19601f8201168201806040525081019062001bb0919062002457565b5050509150508092505050919050565b6005602052816000526040600020818154811062001bdd57600080fd5b906000526020600020016000915091509054906101000a900473ffffffffffffffffffffffffffffffffffffffff1681565b80600160006101000a81548173ffffffffffffffffffffffffffffffffffffffff021916908373ffffffffffffffffffffffffffffffffffffffff16021790555050565b6000806001905060005b845181101562001ccb5784818151811062001c7d5762001c7c6200230b565b5b602002602001015173ffffffffffffffffffffffffffffffffffffffff168473ffffffffffffffffffffffffffffffffffffffff160362001cbd57600091505b808060010191505062001c5d565b508091505092915050565b62001d708160405160240162001ced91906200206e565b6040516020818303038152906040527f2c2ecbc2000000000000000000000000000000000000000000000000000000007bffffffffffffffffffffffffffffffffffffffffffffffffffffffff19166020820180517bffffffffffffffffffffffffffffffffffffffffffffffffffffffff838183161783525050505062001d73565b50565b62001d8e8162001d8662001d9162001db2565b63ffffffff16565b50565b60006a636f6e736f6c652e6c6f679050600080835160208501845afa505050565b62001dcc819050919050565b61167a806200250f83390190565b62001dd6620024df565b565b600080fd5b600073ffffffffffffffffffffffffffffffffffffffff82169050919050565b600062001e0a8262001ddd565b9050919050565b62001e1c8162001dfd565b811462001e2857600080fd5b50565b60008135905062001e3c8162001e11565b92915050565b6000806040838503121562001e5c5762001e5b62001dd8565b5b600062001e6c8582860162001e2b565b925050602062001e7f8582860162001e2b565b9150509250929050565b6000819050919050565b62001e9e8162001e89565b811462001eaa57600080fd5b50565b60008135905062001ebe8162001e93565b92915050565b6000806040838503121562001ede5762001edd62001dd8565b5b600062001eee8582860162001e2b565b925050602062001f018582860162001ead565b9150509250929050565b62001f168162001e89565b82525050565b600060208201905062001f33600083018462001f0b565b92915050565b60006020828403121562001f525762001f5162001dd8565b5b600062001f628482850162001e2b565b91505092915050565b600081519050919050565b600082825260208201905092915050565b6000819050602082019050919050565b62001fa28162001dfd565b82525050565b600062001fb6838362001f97565b60208301905092915050565b6000602082019050919050565b600062001fdc8262001f6b565b62001fe8818562001f76565b935062001ff58362001f87565b8060005b838110156200202c57815162002010888262001fa8565b97506200201d8362001fc2565b92505060018101905062001ff9565b5085935050505092915050565b6000602082019050818103600083015262002055818462001fcf565b905092915050565b620020688162001dfd565b82525050565b60006020820190506200208560008301846200205d565b92915050565b6000819050919050565b6000620020b6620020b0620020aa8462001ddd565b6200208b565b62001ddd565b9050919050565b6000620020ca8262002095565b9050919050565b6000620020de82620020bd565b9050919050565b620020f081620020d1565b82525050565b60006040820190506200210d6000830185620020e5565b6200211c60208301846200205d565b9392505050565b6000602082840312156200213c576200213b62001dd8565b5b60006200214c8482850162001ead565b91505092915050565b6000819050919050565b6200216a8162002155565b82525050565b60006020820190506200218760008301846200215f565b92915050565b6000606082019050620021a460008301866200205d565b620021b360208301856200205d565b620021c2604083018462001f0b565b949350505050565b60008115159050919050565b620021e181620021ca565b8114620021ed57600080fd5b50565b6000815190506200220181620021d6565b92915050565b60006020828403121562002220576200221f62001dd8565b5b60006200223084828501620021f0565b91505092915050565b60006040820190506200225060008301856200205d565b6200225f602083018462001f0b565b9392505050565b7f4e487b7100000000000000000000000000000000000000000000000000000000600052601160045260246000fd5b6000620022a28262001e89565b9150620022af8362001e89565b9250828201905080821115620022ca57620022c962002266565b5b92915050565b6000620022dd8262001e89565b9150620022ea8362001e89565b925082820390508181111562002305576200230462002266565b5b92915050565b7f4e487b7100000000000000000000000000000000000000000000000000000000600052603260045260246000fd5b7f4e487b7100000000000000000000000000000000000000000000000000000000600052603160045260246000fd5b60006040820190506200238060008301856200205d565b6200238f60208301846200205d565b9392505050565b600081519050620023a78162001e93565b92915050565b600060208284031215620023c657620023c562001dd8565b5b6000620023d68482850162002396565b91505092915050565b600069ffffffffffffffffffff82169050919050565b6200240081620023df565b81146200240c57600080fd5b50565b6000815190506200242081620023f5565b92915050565b620024318162002155565b81146200243d57600080fd5b50565b600081519050620024518162002426565b92915050565b600080600080600060a0868803121562002476576200247562001dd8565b5b600062002486888289016200240f565b9550506020620024998882890162002440565b9450506040620024ac8882890162002396565b9350506060620024bf8882890162002396565b9250506080620024d2888289016200240f565b9150509295509295909350565b7f4e487b7100000000000000000000000000000000000000000000000000000000600052605160045260246000fdfe60806040523480156200001157600080fd5b506040516200167a3803806200167a83398181016040528101906200003791906200016b565b80600260006101000a81548173ffffffffffffffffffffffffffffffffffffffff021916908373ffffffffffffffffffffffffffffffffffffffff160217905550816000806101000a81548173ffffffffffffffffffffffffffffffffffffffff021916908373ffffffffffffffffffffffffffffffffffffffff16021790555033600160006101000a81548173ffffffffffffffffffffffffffffffffffffffff021916908373ffffffffffffffffffffffffffffffffffffffff1602179055505050620001b2565b600080fd5b600073ffffffffffffffffffffffffffffffffffffffff82169050919050565b6000620001338262000106565b9050919050565b620001458162000126565b81146200015157600080fd5b50565b60008151905062000165816200013a565b92915050565b6000806040838503121562000185576200018462000101565b5b6000620001958582860162000154565b9250506020620001a88582860162000154565b9150509250929050565b6114b880620001c26000396000f3fe608060405234801561001057600080fd5b506004361061010b5760003560e01c8063a2b2c32a116100a2578063cd68206011610071578063cd68206014610280578063ed433abc1461029c578063f88cc4a2146102ba578063fc0c546a146102ea578063ffebfc8c146103085761010b565b8063a2b2c32a1461020c578063a6aa57ce1461022a578063c5ebeaec14610246578063cd3293de146102625761010b565b80637f74ac15116100de5780637f74ac151461018457806384a965ed146101a25780639770b125146101c05780639a61c36a146101dc5761010b565b806328593984146101105780632e1a7d4d1461012e5780634bc47c461461014a5780636140dfd014610166575b600080fd5b610118610338565b604051610125919061109c565b60405180910390f35b610148600480360381019061014391906110e8565b61033e565b005b610164600480360381019061015f9190611173565b610524565b005b61016e61064b565b60405161017b919061109c565b60405180910390f35b61018c610651565b60405161019991906111af565b60405180910390f35b6101aa610677565b6040516101b791906111af565b60405180910390f35b6101da60048036038101906101d591906110e8565b61069d565b005b6101f660048036038101906101f19190611173565b61078a565b604051610203919061109c565b60405180910390f35b6102146107a2565b604051610221919061109c565b60405180910390f35b610244600480360381019061023f91906110e8565b6107a8565b005b610260600480360381019061025b91906110e8565b610948565b005b61026a610b15565b604051610277919061109c565b60405180910390f35b61029a600480360381019061029591906110e8565b610b1b565b005b6102a4610c1a565b6040516102b1919061109c565b60405180910390f35b6102d460048036038101906102cf91906111ca565b610c20565b6040516102e1919061109c565b60405180910390f35b6102f2610f96565b6040516102ff9190611269565b60405180910390f35b610322600480360381019061031d9190611173565b610fba565b60405161032f919061109c565b60405180910390f35b60065481565b600160009054906101000a900473ffffffffffffffffffffffffffffffffffffffff1673ffffffffffffffffffffffffffffffffffffffff163373ffffffffffffffffffffffffffffffffffffffff16141580156103ea5750600260009054906101000a900473ffffffffffffffffffffffffffffffffffffffff1673ffffffffffffffffffffffffffffffffffffffff163373ffffffffffffffffffffffffffffffffffffffff1614155b15610421576040517feed3ab2300000000000000000000000000000000000000000000000000000000815260040160405180910390fd5b60008160045461043191906112b3565b1015610469576040517f5a6c8ab300000000000000000000000000000000000000000000000000000000815260040160405180910390fd5b60008054906101000a900473ffffffffffffffffffffffffffffffffffffffff1673ffffffffffffffffffffffffffffffffffffffff1663a9059cbb33836040518363ffffffff1660e01b81526004016104c49291906112e7565b6020604051808303816000875af11580156104e3573d6000803e3d6000fd5b505050506040513d601f19601f820116820180604052508101906105079190611348565b50806004600082825461051a91906112b3565b9250508190555050565b600160009054906101000a900473ffffffffffffffffffffffffffffffffffffffff1673ffffffffffffffffffffffffffffffffffffffff163373ffffffffffffffffffffffffffffffffffffffff16141580156105d05750600260009054906101000a900473ffffffffffffffffffffffffffffffffffffffff1673ffffffffffffffffffffffffffffffffffffffff163373ffffffffffffffffffffffffffffffffffffffff1614155b15610607576040517feed3ab2300000000000000000000000000000000000000000000000000000000815260040160405180910390fd5b80600260006101000a81548173ffffffffffffffffffffffffffffffffffffffff021916908373ffffffffffffffffffffffffffffffffffffffff16021790555050565b60055481565b600160009054906101000a900473ffffffffffffffffffffffffffffffffffffffff1681565b600260009054906101000a900473ffffffffffffffffffffffffffffffffffffffff1681565b600160009054906101000a900473ffffffffffffffffffffffffffffffffffffffff1673ffffffffffffffffffffffffffffffffffffffff163373ffffffffffffffffffffffffffffffffffffffff16141580156107495750600260009054906101000a900473ffffffffffffffffffffffffffffffffffffffff1673ffffffffffffffffffffffffffffffffffffffff163373ffffffffffffffffffffffffffffffffffffffff1614155b15610780576040517feed3ab2300000000000000000000000000000000000000000000000000000000815260040160405180910390fd5b8060058190555050565b60096020528060005260406000206000915090505481565b60035481565b600160009054906101000a900473ffffffffffffffffffffffffffffffffffffffff1673ffffffffffffffffffffffffffffffffffffffff163373ffffffffffffffffffffffffffffffffffffffff16141580156108545750600260009054906101000a900473ffffffffffffffffffffffffffffffffffffffff1673ffffffffffffffffffffffffffffffffffffffff163373ffffffffffffffffffffffffffffffffffffffff1614155b1561088b576040517feed3ab2300000000000000000000000000000000000000000000000000000000815260040160405180910390fd5b60008054906101000a900473ffffffffffffffffffffffffffffffffffffffff1673ffffffffffffffffffffffffffffffffffffffff166323b872dd3330846040518463ffffffff1660e01b81526004016108e893929190611375565b6020604051808303816000875af1158015610907573d6000803e3d6000fd5b505050506040513d601f19601f8201168201806040525081019061092b9190611348565b50806004600082825461093e91906113ac565b9250508190555050565b600160009054906101000a900473ffffffffffffffffffffffffffffffffffffffff1673ffffffffffffffffffffffffffffffffffffffff163373ffffffffffffffffffffffffffffffffffffffff16141580156109f45750600260009054906101000a900473ffffffffffffffffffffffffffffffffffffffff1673ffffffffffffffffffffffffffffffffffffffff163373ffffffffffffffffffffffffffffffffffffffff1614155b15610a2b576040517feed3ab2300000000000000000000000000000000000000000000000000000000815260040160405180910390fd5b600081600454610a3b91906112b3565b1015610a73576040517f810ffca300000000000000000000000000000000000000000000000000000000815260040160405180910390fd5b60008054906101000a900473ffffffffffffffffffffffffffffffffffffffff1673ffffffffffffffffffffffffffffffffffffffff1663a9059cbb33836040518363ffffffff1660e01b8152600401610ace9291906112e7565b6020604051808303816000875af1158015610aed573d6000803e3d6000fd5b505050506040513d601f19601f82011682018060405250810190610b119190611348565b5050565b60045481565b600160009054906101000a900473ffffffffffffffffffffffffffffffffffffffff1673ffffffffffffffffffffffffffffffffffffffff163373ffffffffffffffffffffffffffffffffffffffff1614158015610bc75750600260009054906101000a900473ffffffffffffffffffffffffffffffffffffffff1673ffffffffffffffffffffffffffffffffffffffff163373ffffffffffffffffffffffffffffffffffffffff1614155b15610bfe576040517feed3ab2300000000000000000000000000000000000000000000000000000000815260040160405180910390fd5b8060066000828254610c1091906113ac565b9250508190555050565b60075481565b6000600160009054906101000a900473ffffffffffffffffffffffffffffffffffffffff1673ffffffffffffffffffffffffffffffffffffffff163373ffffffffffffffffffffffffffffffffffffffff1614158015610cce5750600260009054906101000a900473ffffffffffffffffffffffffffffffffffffffff1673ffffffffffffffffffffffffffffffffffffffff163373ffffffffffffffffffffffffffffffffffffffff1614155b15610d05576040517feed3ab2300000000000000000000000000000000000000000000000000000000815260040160405180910390fd5b60001515610d1284610fd2565b151503610d4b576040517f1fa8d33700000000000000000000000000000000000000000000000000000000815260040160405180910390fd5b42600860008573ffffffffffffffffffffffffffffffffffffffff1673ffffffffffffffffffffffffffffffffffffffff168152602001908152602001600020819055506000600960008573ffffffffffffffffffffffffffffffffffffffff1673ffffffffffffffffffffffffffffffffffffffff1681526020019081526020016000205490506000600354606485610de591906113e0565b610def9190611451565b9050600060648283606486610e0491906113e0565b610e0e9190611451565b600654610e1b91906112b3565b610e2591906113e0565b610e2f9190611451565b9050600754600654610e4191906112b3565b811115610e7a576040517f1fa8d33700000000000000000000000000000000000000000000000000000000815260040160405180910390fd5b80600960003373ffffffffffffffffffffffffffffffffffffffff1673ffffffffffffffffffffffffffffffffffffffff1681526020019081526020016000206000828254610ec991906113ac565b925050819055508060076000828254610ee291906113ac565b9250508190555060008054906101000a900473ffffffffffffffffffffffffffffffffffffffff1673ffffffffffffffffffffffffffffffffffffffff1663a9059cbb876006546040518363ffffffff1660e01b8152600401610f469291906112e7565b6020604051808303816000875af1158015610f65573d6000803e3d6000fd5b505050506040513d601f19601f82011682018060405250810190610f899190611348565b5080935050505092915050565b60008054906101000a900473ffffffffffffffffffffffffffffffffffffffff1681565b60086020528060005260406000206000915090505481565b6000600860008373ffffffffffffffffffffffffffffffffffffffff1673ffffffffffffffffffffffffffffffffffffffff1681526020019081526020016000205060004290508062015180600860008673ffffffffffffffffffffffffffffffffffffffff1673ffffffffffffffffffffffffffffffffffffffff1681526020019081526020016000205461106891906113ac565b101561107857600191505061107e565b60009150505b919050565b6000819050919050565b61109681611083565b82525050565b60006020820190506110b1600083018461108d565b92915050565b600080fd5b6110c581611083565b81146110d057600080fd5b50565b6000813590506110e2816110bc565b92915050565b6000602082840312156110fe576110fd6110b7565b5b600061110c848285016110d3565b91505092915050565b600073ffffffffffffffffffffffffffffffffffffffff82169050919050565b600061114082611115565b9050919050565b61115081611135565b811461115b57600080fd5b50565b60008135905061116d81611147565b92915050565b600060208284031215611189576111886110b7565b5b60006111978482850161115e565b91505092915050565b6111a981611135565b82525050565b60006020820190506111c460008301846111a0565b92915050565b600080604083850312156111e1576111e06110b7565b5b60006111ef8582860161115e565b9250506020611200858286016110d3565b9150509250929050565b6000819050919050565b600061122f61122a61122584611115565b61120a565b611115565b9050919050565b600061124182611214565b9050919050565b600061125382611236565b9050919050565b61126381611248565b82525050565b600060208201905061127e600083018461125a565b92915050565b7f4e487b7100000000000000000000000000000000000000000000000000000000600052601160045260246000fd5b60006112be82611083565b91506112c983611083565b92508282039050818111156112e1576112e0611284565b5b92915050565b60006040820190506112fc60008301856111a0565b611309602083018461108d565b9392505050565b60008115159050919050565b61132581611310565b811461133057600080fd5b50565b6000815190506113428161131c565b92915050565b60006020828403121561135e5761135d6110b7565b5b600061136c84828501611333565b91505092915050565b600060608201905061138a60008301866111a0565b61139760208301856111a0565b6113a4604083018461108d565b949350505050565b60006113b782611083565b91506113c283611083565b92508282019050808211156113da576113d9611284565b5b92915050565b60006113eb82611083565b91506113f683611083565b925082820261140481611083565b9150828204841483151761141b5761141a611284565b5b5092915050565b7f4e487b7100000000000000000000000000000000000000000000000000000000600052601260045260246000fd5b600061145c82611083565b915061146783611083565b92508261147757611476611422565b5b82820490509291505056fea264697066735822122082ebf6002b7f3be37256bec078332e3aa712811a22f6761e71d2ad238825372e64736f6c63430008180033a26469706673582212202c1c1b5f96c8e6b19980a2468a131df2122b7c405513d0b0e9840093d5ee534464736f6c63430008180033",
  "linkReferences": {},
  "deployedLinkReferences": {}
}