{
  "_format": "hh-sol-artifact-1",
  "contractName": "PoolTracker",
  "sourceName": "contracts/Dex/PoolTracker.sol",
  "abi": [
    {
      "inputs": [
        {
          "internalType": "address",
          "name": "_yieldCalculator",
          "type": "address"
        }
      ],
      "stateMutability": "nonpayable",
      "type": "constructor"
    },
    {
      "inputs": [],
      "name": "PoolTracker_pairAlreadyExists",
      "type": "error"
    },
    {
      "anonymous": false,
      "inputs": [
        {
          "indexed": false,
          "internalType": "contract LiquidityPool",
          "name": "pool",
          "type": "address"
        },
        {
          "indexed": false,
          "internalType": "address",
          "name": "assetOne",
          "type": "address"
        },
        {
          "indexed": false,
          "internalType": "address",
          "name": "assetTwo",
          "type": "address"
        }
      ],
      "name": "poolCreated",
      "type": "event"
    },
    {
      "inputs": [
        {
          "internalType": "address",
          "name": "tokenAddress",
          "type": "address"
        },
        {
          "internalType": "address",
          "name": "priceFeed",
          "type": "address"
        }
      ],
      "name": "addRoutingAddress",
      "outputs": [],
      "stateMutability": "nonpayable",
      "type": "function"
    },
    {
      "inputs": [
        {
          "internalType": "address",
          "name": "_assetOneAddress",
          "type": "address"
        },
        {
          "internalType": "address",
          "name": "_assetTwoAddress",
          "type": "address"
        },
        {
          "internalType": "uint256",
          "name": "amountOne",
          "type": "uint256"
        },
        {
          "internalType": "uint256",
          "name": "amountTwo",
          "type": "uint256"
        }
      ],
      "name": "createPool",
      "outputs": [],
      "stateMutability": "nonpayable",
      "type": "function"
    },
    {
      "inputs": [],
      "name": "destinationChain",
      "outputs": [
        {
          "internalType": "uint16",
          "name": "",
          "type": "uint16"
        }
      ],
      "stateMutability": "view",
      "type": "function"
    },
    {
      "inputs": [
        {
          "internalType": "address",
          "name": "token1",
          "type": "address"
        },
        {
          "internalType": "address",
          "name": "token2",
          "type": "address"
        }
      ],
      "name": "exists",
      "outputs": [
        {
          "internalType": "bool",
          "name": "",
          "type": "bool"
        }
      ],
      "stateMutability": "view",
      "type": "function"
    },
    {
      "inputs": [],
      "name": "getAllPoolWithAssets",
      "outputs": [
        {
          "components": [
            {
              "internalType": "address",
              "name": "pool",
              "type": "address"
            },
            {
              "internalType": "address payable",
              "name": "assetOneAddress",
              "type": "address"
            },
            {
              "internalType": "address payable",
              "name": "assetTwoAddress",
              "type": "address"
            }
          ],
          "internalType": "struct PoolTracker.poolWithTokens[]",
          "name": "",
          "type": "tuple[]"
        }
      ],
      "stateMutability": "view",
      "type": "function"
    },
    {
      "inputs": [
        {
          "internalType": "address",
          "name": "tokenAddress",
          "type": "address"
        }
      ],
      "name": "getPoolPairs",
      "outputs": [
        {
          "internalType": "address[]",
          "name": "",
          "type": "address[]"
        }
      ],
      "stateMutability": "view",
      "type": "function"
    },
    {
      "inputs": [
        {
          "internalType": "address",
          "name": "tokenAddress",
          "type": "address"
        }
      ],
      "name": "getPoolPairsLength",
      "outputs": [
        {
          "internalType": "uint256",
          "name": "",
          "type": "uint256"
        }
      ],
      "stateMutability": "view",
      "type": "function"
    },
    {
      "inputs": [],
      "name": "getPools",
      "outputs": [
        {
          "internalType": "address[]",
          "name": "",
          "type": "address[]"
        }
      ],
      "stateMutability": "view",
      "type": "function"
    },
    {
      "inputs": [],
      "name": "getRoutingAddressesLength",
      "outputs": [
        {
          "internalType": "uint256",
          "name": "",
          "type": "uint256"
        }
      ],
      "stateMutability": "view",
      "type": "function"
    },
    {
      "inputs": [
        {
          "internalType": "address",
          "name": "",
          "type": "address"
        },
        {
          "internalType": "address",
          "name": "",
          "type": "address"
        }
      ],
      "name": "pairToPool",
      "outputs": [
        {
          "internalType": "contract LiquidityPool",
          "name": "",
          "type": "address"
        }
      ],
      "stateMutability": "view",
      "type": "function"
    },
    {
      "inputs": [
        {
          "internalType": "address",
          "name": "",
          "type": "address"
        },
        {
          "internalType": "uint256",
          "name": "",
          "type": "uint256"
        }
      ],
      "name": "poolPairs",
      "outputs": [
        {
          "internalType": "address",
          "name": "",
          "type": "address"
        }
      ],
      "stateMutability": "view",
      "type": "function"
    },
    {
      "inputs": [
        {
          "internalType": "uint256",
          "name": "",
          "type": "uint256"
        }
      ],
      "name": "pools",
      "outputs": [
        {
          "internalType": "address",
          "name": "",
          "type": "address"
        }
      ],
      "stateMutability": "view",
      "type": "function"
    },
    {
      "inputs": [
        {
          "internalType": "uint256",
          "name": "",
          "type": "uint256"
        }
      ],
      "name": "routingAddresses",
      "outputs": [
        {
          "internalType": "address",
          "name": "tokenAddress",
          "type": "address"
        },
        {
          "internalType": "address",
          "name": "priceFeed",
          "type": "address"
        }
      ],
      "stateMutability": "view",
      "type": "function"
    },
    {
      "inputs": [],
      "name": "tokenList",
      "outputs": [
        {
          "internalType": "address[]",
          "name": "",
          "type": "address[]"
        }
      ],
      "stateMutability": "view",
      "type": "function"
    },
    {
      "inputs": [
        {
          "internalType": "uint256",
          "name": "",
          "type": "uint256"
        }
      ],
      "name": "tokens",
      "outputs": [
        {
          "internalType": "address",
          "name": "",
          "type": "address"
        }
      ],
      "stateMutability": "view",
      "type": "function"
    },
    {
      "inputs": [],
      "name": "withdrawEther",
      "outputs": [],
      "stateMutability": "nonpayable",
      "type": "function"
    },
    {
      "inputs": [],
      "name": "yieldCalculator",
      "outputs": [
        {
          "internalType": "address",
          "name": "",
          "type": "address"
        }
      ],
      "stateMutability": "view",
      "type": "function"
    },
    {
      "inputs": [],
      "name": "zkBridge",
      "outputs": [
        {
          "internalType": "contract IZKBridge",
          "name": "",
          "type": "address"
        }
      ],
      "stateMutability": "view",
      "type": "function"
    }
  ],
  "bytecode": "0x60806040526017600060156101000a81548161ffff021916908361ffff16021790555073b20f0105f3598652a3be569132f7b3f341106ddc600160006101000a81548173ffffffffffffffffffffffffffffffffffffffff021916908373ffffffffffffffffffffffffffffffffffffffff1602179055503480156200008457600080fd5b50604051620055af380380620055af8339818101604052810190620000aa91906200019c565b336000806101000a81548173ffffffffffffffffffffffffffffffffffffffff021916908373ffffffffffffffffffffffffffffffffffffffff16021790555080600260006101000a81548173ffffffffffffffffffffffffffffffffffffffff021916908373ffffffffffffffffffffffffffffffffffffffff16021790555050620001ce565b600080fd5b600073ffffffffffffffffffffffffffffffffffffffff82169050919050565b6000620001648262000137565b9050919050565b620001768162000157565b81146200018257600080fd5b50565b60008151905062000196816200016b565b92915050565b600060208284031215620001b557620001b462000132565b5b6000620001c58482850162000185565b91505092915050565b6153d180620001de6000396000f3fe60806040523480156200001157600080fd5b5060043610620001305760003560e01c80638c75d89d11620000b1578063ac4afa38116200007b578063ac4afa38146200034e578063b42446591462000384578063c4b58a6d14620003a6578063f5ff506114620003c8578063fd1337a614620003fe5762000130565b80638c75d89d146200029d578063930186f214620002d357806394123060146200030a5780639e2c58ca146200032c5762000130565b80636fbe6fea11620000ff5780636fbe6fea14620001e55780637362377b14620002055780637663f8221462000211578063884db06314620002475780638b273a6814620002675762000130565b80631b9db73f14620001355780634f64b2be146200016b578063620e3a6414620001a1578063673a2a1f14620001c3575b600080fd5b6200015360048036038101906200014d9190620019fc565b62000420565b60405162000162919062001afc565b60405180910390f35b62000189600480360381019062000183919062001b5b565b620004ef565b60405162000198919062001b9e565b60405180910390f35b620001ab6200052f565b604051620001ba919062001b9e565b60405180910390f35b620001cd62000555565b604051620001dc919062001afc565b60405180910390f35b620002036004803603810190620001fd919062001bbb565b620005e5565b005b6200020f62000a04565b005b6200022f600480360381019062000229919062001bbb565b62000b13565b6040516200023e919062001c1f565b60405180910390f35b6200026560048036038101906200025f919062001c3c565b62000c34565b005b6200028560048036038101906200027f919062001bbb565b62001417565b60405162000294919062001d19565b60405180910390f35b620002bb6004803603810190620002b5919062001d36565b62001459565b604051620002ca919062001b9e565b60405180910390f35b620002f16004803603810190620002eb919062001b5b565b620014a8565b6040516200030192919062001d7d565b60405180910390f35b620003146200151d565b60405162000323919062001dbb565b60405180910390f35b620003366200152a565b60405162000345919062001afc565b60405180910390f35b6200036c600480360381019062000366919062001b5b565b620015ba565b6040516200037b919062001b9e565b60405180910390f35b6200038e620015fa565b6040516200039d919062001e11565b60405180910390f35b620003b062001620565b604051620003bf919062001f58565b60405180910390f35b620003e66004803603810190620003e09190620019fc565b62001879565b604051620003f5919062001dbb565b60405180910390f35b62000408620018c5565b60405162000417919062001f9b565b60405180910390f35b6060600360008373ffffffffffffffffffffffffffffffffffffffff1673ffffffffffffffffffffffffffffffffffffffff168152602001908152602001600020805480602002602001604051908101604052809291908181526020018280548015620004e357602002820191906000526020600020905b8160009054906101000a900473ffffffffffffffffffffffffffffffffffffffff1673ffffffffffffffffffffffffffffffffffffffff168152602001906001019080831162000498575b50505050509050919050565b600581815481106200050057600080fd5b906000526020600020016000915054906101000a900473ffffffffffffffffffffffffffffffffffffffff1681565b600260009054906101000a900473ffffffffffffffffffffffffffffffffffffffff1681565b60606006805480602002602001604051908101604052809291908181526020018280548015620005db57602002820191906000526020600020905b8160009054906101000a900473ffffffffffffffffffffffffffffffffffffffff1673ffffffffffffffffffffffffffffffffffffffff168152602001906001019080831162000590575b5050505050905090565b60008054906101000a900473ffffffffffffffffffffffffffffffffffffffff1673ffffffffffffffffffffffffffffffffffffffff163373ffffffffffffffffffffffffffffffffffffffff16146200063e57600080fd5b6000600780549050036200074e57600760405180604001604052808473ffffffffffffffffffffffffffffffffffffffff1681526020018373ffffffffffffffffffffffffffffffffffffffff16815250908060018154018082558091505060019003906000526020600020906002020160009091909190915060008201518160000160006101000a81548173ffffffffffffffffffffffffffffffffffffffff021916908373ffffffffffffffffffffffffffffffffffffffff16021790555060208201518160010160006101000a81548173ffffffffffffffffffffffffffffffffffffffff021916908373ffffffffffffffffffffffffffffffffffffffff160217905550505062000a00565b60005b600780549050811015620009fe578273ffffffffffffffffffffffffffffffffffffffff16600782815481106200078d576200078c62001fb8565b5b906000526020600020906002020160000160009054906101000a900473ffffffffffffffffffffffffffffffffffffffff1673ffffffffffffffffffffffffffffffffffffffff1603620008d85760405180604001604052808473ffffffffffffffffffffffffffffffffffffffff1681526020018373ffffffffffffffffffffffffffffffffffffffff168152506007828154811062000833576200083262001fb8565b5b906000526020600020906002020160008201518160000160006101000a81548173ffffffffffffffffffffffffffffffffffffffff021916908373ffffffffffffffffffffffffffffffffffffffff16021790555060208201518160010160006101000a81548173ffffffffffffffffffffffffffffffffffffffff021916908373ffffffffffffffffffffffffffffffffffffffff160217905550905050620009fe565b6001600780549050620008ec919062002016565b8103620009f057600760405180604001604052808573ffffffffffffffffffffffffffffffffffffffff1681526020018473ffffffffffffffffffffffffffffffffffffffff16815250908060018154018082558091505060019003906000526020600020906002020160009091909190915060008201518160000160006101000a81548173ffffffffffffffffffffffffffffffffffffffff021916908373ffffffffffffffffffffffffffffffffffffffff16021790555060208201518160010160006101000a81548173ffffffffffffffffffffffffffffffffffffffff021916908373ffffffffffffffffffffffffffffffffffffffff16021790555050505b808060010191505062000751565b505b5050565b60008054906101000a900473ffffffffffffffffffffffffffffffffffffffff1673ffffffffffffffffffffffffffffffffffffffff163373ffffffffffffffffffffffffffffffffffffffff161462000a5d57600080fd5b60003373ffffffffffffffffffffffffffffffffffffffff164760405162000a859062002086565b60006040518083038185875af1925050503d806000811462000ac4576040519150601f19603f3d011682016040523d82523d6000602084013e62000ac9565b606091505b505090508062000b10576040517f08c379a000000000000000000000000000000000000000000000000000000000815260040162000b0790620020fe565b60405180910390fd5b50565b60008060005b600360008673ffffffffffffffffffffffffffffffffffffffff1673ffffffffffffffffffffffffffffffffffffffff1681526020019081526020016000208054905081101562000c29578373ffffffffffffffffffffffffffffffffffffffff16600360008773ffffffffffffffffffffffffffffffffffffffff1673ffffffffffffffffffffffffffffffffffffffff168152602001908152602001600020828154811062000bcf5762000bce62001fb8565b5b9060005260206000200160009054906101000a900473ffffffffffffffffffffffffffffffffffffffff1673ffffffffffffffffffffffffffffffffffffffff160362000c1b57600191505b808060010191505062000b19565b508091505092915050565b600060149054906101000a900460ff161562000c87576040517f08c379a000000000000000000000000000000000000000000000000000000000815260040162000c7e9062002170565b60405180910390fd5b6001600060146101000a81548160ff02191690831515021790555062000cae848462000b13565b1562000ce6576040517f2f5f48b800000000000000000000000000000000000000000000000000000000815260040160405180910390fd5b8373ffffffffffffffffffffffffffffffffffffffff166323b872dd3330856040518463ffffffff1660e01b815260040162000d259392919062002192565b6020604051808303816000875af115801562000d45573d6000803e3d6000fd5b505050506040513d601f19601f8201168201806040525081019062000d6b919062002200565b508273ffffffffffffffffffffffffffffffffffffffff166323b872dd3330846040518463ffffffff1660e01b815260040162000dab9392919062002192565b6020604051808303816000875af115801562000dcb573d6000803e3d6000fd5b505050506040513d601f19601f8201168201806040525081019062000df1919062002200565b506000848460405162000e049062001984565b62000e1192919062001d7d565b604051809103906000f08015801562000e2e573d6000803e3d6000fd5b5090506006819080600181540180825580915050600190039060005260206000200160009091909190916101000a81548173ffffffffffffffffffffffffffffffffffffffff021916908373ffffffffffffffffffffffffffffffffffffffff1602179055508473ffffffffffffffffffffffffffffffffffffffff1663095ea7b382856040518363ffffffff1660e01b815260040162000ed192919062002232565b6020604051808303816000875af115801562000ef1573d6000803e3d6000fd5b505050506040513d601f19601f8201168201806040525081019062000f17919062002200565b508373ffffffffffffffffffffffffffffffffffffffff1663095ea7b382846040518363ffffffff1660e01b815260040162000f5592919062002232565b6020604051808303816000875af115801562000f75573d6000803e3d6000fd5b505050506040513d601f19601f8201168201806040525081019062000f9b919062002200565b508073ffffffffffffffffffffffffffffffffffffffff1663a40f4fa184846040518363ffffffff1660e01b815260040162000fd99291906200225f565b600060405180830381600087803b15801562000ff457600080fd5b505af115801562001009573d6000803e3d6000fd5b50505050600360008673ffffffffffffffffffffffffffffffffffffffff1673ffffffffffffffffffffffffffffffffffffffff168152602001908152602001600020849080600181540180825580915050600190039060005260206000200160009091909190916101000a81548173ffffffffffffffffffffffffffffffffffffffff021916908373ffffffffffffffffffffffffffffffffffffffff160217905550600360008573ffffffffffffffffffffffffffffffffffffffff1673ffffffffffffffffffffffffffffffffffffffff168152602001908152602001600020859080600181540180825580915050600190039060005260206000200160009091909190916101000a81548173ffffffffffffffffffffffffffffffffffffffff021916908373ffffffffffffffffffffffffffffffffffffffff16021790555080600460008773ffffffffffffffffffffffffffffffffffffffff1673ffffffffffffffffffffffffffffffffffffffff16815260200190815260200160002060008673ffffffffffffffffffffffffffffffffffffffff1673ffffffffffffffffffffffffffffffffffffffff16815260200190815260200160002060006101000a81548173ffffffffffffffffffffffffffffffffffffffff021916908373ffffffffffffffffffffffffffffffffffffffff16021790555080600460008673ffffffffffffffffffffffffffffffffffffffff1673ffffffffffffffffffffffffffffffffffffffff16815260200190815260200160002060008773ffffffffffffffffffffffffffffffffffffffff1673ffffffffffffffffffffffffffffffffffffffff16815260200190815260200160002060006101000a81548173ffffffffffffffffffffffffffffffffffffffff021916908373ffffffffffffffffffffffffffffffffffffffff16021790555060001515620012d286620018d9565b1515036200133e576005859080600181540180825580915050600190039060005260206000200160009091909190916101000a81548173ffffffffffffffffffffffffffffffffffffffff021916908373ffffffffffffffffffffffffffffffffffffffff1602179055505b600015156200134d85620018d9565b151503620013b9576005849080600181540180825580915050600190039060005260206000200160009091909190916101000a81548173ffffffffffffffffffffffffffffffffffffffff021916908373ffffffffffffffffffffffffffffffffffffffff1602179055505b7f1bfa76d353829689440900638fb4e4d604519997726fa1ee0f885e3df12ed7f8818686604051620013ee939291906200228c565b60405180910390a15060008060146101000a81548160ff02191690831515021790555050505050565b60046020528160005260406000206020528060005260406000206000915091509054906101000a900473ffffffffffffffffffffffffffffffffffffffff1681565b600360205281600052604060002081815481106200147657600080fd5b906000526020600020016000915091509054906101000a900473ffffffffffffffffffffffffffffffffffffffff1681565b60078181548110620014b957600080fd5b90600052602060002090600202016000915090508060000160009054906101000a900473ffffffffffffffffffffffffffffffffffffffff16908060010160009054906101000a900473ffffffffffffffffffffffffffffffffffffffff16905082565b6000600780549050905090565b60606005805480602002602001604051908101604052809291908181526020018280548015620015b057602002820191906000526020600020905b8160009054906101000a900473ffffffffffffffffffffffffffffffffffffffff1673ffffffffffffffffffffffffffffffffffffffff168152602001906001019080831162001565575b5050505050905090565b60068181548110620015cb57600080fd5b906000526020600020016000915054906101000a900473ffffffffffffffffffffffffffffffffffffffff1681565b600160009054906101000a900473ffffffffffffffffffffffffffffffffffffffff1681565b60608060005b60068054905081101562001871576000600682815481106200164d576200164c62001fb8565b5b9060005260206000200160009054906101000a900473ffffffffffffffffffffffffffffffffffffffff1673ffffffffffffffffffffffffffffffffffffffff1663ce5efee36040518163ffffffff1660e01b8152600401602060405180830381865afa158015620016c3573d6000803e3d6000fd5b505050506040513d601f19601f82011682018060405250810190620016e99190620022e0565b905060006006838154811062001704576200170362001fb8565b5b9060005260206000200160009054906101000a900473ffffffffffffffffffffffffffffffffffffffff1673ffffffffffffffffffffffffffffffffffffffff1663a87548036040518163ffffffff1660e01b8152600401602060405180830381865afa1580156200177a573d6000803e3d6000fd5b505050506040513d601f19601f82011682018060405250810190620017a09190620022e0565b9050604051806060016040528060068581548110620017c457620017c362001fb8565b5b9060005260206000200160009054906101000a900473ffffffffffffffffffffffffffffffffffffffff1673ffffffffffffffffffffffffffffffffffffffff1681526020018373ffffffffffffffffffffffffffffffffffffffff1681526020018273ffffffffffffffffffffffffffffffffffffffff1681525084848151811062001856576200185562001fb8565b5b60200260200101819052505050808060010191505062001626565b508091505090565b6000600360008373ffffffffffffffffffffffffffffffffffffffff1673ffffffffffffffffffffffffffffffffffffffff168152602001908152602001600020805490509050919050565b600060159054906101000a900461ffff1681565b60008060005b6005805490508110156200197a576005818154811062001904576200190362001fb8565b5b9060005260206000200160009054906101000a900473ffffffffffffffffffffffffffffffffffffffff1673ffffffffffffffffffffffffffffffffffffffff168473ffffffffffffffffffffffffffffffffffffffff16036200196c57600191506200197a565b8080600101915050620018df565b5080915050919050565b613089806200231383390190565b600080fd5b600073ffffffffffffffffffffffffffffffffffffffff82169050919050565b6000620019c48262001997565b9050919050565b620019d681620019b7565b8114620019e257600080fd5b50565b600081359050620019f681620019cb565b92915050565b60006020828403121562001a155762001a1462001992565b5b600062001a2584828501620019e5565b91505092915050565b600081519050919050565b600082825260208201905092915050565b6000819050602082019050919050565b62001a6581620019b7565b82525050565b600062001a79838362001a5a565b60208301905092915050565b6000602082019050919050565b600062001a9f8262001a2e565b62001aab818562001a39565b935062001ab88362001a4a565b8060005b8381101562001aef57815162001ad3888262001a6b565b975062001ae08362001a85565b92505060018101905062001abc565b5085935050505092915050565b6000602082019050818103600083015262001b18818462001a92565b905092915050565b6000819050919050565b62001b358162001b20565b811462001b4157600080fd5b50565b60008135905062001b558162001b2a565b92915050565b60006020828403121562001b745762001b7362001992565b5b600062001b848482850162001b44565b91505092915050565b62001b9881620019b7565b82525050565b600060208201905062001bb5600083018462001b8d565b92915050565b6000806040838503121562001bd55762001bd462001992565b5b600062001be585828601620019e5565b925050602062001bf885828601620019e5565b9150509250929050565b60008115159050919050565b62001c198162001c02565b82525050565b600060208201905062001c36600083018462001c0e565b92915050565b6000806000806080858703121562001c595762001c5862001992565b5b600062001c6987828801620019e5565b945050602062001c7c87828801620019e5565b935050604062001c8f8782880162001b44565b925050606062001ca28782880162001b44565b91505092959194509250565b6000819050919050565b600062001cd962001cd362001ccd8462001997565b62001cae565b62001997565b9050919050565b600062001ced8262001cb8565b9050919050565b600062001d018262001ce0565b9050919050565b62001d138162001cf4565b82525050565b600060208201905062001d30600083018462001d08565b92915050565b6000806040838503121562001d505762001d4f62001992565b5b600062001d6085828601620019e5565b925050602062001d738582860162001b44565b9150509250929050565b600060408201905062001d94600083018562001b8d565b62001da3602083018462001b8d565b9392505050565b62001db58162001b20565b82525050565b600060208201905062001dd2600083018462001daa565b92915050565b600062001de58262001cb8565b9050919050565b600062001df98262001dd8565b9050919050565b62001e0b8162001dec565b82525050565b600060208201905062001e28600083018462001e00565b92915050565b600081519050919050565b600082825260208201905092915050565b6000819050602082019050919050565b600062001e678262001997565b9050919050565b62001e798162001e5a565b82525050565b60608201600082015162001e97600085018262001a5a565b50602082015162001eac602085018262001e6e565b50604082015162001ec1604085018262001e6e565b50505050565b600062001ed5838362001e7f565b60608301905092915050565b6000602082019050919050565b600062001efb8262001e2e565b62001f07818562001e39565b935062001f148362001e4a565b8060005b8381101562001f4b57815162001f2f888262001ec7565b975062001f3c8362001ee1565b92505060018101905062001f18565b5085935050505092915050565b6000602082019050818103600083015262001f74818462001eee565b905092915050565b600061ffff82169050919050565b62001f958162001f7c565b82525050565b600060208201905062001fb2600083018462001f8a565b92915050565b7f4e487b7100000000000000000000000000000000000000000000000000000000600052603260045260246000fd5b7f4e487b7100000000000000000000000000000000000000000000000000000000600052601160045260246000fd5b6000620020238262001b20565b9150620020308362001b20565b92508282039050818111156200204b576200204a62001fe7565b5b92915050565b600081905092915050565b50565b60006200206e60008362002051565b91506200207b826200205c565b600082019050919050565b600062002093826200205f565b9150819050919050565b600082825260208201905092915050565b7f4661696c656420746f2073656e64204574686572000000000000000000000000600082015250565b6000620020e66014836200209d565b9150620020f382620020ae565b602082019050919050565b600060208201905081810360008301526200211981620020d7565b9050919050565b7f4e6f2072652d656e7472616e6379000000000000000000000000000000000000600082015250565b600062002158600e836200209d565b9150620021658262002120565b602082019050919050565b600060208201905081810360008301526200218b8162002149565b9050919050565b6000606082019050620021a9600083018662001b8d565b620021b8602083018562001b8d565b620021c7604083018462001daa565b949350505050565b620021da8162001c02565b8114620021e657600080fd5b50565b600081519050620021fa81620021cf565b92915050565b60006020828403121562002219576200221862001992565b5b60006200222984828501620021e9565b91505092915050565b600060408201905062002249600083018562001b8d565b62002258602083018462001daa565b9392505050565b600060408201905062002276600083018562001daa565b62002285602083018462001daa565b9392505050565b6000606082019050620022a3600083018662001d08565b620022b2602083018562001b8d565b620022c1604083018462001b8d565b949350505050565b600081519050620022da81620019cb565b92915050565b600060208284031215620022f957620022f862001992565b5b60006200230984828501620022c9565b9150509291505056fe608060405266038d7ea4c680006005553480156200001c57600080fd5b506040516200308938038062003089833981810160405281019062000042919062000184565b816000806101000a81548173ffffffffffffffffffffffffffffffffffffffff021916908373ffffffffffffffffffffffffffffffffffffffff16021790555080600160006101000a81548173ffffffffffffffffffffffffffffffffffffffff021916908373ffffffffffffffffffffffffffffffffffffffff16021790555033600660006101000a81548173ffffffffffffffffffffffffffffffffffffffff021916908373ffffffffffffffffffffffffffffffffffffffff16021790555066038d7ea4c680006005819055505050620001cb565b600080fd5b600073ffffffffffffffffffffffffffffffffffffffff82169050919050565b60006200014c826200011f565b9050919050565b6200015e816200013f565b81146200016a57600080fd5b50565b6000815190506200017e8162000153565b92915050565b600080604083850312156200019e576200019d6200011a565b5b6000620001ae858286016200016d565b9250506020620001c1858286016200016d565b9150509250929050565b612eae80620001db6000396000f3fe6080604052600436106101bb5760003560e01c80638da5cb5b116100ec578063aa03f2ed1161008a578063e35ba8ab11610064578063e35ba8ab1461068f578063e4a76726146106ba578063f318e557146106e3578063ffebfc8c1461070e576101f2565b8063aa03f2ed14610609578063ce5efee314610634578063dc1716241461065f576101f2565b80639c8f9f23116100c65780639c8f9f2314610561578063a40f4fa11461058a578063a8754803146105b3578063a97533b8146105de576101f2565b80638da5cb5b146104bc57806395cc4c5e146104e75780639a61c36a14610524576101f2565b806340702adc1161015957806354cf2aeb1161013357806354cf2aeb1461040d5780637c2628711461043857806381bace7d146104425780638477a6341461047f576101f2565b806340702adc146103875780634257dc4c146103b25780634d2d757c146103e2576101f2565b8063285939841161019557806328593984146102b757806328da1aef146102e25780632d4ce6691461031f578063405eae911461035c576101f2565b8063131a6f01146102245780631a6865021461024f57806324aabb921461027a576101f2565b366101f2576040517fdfaf840900000000000000000000000000000000000000000000000000000000815260040160405180910390fd5b6040517fdfaf840900000000000000000000000000000000000000000000000000000000815260040160405180910390fd5b34801561023057600080fd5b5061023961074b565b604051610246919061263c565b60405180910390f35b34801561025b57600080fd5b506102646107ee565b604051610271919061263c565b60405180910390f35b34801561028657600080fd5b506102a1600480360381019061029c91906126ba565b6107f4565b6040516102ae919061263c565b60405180910390f35b3480156102c357600080fd5b506102cc61080c565b6040516102d9919061263c565b60405180910390f35b3480156102ee57600080fd5b5061030960048036038101906103049190612713565b610812565b604051610316919061263c565b60405180910390f35b34801561032b57600080fd5b50610346600480360381019061034191906126ba565b61097f565b604051610353919061263c565b60405180910390f35b34801561036857600080fd5b50610371610a02565b60405161037e919061276e565b60405180910390f35b34801561039357600080fd5b5061039c610ab1565b6040516103a9919061263c565b60405180910390f35b6103cc60048036038101906103c79190612789565b610ab7565b6040516103d9919061263c565b60405180910390f35b3480156103ee57600080fd5b506103f7610eab565b604051610404919061276e565b60405180910390f35b34801561041957600080fd5b50610422610f14565b60405161042f919061263c565b60405180910390f35b610440610f1a565b005b34801561044e57600080fd5b50610469600480360381019061046491906126ba565b611397565b604051610476919061263c565b60405180910390f35b34801561048b57600080fd5b506104a660048036038101906104a191906126ba565b6114a0565b6040516104b3919061263c565b60405180910390f35b3480156104c857600080fd5b506104d16114b8565b6040516104de91906127c5565b60405180910390f35b3480156104f357600080fd5b5061050e60048036038101906105099190612713565b6114de565b60405161051b919061263c565b60405180910390f35b34801561053057600080fd5b5061054b600480360381019061054691906126ba565b6115c6565b604051610558919061263c565b60405180910390f35b34801561056d57600080fd5b5061058860048036038101906105839190612789565b6115de565b005b34801561059657600080fd5b506105b160048036038101906105ac91906127e0565b611b4e565b005b3480156105bf57600080fd5b506105c8611e35565b6040516105d591906127c5565b60405180910390f35b3480156105ea57600080fd5b506105f3611e5b565b604051610600919061263c565b60405180910390f35b34801561061557600080fd5b5061061e611e8f565b60405161062b919061263c565b60405180910390f35b34801561064057600080fd5b50610649611f31565b60405161065691906127c5565b60405180910390f35b61067960048036038101906106749190612789565b611f55565b604051610686919061263c565b60405180910390f35b34801561069b57600080fd5b506106a4612349565b6040516106b1919061263c565b60405180910390f35b3480156106c657600080fd5b506106e160048036038101906106dc9190612820565b61237d565b005b3480156106ef57600080fd5b506106f8612603565b604051610705919061263c565b60405180910390f35b34801561071a57600080fd5b50610735600480360381019061073091906126ba565b61260b565b604051610742919061263c565b60405180910390f35b6000600160009054906101000a900473ffffffffffffffffffffffffffffffffffffffff1673ffffffffffffffffffffffffffffffffffffffff166370a08231306040518263ffffffff1660e01b81526004016107a891906127c5565b602060405180830381865afa1580156107c5573d6000803e3d6000fd5b505050506040513d601f19601f820116820180604052508101906107e99190612888565b905090565b60035481565b60076020528060005260406000206000915090505481565b60045481565b60008060009054906101000a900473ffffffffffffffffffffffffffffffffffffffff1673ffffffffffffffffffffffffffffffffffffffff168373ffffffffffffffffffffffffffffffffffffffff16036108ad57600082610873611e8f565b61087d91906128e4565b905060008160035461088f9190612947565b90508061089a61074b565b6108a49190612978565b92505050610979565b600160009054906101000a900473ffffffffffffffffffffffffffffffffffffffff1673ffffffffffffffffffffffffffffffffffffffff168373ffffffffffffffffffffffffffffffffffffffff16036109475760008261090d61074b565b61091791906128e4565b90506000816003546109299190612947565b905080610934611e8f565b61093e9190612978565b92505050610979565b6040517fd526485500000000000000000000000000000000000000000000000000000000815260040160405180910390fd5b92915050565b60008173ffffffffffffffffffffffffffffffffffffffff166370a08231306040518263ffffffff1660e01b81526004016109ba91906127c5565b602060405180830381865afa1580156109d7573d6000803e3d6000fd5b505050506040513d601f19601f820116820180604052508101906109fb9190612888565b9050919050565b6000600960003373ffffffffffffffffffffffffffffffffffffffff1673ffffffffffffffffffffffffffffffffffffffff1681526020019081526020016000205060004290508062015180600960003373ffffffffffffffffffffffffffffffffffffffff1673ffffffffffffffffffffffffffffffffffffffff16815260200190815260200160002054610a9891906128e4565b1015610aa8576001915050610aae565b60009150505b90565b60025481565b6000600660149054906101000a900460ff1615610b09576040517f08c379a0000000000000000000000000000000000000000000000000000000008152600401610b0090612a09565b60405180910390fd5b6001600660146101000a81548160ff021916908315150217905550600554341015610b60576040517fb08ede0900000000000000000000000000000000000000000000000000000000815260040160405180910390fd5b60055460046000828254610b7491906128e4565b92505081905550600060055434610b8b9190612978565b90506000610b9761074b565b9050600084610ba4611e8f565b610bae91906128e4565b9050600081600354610bc09190612947565b905060008184610bd09190612978565b905060008054906101000a900473ffffffffffffffffffffffffffffffffffffffff1673ffffffffffffffffffffffffffffffffffffffff166323b872dd33308a6040518463ffffffff1660e01b8152600401610c2f93929190612a29565b6020604051808303816000875af1158015610c4e573d6000803e3d6000fd5b505050506040513d601f19601f82011682018060405250810190610c729190612a8c565b50600160009054906101000a900473ffffffffffffffffffffffffffffffffffffffff1673ffffffffffffffffffffffffffffffffffffffff1663a9059cbb33836040518363ffffffff1660e01b8152600401610cd0929190612ab9565b6020604051808303816000875af1158015610cef573d6000803e3d6000fd5b505050506040513d601f19601f82011682018060405250810190610d139190612a8c565b5060003373ffffffffffffffffffffffffffffffffffffffff1686604051610d3a90612b13565b60006040518083038185875af1925050503d8060008114610d77576040519150601f19603f3d011682016040523d82523d6000602084013e610d7c565b606091505b5050905080610dc0576040517f08c379a0000000000000000000000000000000000000000000000000000000008152600401610db790612b74565b60405180910390fd5b7f6f32bb515641ec539b66bf327d21765de8c4200f94d348cee1dc835bb7532ab160008054906101000a900473ffffffffffffffffffffffffffffffffffffffff16610e0a611e5b565b604051610e18929190612ab9565b60405180910390a17f6f32bb515641ec539b66bf327d21765de8c4200f94d348cee1dc835bb7532ab1600160009054906101000a900473ffffffffffffffffffffffffffffffffffffffff16610e6c612349565b604051610e7a929190612ab9565b60405180910390a18196505050505050506000600660146101000a81548160ff021916908315150217905550919050565b60006301e13380600a60003373ffffffffffffffffffffffffffffffffffffffff1673ffffffffffffffffffffffffffffffffffffffff16815260200190815260200160002054610efc91906128e4565b421115610f0c5760019050610f11565b600090505b90565b60055481565b60001515610f26610a02565b151503610f5f576040517ffdbfe33900000000000000000000000000000000000000000000000000000000815260040160405180910390fd5b6000600660009054906101000a900473ffffffffffffffffffffffffffffffffffffffff1673ffffffffffffffffffffffffffffffffffffffff1663fd1337a66040518163ffffffff1660e01b8152600401602060405180830381865afa158015610fce573d6000803e3d6000fd5b505050506040513d601f19601f82011682018060405250810190610ff29190612bce565b90506000600660009054906101000a900473ffffffffffffffffffffffffffffffffffffffff1673ffffffffffffffffffffffffffffffffffffffff1663b42446596040518163ffffffff1660e01b8152600401602060405180830381865afa158015611063573d6000803e3d6000fd5b505050506040513d601f19601f820116820180604052508101906110879190612c39565b90506000600660009054906101000a900473ffffffffffffffffffffffffffffffffffffffff1673ffffffffffffffffffffffffffffffffffffffff1663620e3a646040518163ffffffff1660e01b8152600401602060405180830381865afa1580156110f8573d6000803e3d6000fd5b505050506040513d601f19601f8201168201806040525081019061111c9190612c7b565b905060003360405160200161113191906127c5565b604051602081830303815290604052905060008373ffffffffffffffffffffffffffffffffffffffff1663207bae8a866040518263ffffffff1660e01b815260040161117d9190612cb7565b602060405180830381865afa15801561119a573d6000803e3d6000fd5b505050506040513d601f19601f820116820180604052508101906111be9190612888565b90508373ffffffffffffffffffffffffffffffffffffffff1663b1d995dd828786866040518563ffffffff1660e01b81526004016111fe93929190612d62565b60206040518083038185885af115801561121c573d6000803e3d6000fd5b50505050506040513d601f19601f820116820180604052508101906112419190612de0565b5060008473ffffffffffffffffffffffffffffffffffffffff1663207bae8a876040518263ffffffff1660e01b815260040161127d9190612cb7565b602060405180830381865afa15801561129a573d6000803e3d6000fd5b505050506040513d601f19601f820116820180604052508101906112be9190612888565b90506000600660009054906101000a900473ffffffffffffffffffffffffffffffffffffffff1673ffffffffffffffffffffffffffffffffffffffff168260405161130890612b13565b60006040518083038185875af1925050503d8060008114611345576040519150601f19603f3d011682016040523d82523d6000602084013e61134a565b606091505b505090508061138e576040517f08c379a000000000000000000000000000000000000000000000000000000000815260040161138590612b74565b60405180910390fd5b50505050505050565b6000600660009054906101000a900473ffffffffffffffffffffffffffffffffffffffff1673ffffffffffffffffffffffffffffffffffffffff163373ffffffffffffffffffffffffffffffffffffffff161415801561142257503373ffffffffffffffffffffffffffffffffffffffff168273ffffffffffffffffffffffffffffffffffffffff16145b15611459576040517f2ffae41300000000000000000000000000000000000000000000000000000000815260040160405180910390fd5b600760008373ffffffffffffffffffffffffffffffffffffffff1673ffffffffffffffffffffffffffffffffffffffff168152602001908152602001600020549050919050565b600a6020528060005260406000206000915090505481565b600660009054906101000a900473ffffffffffffffffffffffffffffffffffffffff1681565b60008060008054906101000a900473ffffffffffffffffffffffffffffffffffffffff1673ffffffffffffffffffffffffffffffffffffffff168473ffffffffffffffffffffffffffffffffffffffff16036115685761153c611e8f565b670de0b6b3a764000061154d61074b565b6115579190612e0d565b6115619190612947565b9050611598565b61157061074b565b670de0b6b3a7640000611581611e8f565b61158b9190612e0d565b6115959190612947565b90505b6000670de0b6b3a764000082856115af9190612e0d565b6115b99190612947565b9050809250505092915050565b60086020528060005260406000206000915090505481565b600660149054906101000a900460ff161561162e576040517f08c379a000000000000000000000000000000000000000000000000000000000815260040161162590612a09565b60405180910390fd5b6001600660146101000a81548160ff0219169083151502179055506000600760003373ffffffffffffffffffffffffffffffffffffffff1673ffffffffffffffffffffffffffffffffffffffff1681526020019081526020016000205490506000600354670de0b6b3a7640000836116a69190612e0d565b6116b09190612947565b90506000606484836116c29190612e0d565b6116cc9190612947565b90506000670de0b6b3a76400006116e1611e8f565b836116ec9190612e0d565b6116f69190612947565b90506000670de0b6b3a764000061170b61074b565b846117169190612e0d565b6117209190612947565b9050600660009054906101000a900473ffffffffffffffffffffffffffffffffffffffff1673ffffffffffffffffffffffffffffffffffffffff163373ffffffffffffffffffffffffffffffffffffffff1614801561178a575060001515611786610eab565b1515145b80156117ec575060025481836117a09190612e0d565b600760003373ffffffffffffffffffffffffffffffffffffffff1673ffffffffffffffffffffffffffffffffffffffff168152602001908152602001600020546117ea9190612978565b105b15611823576040517fbf0ebd8400000000000000000000000000000000000000000000000000000000815260040160405180910390fd5b8160008054906101000a900473ffffffffffffffffffffffffffffffffffffffff1673ffffffffffffffffffffffffffffffffffffffff166370a08231306040518263ffffffff1660e01b815260040161187d91906127c5565b602060405180830381865afa15801561189a573d6000803e3d6000fd5b505050506040513d601f19601f820116820180604052508101906118be9190612888565b1080611964575080600160009054906101000a900473ffffffffffffffffffffffffffffffffffffffff1673ffffffffffffffffffffffffffffffffffffffff166370a08231306040518263ffffffff1660e01b815260040161192191906127c5565b602060405180830381865afa15801561193e573d6000803e3d6000fd5b505050506040513d601f19601f820116820180604052508101906119629190612888565b105b1561199b576040517fbf0ebd8400000000000000000000000000000000000000000000000000000000815260040160405180910390fd5b60008054906101000a900473ffffffffffffffffffffffffffffffffffffffff1673ffffffffffffffffffffffffffffffffffffffff1663a9059cbb33846040518363ffffffff1660e01b81526004016119f6929190612ab9565b6020604051808303816000875af1158015611a15573d6000803e3d6000fd5b505050506040513d601f19601f82011682018060405250810190611a399190612a8c565b50600160009054906101000a900473ffffffffffffffffffffffffffffffffffffffff1673ffffffffffffffffffffffffffffffffffffffff1663a9059cbb33836040518363ffffffff1660e01b8152600401611a97929190612ab9565b6020604051808303816000875af1158015611ab6573d6000803e3d6000fd5b505050506040513d601f19601f82011682018060405250810190611ada9190612a8c565b503373ffffffffffffffffffffffffffffffffffffffff167fbad053f5b243c76f17611a28d4554167bd09e3491be13032dd4af620e8e228728383604051611b23929190612e4f565b60405180910390a250505050506000600660146101000a81548160ff02191690831515021790555050565b600660009054906101000a9050506000600a6000600660009054906101000a900473ffffffffffffffffffffffffffffffffffffffff1673ffffffffffffffffffffffffffffffffffffffff1673ffffffffffffffffffffffffffffffffffffffff168152602001908152602001600020541115611bf8576040517f17ebf42200000000000000000000000000000000000000000000000000000000815260040160405180910390fd5b42600a60003373ffffffffffffffffffffffffffffffffffffffff1673ffffffffffffffffffffffffffffffffffffffff1681526020019081526020016000208190555060008054906101000a900473ffffffffffffffffffffffffffffffffffffffff1673ffffffffffffffffffffffffffffffffffffffff166323b872dd3330856040518463ffffffff1660e01b8152600401611c9993929190612a29565b6020604051808303816000875af1158015611cb8573d6000803e3d6000fd5b505050506040513d601f19601f82011682018060405250810190611cdc9190612a8c565b50600160009054906101000a900473ffffffffffffffffffffffffffffffffffffffff1673ffffffffffffffffffffffffffffffffffffffff166323b872dd3330846040518463ffffffff1660e01b8152600401611d3c93929190612a29565b6020604051808303816000875af1158015611d5b573d6000803e3d6000fd5b505050506040513d601f19601f82011682018060405250810190611d7f9190612a8c565b508082611d8c9190612e0d565b600281905550600254600381905550600254600760003373ffffffffffffffffffffffffffffffffffffffff1673ffffffffffffffffffffffffffffffffffffffff168152602001908152602001600020819055503373ffffffffffffffffffffffffffffffffffffffff167fb27d7e2f60a2022903d49f653fbb6f06e4fd14fd5f2291655fb7c499645ba6148383604051611e29929190612e4f565b60405180910390a25050565b600160009054906101000a900473ffffffffffffffffffffffffffffffffffffffff1681565b6000611e65611e8f565b670de0b6b3a7640000611e7661074b565b611e809190612e0d565b611e8a9190612947565b905090565b60008060009054906101000a900473ffffffffffffffffffffffffffffffffffffffff1673ffffffffffffffffffffffffffffffffffffffff166370a08231306040518263ffffffff1660e01b8152600401611eeb91906127c5565b602060405180830381865afa158015611f08573d6000803e3d6000fd5b505050506040513d601f19601f82011682018060405250810190611f2c9190612888565b905090565b60008054906101000a900473ffffffffffffffffffffffffffffffffffffffff1681565b6000600660149054906101000a900460ff1615611fa7576040517f08c379a0000000000000000000000000000000000000000000000000000000008152600401611f9e90612a09565b60405180910390fd5b6001600660146101000a81548160ff021916908315150217905550600554341015611ffe576040517fb08ede0900000000000000000000000000000000000000000000000000000000815260040160405180910390fd5b6005546004600082825461201291906128e4565b925050819055506000600554346120299190612978565b90506000612035611e8f565b905060008461204261074b565b61204c91906128e4565b905060008160035461205e9190612947565b90506000818461206e9190612978565b9050600160009054906101000a900473ffffffffffffffffffffffffffffffffffffffff1673ffffffffffffffffffffffffffffffffffffffff166323b872dd33308a6040518463ffffffff1660e01b81526004016120cf93929190612a29565b6020604051808303816000875af11580156120ee573d6000803e3d6000fd5b505050506040513d601f19601f820116820180604052508101906121129190612a8c565b5060008054906101000a900473ffffffffffffffffffffffffffffffffffffffff1673ffffffffffffffffffffffffffffffffffffffff1663a9059cbb33836040518363ffffffff1660e01b815260040161216e929190612ab9565b6020604051808303816000875af115801561218d573d6000803e3d6000fd5b505050506040513d601f19601f820116820180604052508101906121b19190612a8c565b5060003373ffffffffffffffffffffffffffffffffffffffff16866040516121d890612b13565b60006040518083038185875af1925050503d8060008114612215576040519150601f19603f3d011682016040523d82523d6000602084013e61221a565b606091505b505090508061225e576040517f08c379a000000000000000000000000000000000000000000000000000000000815260040161225590612b74565b60405180910390fd5b7f6f32bb515641ec539b66bf327d21765de8c4200f94d348cee1dc835bb7532ab160008054906101000a900473ffffffffffffffffffffffffffffffffffffffff166122a8611e5b565b6040516122b6929190612ab9565b60405180910390a17f6f32bb515641ec539b66bf327d21765de8c4200f94d348cee1dc835bb7532ab1600160009054906101000a900473ffffffffffffffffffffffffffffffffffffffff1661230a612349565b604051612318929190612ab9565b60405180910390a18196505050505050506000600660146101000a81548160ff021916908315150217905550919050565b600061235361074b565b670de0b6b3a7640000612364611e8f565b61236e9190612e0d565b6123789190612947565b905090565b600660149054906101000a900460ff16156123cd576040517f08c379a00000000000000000000000000000000000000000000000000000000081526004016123c490612a09565b60405180910390fd5b6001600660146101000a81548160ff0219169083151502179055508173ffffffffffffffffffffffffffffffffffffffff166323b872dd333061241087866114de565b6040518463ffffffff1660e01b815260040161242e93929190612a29565b6020604051808303816000875af115801561244d573d6000803e3d6000fd5b505050506040513d601f19601f820116820180604052508101906124719190612a8c565b508273ffffffffffffffffffffffffffffffffffffffff166323b872dd3330846040518463ffffffff1660e01b81526004016124af93929190612a29565b6020604051808303816000875af11580156124ce573d6000803e3d6000fd5b505050506040513d601f19601f820116820180604052508101906124f29190612a8c565b506124fd83826114de565b816125089190612e0d565b600760003373ffffffffffffffffffffffffffffffffffffffff1673ffffffffffffffffffffffffffffffffffffffff168152602001908152602001600020600082825461255691906128e4565b9250508190555061256783826114de565b816125729190612e0d565b6003600082825461258391906128e4565b925050819055503373ffffffffffffffffffffffffffffffffffffffff167fb27d7e2f60a2022903d49f653fbb6f06e4fd14fd5f2291655fb7c499645ba6146125cc85846114de565b836040516125db929190612e4f565b60405180910390a26000600660146101000a81548160ff021916908315150217905550505050565b600047905090565b60096020528060005260406000206000915090505481565b6000819050919050565b61263681612623565b82525050565b6000602082019050612651600083018461262d565b92915050565b600080fd5b600073ffffffffffffffffffffffffffffffffffffffff82169050919050565b60006126878261265c565b9050919050565b6126978161267c565b81146126a257600080fd5b50565b6000813590506126b48161268e565b92915050565b6000602082840312156126d0576126cf612657565b5b60006126de848285016126a5565b91505092915050565b6126f081612623565b81146126fb57600080fd5b50565b60008135905061270d816126e7565b92915050565b6000806040838503121561272a57612729612657565b5b6000612738858286016126a5565b9250506020612749858286016126fe565b9150509250929050565b60008115159050919050565b61276881612753565b82525050565b6000602082019050612783600083018461275f565b92915050565b60006020828403121561279f5761279e612657565b5b60006127ad848285016126fe565b91505092915050565b6127bf8161267c565b82525050565b60006020820190506127da60008301846127b6565b92915050565b600080604083850312156127f7576127f6612657565b5b6000612805858286016126fe565b9250506020612816858286016126fe565b9150509250929050565b60008060006060848603121561283957612838612657565b5b6000612847868287016126a5565b9350506020612858868287016126a5565b9250506040612869868287016126fe565b9150509250925092565b600081519050612882816126e7565b92915050565b60006020828403121561289e5761289d612657565b5b60006128ac84828501612873565b91505092915050565b7f4e487b7100000000000000000000000000000000000000000000000000000000600052601160045260246000fd5b60006128ef82612623565b91506128fa83612623565b9250828201905080821115612912576129116128b5565b5b92915050565b7f4e487b7100000000000000000000000000000000000000000000000000000000600052601260045260246000fd5b600061295282612623565b915061295d83612623565b92508261296d5761296c612918565b5b828204905092915050565b600061298382612623565b915061298e83612623565b92508282039050818111156129a6576129a56128b5565b5b92915050565b600082825260208201905092915050565b7f4e6f2072652d656e7472616e6379000000000000000000000000000000000000600082015250565b60006129f3600e836129ac565b91506129fe826129bd565b602082019050919050565b60006020820190508181036000830152612a22816129e6565b9050919050565b6000606082019050612a3e60008301866127b6565b612a4b60208301856127b6565b612a58604083018461262d565b949350505050565b612a6981612753565b8114612a7457600080fd5b50565b600081519050612a8681612a60565b92915050565b600060208284031215612aa257612aa1612657565b5b6000612ab084828501612a77565b91505092915050565b6000604082019050612ace60008301856127b6565b612adb602083018461262d565b9392505050565b600081905092915050565b50565b6000612afd600083612ae2565b9150612b0882612aed565b600082019050919050565b6000612b1e82612af0565b9150819050919050565b7f4661696c656420746f2073656e64204574686572000000000000000000000000600082015250565b6000612b5e6014836129ac565b9150612b6982612b28565b602082019050919050565b60006020820190508181036000830152612b8d81612b51565b9050919050565b600061ffff82169050919050565b612bab81612b94565b8114612bb657600080fd5b50565b600081519050612bc881612ba2565b92915050565b600060208284031215612be457612be3612657565b5b6000612bf284828501612bb9565b91505092915050565b6000612c068261267c565b9050919050565b612c1681612bfb565b8114612c2157600080fd5b50565b600081519050612c3381612c0d565b92915050565b600060208284031215612c4f57612c4e612657565b5b6000612c5d84828501612c24565b91505092915050565b600081519050612c758161268e565b92915050565b600060208284031215612c9157612c90612657565b5b6000612c9f84828501612c66565b91505092915050565b612cb181612b94565b82525050565b6000602082019050612ccc6000830184612ca8565b92915050565b600081519050919050565b600082825260208201905092915050565b60005b83811015612d0c578082015181840152602081019050612cf1565b60008484015250505050565b6000601f19601f8301169050919050565b6000612d3482612cd2565b612d3e8185612cdd565b9350612d4e818560208601612cee565b612d5781612d18565b840191505092915050565b6000606082019050612d776000830186612ca8565b612d8460208301856127b6565b8181036040830152612d968184612d29565b9050949350505050565b600067ffffffffffffffff82169050919050565b612dbd81612da0565b8114612dc857600080fd5b50565b600081519050612dda81612db4565b92915050565b600060208284031215612df657612df5612657565b5b6000612e0484828501612dcb565b91505092915050565b6000612e1882612623565b9150612e2383612623565b9250828202612e3181612623565b91508282048414831517612e4857612e476128b5565b5b5092915050565b6000604082019050612e64600083018561262d565b612e71602083018461262d565b939250505056fea2646970667358221220804f3b74909bb15d96bc2ecc4ae8810d0ab456f5a39c42b530a157bac682997864736f6c63430008180033a2646970667358221220a6b5e9d616fedcff39a33ef4f25d2dc35b27ad77f7a74b9fff236fbaa4f7e18964736f6c63430008180033",
  "linkReferences": {},
  "deployedLinkReferences": {}
}