{
  "_format": "hh-sol-artifact-1",
  "contractName": "PoolMetrics",
  "sourceName": "contracts/Dex/PoolMetrics.sol",
  "abi": [
    {
      "inputs": [
        {
          "internalType": "address",
          "name": "_poolTracker",
          "type": "address"
        },
        {
          "internalType": "address",
          "name": "_ethPriceFeed",
          "type": "address"
        },
        {
          "internalType": "address",
          "name": "_swapRouter",
          "type": "address"
        }
      ],
      "stateMutability": "nonpayable",
      "type": "constructor"
    },
    {
      "inputs": [
        {
          "internalType": "address",
          "name": "tokenAddress",
          "type": "address"
        },
        {
          "internalType": "address",
          "name": "tokenAddress2",
          "type": "address"
        }
      ],
      "name": "dailyRate",
      "outputs": [
        {
          "internalType": "uint256",
          "name": "",
          "type": "uint256"
        }
      ],
      "stateMutability": "view",
      "type": "function"
    },
    {
      "inputs": [
        {
          "internalType": "address",
          "name": "tokenAddress",
          "type": "address"
        },
        {
          "internalType": "address",
          "name": "tokenAddress2",
          "type": "address"
        }
      ],
      "name": "dailyRoi",
      "outputs": [
        {
          "internalType": "uint256",
          "name": "",
          "type": "uint256"
        }
      ],
      "stateMutability": "view",
      "type": "function"
    },
    {
      "inputs": [],
      "name": "ethPriceFeed",
      "outputs": [
        {
          "internalType": "address",
          "name": "",
          "type": "address"
        }
      ],
      "stateMutability": "view",
      "type": "function"
    },
    {
      "inputs": [
        {
          "internalType": "address",
          "name": "tokenAddress",
          "type": "address"
        }
      ],
      "name": "marketCap",
      "outputs": [
        {
          "internalType": "uint256",
          "name": "",
          "type": "uint256"
        }
      ],
      "stateMutability": "view",
      "type": "function"
    },
    {
      "inputs": [
        {
          "internalType": "address",
          "name": "tokenAddress",
          "type": "address"
        },
        {
          "internalType": "address",
          "name": "tokenAddress2",
          "type": "address"
        }
      ],
      "name": "pairMarketCap",
      "outputs": [
        {
          "internalType": "uint256",
          "name": "",
          "type": "uint256"
        }
      ],
      "stateMutability": "view",
      "type": "function"
    },
    {
      "inputs": [
        {
          "internalType": "address",
          "name": "tokenAddress",
          "type": "address"
        },
        {
          "internalType": "address",
          "name": "tokenAddress2",
          "type": "address"
        }
      ],
      "name": "pairTvl",
      "outputs": [
        {
          "internalType": "uint256",
          "name": "",
          "type": "uint256"
        }
      ],
      "stateMutability": "view",
      "type": "function"
    },
    {
      "inputs": [
        {
          "internalType": "address",
          "name": "tokenAddress",
          "type": "address"
        },
        {
          "internalType": "address",
          "name": "tokenAddress2",
          "type": "address"
        }
      ],
      "name": "pairTvlRatio",
      "outputs": [
        {
          "internalType": "uint256",
          "name": "",
          "type": "uint256"
        }
      ],
      "stateMutability": "view",
      "type": "function"
    },
    {
      "inputs": [],
      "name": "poolTracker",
      "outputs": [
        {
          "internalType": "contract PoolTracker",
          "name": "",
          "type": "address"
        }
      ],
      "stateMutability": "view",
      "type": "function"
    },
    {
      "inputs": [],
      "name": "swapRouter",
      "outputs": [
        {
          "internalType": "contract SwapRouter",
          "name": "",
          "type": "address"
        }
      ],
      "stateMutability": "view",
      "type": "function"
    },
    {
      "inputs": [
        {
          "internalType": "address",
          "name": "tokenAddress",
          "type": "address"
        },
        {
          "internalType": "address",
          "name": "tokenAddress2",
          "type": "address"
        }
      ],
      "name": "totalRoi",
      "outputs": [
        {
          "internalType": "uint256",
          "name": "",
          "type": "uint256"
        }
      ],
      "stateMutability": "view",
      "type": "function"
    },
    {
      "inputs": [
        {
          "internalType": "address",
          "name": "tokenAddress",
          "type": "address"
        }
      ],
      "name": "tvl",
      "outputs": [
        {
          "internalType": "uint256",
          "name": "",
          "type": "uint256"
        }
      ],
      "stateMutability": "view",
      "type": "function"
    },
    {
      "inputs": [
        {
          "internalType": "address",
          "name": "tokenAddress",
          "type": "address"
        }
      ],
      "name": "tvlRatio",
      "outputs": [
        {
          "internalType": "uint256",
          "name": "",
          "type": "uint256"
        }
      ],
      "stateMutability": "view",
      "type": "function"
    },
    {
      "inputs": [
        {
          "internalType": "address",
          "name": "tokenAddress",
          "type": "address"
        },
        {
          "internalType": "uint256",
          "name": "tokenAmount",
          "type": "uint256"
        }
      ],
      "name": "usdValue",
      "outputs": [
        {
          "internalType": "uint256",
          "name": "",
          "type": "uint256"
        }
      ],
      "stateMutability": "view",
      "type": "function"
    }
  ],
  "bytecode": "0x60806040523480156200001157600080fd5b5060405162001eff38038062001eff83398181016040528101906200003791906200016c565b826000806101000a81548173ffffffffffffffffffffffffffffffffffffffff021916908373ffffffffffffffffffffffffffffffffffffffff16021790555080600160006101000a81548173ffffffffffffffffffffffffffffffffffffffff021916908373ffffffffffffffffffffffffffffffffffffffff16021790555081600260006101000a81548173ffffffffffffffffffffffffffffffffffffffff021916908373ffffffffffffffffffffffffffffffffffffffff160217905550505050620001c8565b600080fd5b600073ffffffffffffffffffffffffffffffffffffffff82169050919050565b6000620001348262000107565b9050919050565b620001468162000127565b81146200015257600080fd5b50565b60008151905062000166816200013b565b92915050565b60008060006060848603121562000188576200018762000102565b5b6000620001988682870162000155565b9350506020620001ab8682870162000155565b9250506040620001be8682870162000155565b9150509250925092565b611d2780620001d86000396000f3fe608060405234801561001057600080fd5b50600436106100cf5760003560e01c8063af7665ce1161008c578063c31c9c0711610066578063c31c9c0714610260578063c4fb32c31461027e578063e75db616146102ae578063ef610d8d146102de576100cf565b8063af7665ce146101e2578063bca04ec414610200578063c26fa28d14610230576100cf565b80631212033b146100d457806328a724ac146101045780634e5a9729146101225780636d3e08b7146101525780637c56176114610182578063931f63f8146101b2575b600080fd5b6100ee60048036038101906100e99190611733565b61030e565b6040516100fb919061178c565b60405180910390f35b61010c610423565b6040516101199190611806565b60405180910390f35b61013c60048036038101906101379190611733565b610447565b604051610149919061178c565b60405180910390f35b61016c60048036038101906101679190611733565b610613565b604051610179919061178c565b60405180910390f35b61019c60048036038101906101979190611733565b610853565b6040516101a9919061178c565b60405180910390f35b6101cc60048036038101906101c79190611733565b610887565b6040516101d9919061178c565b60405180910390f35b6101ea610b23565b6040516101f79190611830565b60405180910390f35b61021a6004803603810190610215919061184b565b610b49565b604051610227919061178c565b60405180910390f35b61024a60048036038101906102459190611733565b610b7a565b604051610257919061178c565b60405180910390f35b610268610bea565b60405161027591906118ab565b60405180910390f35b6102986004803603810190610293919061184b565b610c10565b6040516102a5919061178c565b60405180910390f35b6102c860048036038101906102c3919061184b565b610c91565b6040516102d5919061178c565b60405180910390f35b6102f860048036038101906102f391906118f2565b610f2a565b604051610305919061178c565b60405180910390f35b6000808373ffffffffffffffffffffffffffffffffffffffff166318160ddd6040518163ffffffff1660e01b8152600401602060405180830381865afa15801561035c573d6000803e3d6000fd5b505050506040513d601f19601f820116820180604052508101906103809190611947565b905060008373ffffffffffffffffffffffffffffffffffffffff166318160ddd6040518163ffffffff1660e01b8152600401602060405180830381865afa1580156103cf573d6000803e3d6000fd5b505050506040513d601f19601f820116820180604052508101906103f39190611947565b905060006104018583610f2a565b61040b8785610f2a565b61041591906119a3565b905080935050505092915050565b60008054906101000a900473ffffffffffffffffffffffffffffffffffffffff1681565b60008060008054906101000a900473ffffffffffffffffffffffffffffffffffffffff1673ffffffffffffffffffffffffffffffffffffffff16638b273a6885856040518363ffffffff1660e01b81526004016104a59291906119d7565b602060405180830381865afa1580156104c2573d6000803e3d6000fd5b505050506040513d601f19601f820116820180604052508101906104e69190611a50565b905060008473ffffffffffffffffffffffffffffffffffffffff166370a08231836040518263ffffffff1660e01b81526004016105239190611830565b602060405180830381865afa158015610540573d6000803e3d6000fd5b505050506040513d601f19601f820116820180604052508101906105649190611947565b905060008473ffffffffffffffffffffffffffffffffffffffff166370a08231846040518263ffffffff1660e01b81526004016105a19190611830565b602060405180830381865afa1580156105be573d6000803e3d6000fd5b505050506040513d601f19601f820116820180604052508101906105e29190611947565b905060006105f08683610f2a565b6105fa8885610f2a565b61060491906119a3565b90508094505050505092915050565b60008060008054906101000a900473ffffffffffffffffffffffffffffffffffffffff1673ffffffffffffffffffffffffffffffffffffffff16638b273a6885856040518363ffffffff1660e01b81526004016106719291906119d7565b602060405180830381865afa15801561068e573d6000803e3d6000fd5b505050506040513d601f19601f820116820180604052508101906106b29190611a50565b905060008173ffffffffffffffffffffffffffffffffffffffff1663285939846040518163ffffffff1660e01b8152600401602060405180830381865afa158015610701573d6000803e3d6000fd5b505050506040513d601f19601f820116820180604052508101906107259190611947565b905060008273ffffffffffffffffffffffffffffffffffffffff16638477a6348473ffffffffffffffffffffffffffffffffffffffff16638da5cb5b6040518163ffffffff1660e01b8152600401602060405180830381865afa158015610790573d6000803e3d6000fd5b505050506040513d601f19601f820116820180604052508101906107b49190611a92565b6040518263ffffffff1660e01b81526004016107d09190611830565b602060405180830381865afa1580156107ed573d6000803e3d6000fd5b505050506040513d601f19601f820116820180604052508101906108119190611947565b905060006018603c83426108259190611abf565b61082f9190611b22565b6108399190611b22565b905080836108479190611b22565b94505050505092915050565b600061085f838361030e565b606461086b8585610447565b6108759190611b53565b61087f9190611b22565b905092915050565b60008060008054906101000a900473ffffffffffffffffffffffffffffffffffffffff1673ffffffffffffffffffffffffffffffffffffffff16638b273a6885856040518363ffffffff1660e01b81526004016108e59291906119d7565b602060405180830381865afa158015610902573d6000803e3d6000fd5b505050506040513d601f19601f820116820180604052508101906109269190611a50565b90506000610955600260009054906101000a900473ffffffffffffffffffffffffffffffffffffffff1661164f565b8273ffffffffffffffffffffffffffffffffffffffff1663285939846040518163ffffffff1660e01b8152600401602060405180830381865afa1580156109a0573d6000803e3d6000fd5b505050506040513d601f19601f820116820180604052508101906109c49190611947565b6109ce9190611b53565b905060008573ffffffffffffffffffffffffffffffffffffffff166370a08231846040518263ffffffff1660e01b8152600401610a0b9190611830565b602060405180830381865afa158015610a28573d6000803e3d6000fd5b505050506040513d601f19601f82011682018060405250810190610a4c9190611947565b905060008573ffffffffffffffffffffffffffffffffffffffff166370a08231856040518263ffffffff1660e01b8152600401610a899190611830565b602060405180830381865afa158015610aa6573d6000803e3d6000fd5b505050506040513d601f19601f82011682018060405250810190610aca9190611947565b9050610ad68682610f2a565b610ae08884610f2a565b610aea91906119a3565b6a52b7d2dcc80cd2e4000000606485610b039190611b53565b610b0d9190611b53565b610b179190611b22565b94505050505092915050565b600260009054906101000a900473ffffffffffffffffffffffffffffffffffffffff1681565b6000610b5482610c10565b6064610b5f84610c91565b610b699190611b53565b610b739190611b22565b9050919050565b6000610b868383610447565b670de0b6b3a7640000610b998585610613565b610bc4600260009054906101000a900473ffffffffffffffffffffffffffffffffffffffff1661164f565b610bce9190611b53565b610bd89190611b53565b610be29190611b22565b905092915050565b600160009054906101000a900473ffffffffffffffffffffffffffffffffffffffff1681565b6000610c8a828373ffffffffffffffffffffffffffffffffffffffff166318160ddd6040518163ffffffff1660e01b8152600401602060405180830381865afa158015610c61573d6000803e3d6000fd5b505050506040513d601f19601f82011682018060405250810190610c859190611947565b610f2a565b9050919050565b60008060008060009054906101000a900473ffffffffffffffffffffffffffffffffffffffff1673ffffffffffffffffffffffffffffffffffffffff1663f5ff5061856040518263ffffffff1660e01b8152600401610cf09190611830565b602060405180830381865afa158015610d0d573d6000803e3d6000fd5b505050506040513d601f19601f82011682018060405250810190610d319190611947565b905060005b81811015610f165760008060009054906101000a900473ffffffffffffffffffffffffffffffffffffffff1673ffffffffffffffffffffffffffffffffffffffff16638c75d89d87846040518363ffffffff1660e01b8152600401610d9c929190611b95565b602060405180830381865afa158015610db9573d6000803e3d6000fd5b505050506040513d601f19601f82011682018060405250810190610ddd9190611a92565b905060008060009054906101000a900473ffffffffffffffffffffffffffffffffffffffff1673ffffffffffffffffffffffffffffffffffffffff16638b273a6888846040518363ffffffff1660e01b8152600401610e3d9291906119d7565b602060405180830381865afa158015610e5a573d6000803e3d6000fd5b505050506040513d601f19601f82011682018060405250810190610e7e9190611a50565b90508673ffffffffffffffffffffffffffffffffffffffff166370a08231826040518263ffffffff1660e01b8152600401610eb99190611830565b602060405180830381865afa158015610ed6573d6000803e3d6000fd5b505050506040513d601f19601f82011682018060405250810190610efa9190611947565b85610f0591906119a3565b945050508080600101915050610d36565b50610f218483610f2a565b92505050919050565b6000805b60008054906101000a900473ffffffffffffffffffffffffffffffffffffffff1673ffffffffffffffffffffffffffffffffffffffff1663941230606040518163ffffffff1660e01b8152600401602060405180830381865afa158015610f99573d6000803e3d6000fd5b505050506040513d601f19601f82011682018060405250810190610fbd9190611947565b8110156110c45760008060008054906101000a900473ffffffffffffffffffffffffffffffffffffffff1673ffffffffffffffffffffffffffffffffffffffff1663930186f2846040518263ffffffff1660e01b8152600401611020919061178c565b6040805180830381865afa15801561103c573d6000803e3d6000fd5b505050506040513d601f19601f820116820180604052508101906110609190611bbe565b915091508573ffffffffffffffffffffffffffffffffffffffff168273ffffffffffffffffffffffffffffffffffffffff16036110b557846110a18261164f565b6110ab9190611b53565b9350505050611649565b50508080600101915050610f2e565b5060005b60008054906101000a900473ffffffffffffffffffffffffffffffffffffffff1673ffffffffffffffffffffffffffffffffffffffff1663941230606040518163ffffffff1660e01b8152600401602060405180830381865afa158015611133573d6000803e3d6000fd5b505050506040513d601f19601f820116820180604052508101906111579190611947565b8110156116435760008060008054906101000a900473ffffffffffffffffffffffffffffffffffffffff1673ffffffffffffffffffffffffffffffffffffffff1663930186f2846040518263ffffffff1660e01b81526004016111ba919061178c565b6040805180830381865afa1580156111d6573d6000803e3d6000fd5b505050506040513d601f19601f820116820180604052508101906111fa9190611bbe565b91509150600073ffffffffffffffffffffffffffffffffffffffff1660008054906101000a900473ffffffffffffffffffffffffffffffffffffffff1673ffffffffffffffffffffffffffffffffffffffff16638b273a6888856040518363ffffffff1660e01b81526004016112719291906119d7565b602060405180830381865afa15801561128e573d6000803e3d6000fd5b505050506040513d601f19601f820116820180604052508101906112b29190611a50565b73ffffffffffffffffffffffffffffffffffffffff16146116345760008060009054906101000a900473ffffffffffffffffffffffffffffffffffffffff1673ffffffffffffffffffffffffffffffffffffffff16638b273a6888856040518363ffffffff1660e01b815260040161132b9291906119d7565b602060405180830381865afa158015611348573d6000803e3d6000fd5b505050506040513d601f19601f8201168201806040525081019061136c9190611a50565b905060008773ffffffffffffffffffffffffffffffffffffffff168273ffffffffffffffffffffffffffffffffffffffff1663ce5efee36040518163ffffffff1660e01b8152600401602060405180830381865afa1580156113d2573d6000803e3d6000fd5b505050506040513d601f19601f820116820180604052508101906113f69190611a92565b73ffffffffffffffffffffffffffffffffffffffff160361151e578173ffffffffffffffffffffffffffffffffffffffff1663131a6f016040518163ffffffff1660e01b8152600401602060405180830381865afa15801561145c573d6000803e3d6000fd5b505050506040513d601f19601f820116820180604052508101906114809190611947565b8273ffffffffffffffffffffffffffffffffffffffff1663aa03f2ed6040518163ffffffff1660e01b8152600401602060405180830381865afa1580156114cb573d6000803e3d6000fd5b505050506040513d601f19601f820116820180604052508101906114ef9190611947565b886114f98661164f565b6115039190611b53565b61150d9190611b53565b6115179190611b22565b9050611627565b8173ffffffffffffffffffffffffffffffffffffffff1663aa03f2ed6040518163ffffffff1660e01b8152600401602060405180830381865afa158015611569573d6000803e3d6000fd5b505050506040513d601f19601f8201168201806040525081019061158d9190611947565b8273ffffffffffffffffffffffffffffffffffffffff1663131a6f016040518163ffffffff1660e01b8152600401602060405180830381865afa1580156115d8573d6000803e3d6000fd5b505050506040513d601f19601f820116820180604052508101906115fc9190611947565b886116068661164f565b6116109190611b53565b61161a9190611b53565b6116249190611b22565b90505b8095505050505050611649565b505080806001019150506110c8565b50600090505b92915050565b6000808273ffffffffffffffffffffffffffffffffffffffff1663feaf968c6040518163ffffffff1660e01b815260040160a060405180830381865afa15801561169d573d6000803e3d6000fd5b505050506040513d601f19601f820116820180604052508101906116c19190611c76565b50505091505080915050919050565b600080fd5b600073ffffffffffffffffffffffffffffffffffffffff82169050919050565b6000611700826116d5565b9050919050565b611710816116f5565b811461171b57600080fd5b50565b60008135905061172d81611707565b92915050565b6000806040838503121561174a576117496116d0565b5b60006117588582860161171e565b92505060206117698582860161171e565b9150509250929050565b6000819050919050565b61178681611773565b82525050565b60006020820190506117a1600083018461177d565b92915050565b6000819050919050565b60006117cc6117c76117c2846116d5565b6117a7565b6116d5565b9050919050565b60006117de826117b1565b9050919050565b60006117f0826117d3565b9050919050565b611800816117e5565b82525050565b600060208201905061181b60008301846117f7565b92915050565b61182a816116f5565b82525050565b60006020820190506118456000830184611821565b92915050565b600060208284031215611861576118606116d0565b5b600061186f8482850161171e565b91505092915050565b6000611883826117b1565b9050919050565b600061189582611878565b9050919050565b6118a58161188a565b82525050565b60006020820190506118c0600083018461189c565b92915050565b6118cf81611773565b81146118da57600080fd5b50565b6000813590506118ec816118c6565b92915050565b60008060408385031215611909576119086116d0565b5b60006119178582860161171e565b9250506020611928858286016118dd565b9150509250929050565b600081519050611941816118c6565b92915050565b60006020828403121561195d5761195c6116d0565b5b600061196b84828501611932565b91505092915050565b7f4e487b7100000000000000000000000000000000000000000000000000000000600052601160045260246000fd5b60006119ae82611773565b91506119b983611773565b92508282019050808211156119d1576119d0611974565b5b92915050565b60006040820190506119ec6000830185611821565b6119f96020830184611821565b9392505050565b6000611a0b826116d5565b9050919050565b6000611a1d82611a00565b9050919050565b611a2d81611a12565b8114611a3857600080fd5b50565b600081519050611a4a81611a24565b92915050565b600060208284031215611a6657611a656116d0565b5b6000611a7484828501611a3b565b91505092915050565b600081519050611a8c81611707565b92915050565b600060208284031215611aa857611aa76116d0565b5b6000611ab684828501611a7d565b91505092915050565b6000611aca82611773565b9150611ad583611773565b9250828203905081811115611aed57611aec611974565b5b92915050565b7f4e487b7100000000000000000000000000000000000000000000000000000000600052601260045260246000fd5b6000611b2d82611773565b9150611b3883611773565b925082611b4857611b47611af3565b5b828204905092915050565b6000611b5e82611773565b9150611b6983611773565b9250828202611b7781611773565b91508282048414831517611b8e57611b8d611974565b5b5092915050565b6000604082019050611baa6000830185611821565b611bb7602083018461177d565b9392505050565b60008060408385031215611bd557611bd46116d0565b5b6000611be385828601611a7d565b9250506020611bf485828601611a7d565b9150509250929050565b600069ffffffffffffffffffff82169050919050565b611c1d81611bfe565b8114611c2857600080fd5b50565b600081519050611c3a81611c14565b92915050565b6000819050919050565b611c5381611c40565b8114611c5e57600080fd5b50565b600081519050611c7081611c4a565b92915050565b600080600080600060a08688031215611c9257611c916116d0565b5b6000611ca088828901611c2b565b9550506020611cb188828901611c61565b9450506040611cc288828901611932565b9350506060611cd388828901611932565b9250506080611ce488828901611c2b565b915050929550929590935056fea2646970667358221220bdc957ee16e1e921b03bbdcbd8a577d4df45dadea36deeaeb2b8607bcdf1355864736f6c63430008180033",
  "linkReferences": {},
  "deployedLinkReferences": {}
}