{
  "_format": "hh-sol-artifact-1",
  "contractName": "SwapRouter",
  "sourceName": "contracts/Dex/WeaveSwap.sol",
  "abi": [
    {
      "inputs": [
        {
          "internalType": "address",
          "name": "tracker",
          "type": "address"
        }
      ],
      "stateMutability": "nonpayable",
      "type": "constructor"
    },
    {
      "inputs": [],
      "name": "PoolTracker_cantSwapSameToken",
      "type": "error"
    },
    {
      "inputs": [],
      "name": "SwapRouter_tokensCantBeSwapped",
      "type": "error"
    },
    {
      "anonymous": false,
      "inputs": [
        {
          "indexed": false,
          "internalType": "address",
          "name": "userAddress",
          "type": "address"
        },
        {
          "indexed": false,
          "internalType": "address",
          "name": "address1",
          "type": "address"
        },
        {
          "indexed": false,
          "internalType": "address",
          "name": "address2",
          "type": "address"
        },
        {
          "indexed": false,
          "internalType": "uint256",
          "name": "address1Amount",
          "type": "uint256"
        },
        {
          "indexed": false,
          "internalType": "uint256",
          "name": "address2Amount",
          "type": "uint256"
        }
      ],
      "name": "swap",
      "type": "event"
    },
    {
      "stateMutability": "payable",
      "type": "fallback"
    },
    {
      "inputs": [
        {
          "internalType": "address",
          "name": "address1",
          "type": "address"
        },
        {
          "internalType": "address",
          "name": "address2",
          "type": "address"
        },
        {
          "internalType": "uint256",
          "name": "inputAmount",
          "type": "uint256"
        }
      ],
      "name": "getSwapAmount",
      "outputs": [
        {
          "internalType": "uint256",
          "name": "",
          "type": "uint256"
        }
      ],
      "stateMutability": "view",
      "type": "function"
    },
    {
      "inputs": [
        {
          "internalType": "address",
          "name": "address1",
          "type": "address"
        },
        {
          "internalType": "address",
          "name": "address2",
          "type": "address"
        }
      ],
      "name": "getSwapFee",
      "outputs": [
        {
          "internalType": "uint256",
          "name": "",
          "type": "uint256"
        }
      ],
      "stateMutability": "view",
      "type": "function"
    },
    {
      "inputs": [
        {
          "internalType": "address",
          "name": "address1",
          "type": "address"
        },
        {
          "internalType": "address",
          "name": "address2",
          "type": "address"
        },
        {
          "internalType": "uint256",
          "name": "inputAmount",
          "type": "uint256"
        }
      ],
      "name": "swapAsset",
      "outputs": [],
      "stateMutability": "payable",
      "type": "function"
    },
    {
      "inputs": [
        {
          "internalType": "address",
          "name": "address1",
          "type": "address"
        },
        {
          "internalType": "address",
          "name": "address2",
          "type": "address"
        }
      ],
      "name": "tokenToRoute",
      "outputs": [
        {
          "internalType": "address",
          "name": "",
          "type": "address"
        }
      ],
      "stateMutability": "view",
      "type": "function"
    },
    {
      "stateMutability": "payable",
      "type": "receive"
    }
  ],
  "bytecode": "0x60806040523480156200001157600080fd5b5060405162002f0d38038062002f0d8339818101604052810190620000379190620000e8565b806000806101000a81548173ffffffffffffffffffffffffffffffffffffffff021916908373ffffffffffffffffffffffffffffffffffffffff160217905550506200011a565b600080fd5b600073ffffffffffffffffffffffffffffffffffffffff82169050919050565b6000620000b08262000083565b9050919050565b620000c281620000a3565b8114620000ce57600080fd5b50565b600081519050620000e281620000b7565b92915050565b6000602082840312156200010157620001006200007e565b5b60006200011184828501620000d1565b91505092915050565b612de3806200012a6000396000f3fe6080604052600436106100435760003560e01c80632de192dc1461004c5780635553246014610089578063635bc0c2146100c6578063fe9f5c05146101035761004a565b3661004a57005b005b34801561005857600080fd5b50610073600480360381019061006e919061251b565b61011f565b6040516100809190612574565b60405180910390f35b34801561009557600080fd5b506100b060048036038101906100ab919061251b565b6105b0565b6040516100bd919061259e565b60405180910390f35b3480156100d257600080fd5b506100ed60048036038101906100e891906125e5565b610c15565b6040516100fa9190612574565b60405180910390f35b61011d600480360381019061011891906125e5565b6110b0565b005b60008060008054906101000a900473ffffffffffffffffffffffffffffffffffffffff1673ffffffffffffffffffffffffffffffffffffffff16637663f82285856040518363ffffffff1660e01b815260040161017d929190612638565b602060405180830381865afa15801561019a573d6000803e3d6000fd5b505050506040513d601f19601f820116820180604052508101906101be9190612699565b156102e65760008060009054906101000a900473ffffffffffffffffffffffffffffffffffffffff1673ffffffffffffffffffffffffffffffffffffffff16638b273a6886866040518363ffffffff1660e01b8152600401610221929190612638565b602060405180830381865afa15801561023e573d6000803e3d6000fd5b505050506040513d601f19601f820116820180604052508101906102629190612716565b90508073ffffffffffffffffffffffffffffffffffffffff166354cf2aeb6040518163ffffffff1660e01b8152600401602060405180830381865afa1580156102af573d6000803e3d6000fd5b505050506040513d601f19601f820116820180604052508101906102d39190612758565b826102de91906127b4565b9150506105a6565b600073ffffffffffffffffffffffffffffffffffffffff1661030885856105b0565b73ffffffffffffffffffffffffffffffffffffffff161461057357600061032f85856105b0565b905060008060009054906101000a900473ffffffffffffffffffffffffffffffffffffffff1673ffffffffffffffffffffffffffffffffffffffff16638b273a6887846040518363ffffffff1660e01b815260040161038f929190612638565b602060405180830381865afa1580156103ac573d6000803e3d6000fd5b505050506040513d601f19601f820116820180604052508101906103d09190612716565b905060008060009054906101000a900473ffffffffffffffffffffffffffffffffffffffff1673ffffffffffffffffffffffffffffffffffffffff16638b273a6887856040518363ffffffff1660e01b8152600401610430929190612638565b602060405180830381865afa15801561044d573d6000803e3d6000fd5b505050506040513d601f19601f820116820180604052508101906104719190612716565b90508173ffffffffffffffffffffffffffffffffffffffff166354cf2aeb6040518163ffffffff1660e01b8152600401602060405180830381865afa1580156104be573d6000803e3d6000fd5b505050506040513d601f19601f820116820180604052508101906104e29190612758565b846104ed91906127b4565b93508073ffffffffffffffffffffffffffffffffffffffff166354cf2aeb6040518163ffffffff1660e01b8152600401602060405180830381865afa15801561053a573d6000803e3d6000fd5b505050506040513d601f19601f8201168201806040525081019061055e9190612758565b8461056991906127b4565b93505050506105a5565b6040517f8bb120b500000000000000000000000000000000000000000000000000000000815260040160405180910390fd5b5b8091505092915050565b60008173ffffffffffffffffffffffffffffffffffffffff168373ffffffffffffffffffffffffffffffffffffffff1603610617576040517fef107d8100000000000000000000000000000000000000000000000000000000815260040160405180910390fd5b60008060009054906101000a900473ffffffffffffffffffffffffffffffffffffffff1673ffffffffffffffffffffffffffffffffffffffff16631b9db73f856040518263ffffffff1660e01b8152600401610673919061259e565b600060405180830381865afa158015610690573d6000803e3d6000fd5b505050506040513d6000823e3d601f19601f820116820180604052508101906106b99190612956565b905060008060009054906101000a900473ffffffffffffffffffffffffffffffffffffffff1673ffffffffffffffffffffffffffffffffffffffff16631b9db73f856040518263ffffffff1660e01b8152600401610717919061259e565b600060405180830381865afa158015610734573d6000803e3d6000fd5b505050506040513d6000823e3d601f19601f8201168201806040525081019061075d9190612956565b905060008060005b8451811015610c075760005b8451811015610bf95784818151811061078d5761078c61299f565b5b602002602001015173ffffffffffffffffffffffffffffffffffffffff168683815181106107be576107bd61299f565b5b602002602001015173ffffffffffffffffffffffffffffffffffffffff1603610bec5760005b60008054906101000a900473ffffffffffffffffffffffffffffffffffffffff1673ffffffffffffffffffffffffffffffffffffffff1663941230606040518163ffffffff1660e01b8152600401602060405180830381865afa15801561084f573d6000803e3d6000fd5b505050506040513d601f19601f820116820180604052508101906108739190612758565b811015610bea5760008060008054906101000a900473ffffffffffffffffffffffffffffffffffffffff1673ffffffffffffffffffffffffffffffffffffffff1663930186f2846040518263ffffffff1660e01b81526004016108d69190612574565b6040805180830381865afa1580156108f2573d6000803e3d6000fd5b505050506040513d601f19601f8201168201806040525081019061091691906129ce565b9150915088858151811061092d5761092c61299f565b5b602002602001015173ffffffffffffffffffffffffffffffffffffffff168273ffffffffffffffffffffffffffffffffffffffff1603610bdb5760008060008054906101000a900473ffffffffffffffffffffffffffffffffffffffff1673ffffffffffffffffffffffffffffffffffffffff16638b273a688f866040518363ffffffff1660e01b81526004016109c5929190612638565b602060405180830381865afa1580156109e2573d6000803e3d6000fd5b505050506040513d601f19601f82011682018060405250810190610a069190612716565b905060008060009054906101000a900473ffffffffffffffffffffffffffffffffffffffff1673ffffffffffffffffffffffffffffffffffffffff16638b273a688f876040518363ffffffff1660e01b8152600401610a66929190612638565b602060405180830381865afa158015610a83573d6000803e3d6000fd5b505050506040513d601f19601f82011682018060405250810190610aa79190612716565b905060008573ffffffffffffffffffffffffffffffffffffffff166370a08231846040518263ffffffff1660e01b8152600401610ae4919061259e565b602060405180830381865afa158015610b01573d6000803e3d6000fd5b505050506040513d601f19601f82011682018060405250810190610b259190612758565b905060008673ffffffffffffffffffffffffffffffffffffffff166370a08231846040518263ffffffff1660e01b8152600401610b62919061259e565b602060405180830381865afa158015610b7f573d6000803e3d6000fd5b505050506040513d601f19601f82011682018060405250810190610ba39190612758565b9050610bae86612428565b8183610bba9190612a18565b610bc49190612a5c565b94508a851315610bd557869b50849a505b50505050505b505080806001019150506107e4565b505b8080600101915050610771565b508080600101915050610765565b508194505050505092915050565b60008060008054906101000a900473ffffffffffffffffffffffffffffffffffffffff1673ffffffffffffffffffffffffffffffffffffffff16637663f82286866040518363ffffffff1660e01b8152600401610c73929190612638565b602060405180830381865afa158015610c90573d6000803e3d6000fd5b505050506040513d601f19601f82011682018060405250810190610cb49190612699565b15610dde5760008060009054906101000a900473ffffffffffffffffffffffffffffffffffffffff1673ffffffffffffffffffffffffffffffffffffffff16638b273a6887876040518363ffffffff1660e01b8152600401610d17929190612638565b602060405180830381865afa158015610d34573d6000803e3d6000fd5b505050506040513d601f19601f82011682018060405250810190610d589190612716565b90508073ffffffffffffffffffffffffffffffffffffffff166328da1aef87866040518363ffffffff1660e01b8152600401610d95929190612ad4565b602060405180830381865afa158015610db2573d6000803e3d6000fd5b505050506040513d601f19601f82011682018060405250810190610dd69190612758565b9150506110a5565b600073ffffffffffffffffffffffffffffffffffffffff16610e0086866105b0565b73ffffffffffffffffffffffffffffffffffffffff1614611072576000610e2786866105b0565b905060008060009054906101000a900473ffffffffffffffffffffffffffffffffffffffff1673ffffffffffffffffffffffffffffffffffffffff16638b273a6888846040518363ffffffff1660e01b8152600401610e87929190612638565b602060405180830381865afa158015610ea4573d6000803e3d6000fd5b505050506040513d601f19601f82011682018060405250810190610ec89190612716565b905060008060009054906101000a900473ffffffffffffffffffffffffffffffffffffffff1673ffffffffffffffffffffffffffffffffffffffff16638b273a6888856040518363ffffffff1660e01b8152600401610f28929190612638565b602060405180830381865afa158015610f45573d6000803e3d6000fd5b505050506040513d601f19601f82011682018060405250810190610f699190612716565b905060008273ffffffffffffffffffffffffffffffffffffffff166328da1aef8a896040518363ffffffff1660e01b8152600401610fa8929190612ad4565b602060405180830381865afa158015610fc5573d6000803e3d6000fd5b505050506040513d601f19601f82011682018060405250810190610fe99190612758565b90508173ffffffffffffffffffffffffffffffffffffffff166328da1aef85836040518363ffffffff1660e01b8152600401611026929190612ad4565b602060405180830381865afa158015611043573d6000803e3d6000fd5b505050506040513d601f19601f820116820180604052508101906110679190612758565b9450505050506110a4565b6040517f8bb120b500000000000000000000000000000000000000000000000000000000815260040160405180910390fd5b5b809150509392505050565b600060149054906101000a900460ff1615611100576040517f08c379a00000000000000000000000000000000000000000000000000000000081526004016110f790612b5a565b60405180910390fd5b6001600060146101000a81548160ff02191690831515021790555060008054906101000a900473ffffffffffffffffffffffffffffffffffffffff1673ffffffffffffffffffffffffffffffffffffffff16637663f82284846040518363ffffffff1660e01b8152600401611176929190612638565b602060405180830381865afa158015611193573d6000803e3d6000fd5b505050506040513d601f19601f820116820180604052508101906111b79190612699565b156119965760008060009054906101000a900473ffffffffffffffffffffffffffffffffffffffff1673ffffffffffffffffffffffffffffffffffffffff16638b273a6885856040518363ffffffff1660e01b815260040161121a929190612638565b602060405180830381865afa158015611237573d6000803e3d6000fd5b505050506040513d601f19601f8201168201806040525081019061125b9190612716565b905060008373ffffffffffffffffffffffffffffffffffffffff166370a08231306040518263ffffffff1660e01b8152600401611298919061259e565b602060405180830381865afa1580156112b5573d6000803e3d6000fd5b505050506040513d601f19601f820116820180604052508101906112d99190612758565b90508473ffffffffffffffffffffffffffffffffffffffff168273ffffffffffffffffffffffffffffffffffffffff1663ce5efee36040518163ffffffff1660e01b8152600401602060405180830381865afa15801561133d573d6000803e3d6000fd5b505050506040513d601f19601f820116820180604052508101906113619190612b7a565b73ffffffffffffffffffffffffffffffffffffffff160361156d578473ffffffffffffffffffffffffffffffffffffffff166323b872dd3330866040518463ffffffff1660e01b81526004016113b993929190612ba7565b6020604051808303816000875af11580156113d8573d6000803e3d6000fd5b505050506040513d601f19601f820116820180604052508101906113fc9190612699565b508473ffffffffffffffffffffffffffffffffffffffff1663095ea7b383856040518363ffffffff1660e01b8152600401611438929190612ad4565b6020604051808303816000875af1158015611457573d6000803e3d6000fd5b505050506040513d601f19601f8201168201806040525081019061147b9190612699565b508173ffffffffffffffffffffffffffffffffffffffff16634257dc4c8373ffffffffffffffffffffffffffffffffffffffff166354cf2aeb6040518163ffffffff1660e01b8152600401602060405180830381865afa1580156114e3573d6000803e3d6000fd5b505050506040513d601f19601f820116820180604052508101906115079190612758565b856040518363ffffffff1660e01b81526004016115249190612574565b60206040518083038185885af1158015611542573d6000803e3d6000fd5b50505050506040513d601f19601f820116820180604052508101906115679190612758565b5061175a565b8473ffffffffffffffffffffffffffffffffffffffff166323b872dd3330866040518463ffffffff1660e01b81526004016115aa93929190612ba7565b6020604051808303816000875af11580156115c9573d6000803e3d6000fd5b505050506040513d601f19601f820116820180604052508101906115ed9190612699565b508473ffffffffffffffffffffffffffffffffffffffff1663095ea7b383856040518363ffffffff1660e01b8152600401611629929190612ad4565b6020604051808303816000875af1158015611648573d6000803e3d6000fd5b505050506040513d601f19601f8201168201806040525081019061166c9190612699565b508173ffffffffffffffffffffffffffffffffffffffff1663dc1716248373ffffffffffffffffffffffffffffffffffffffff166354cf2aeb6040518163ffffffff1660e01b8152600401602060405180830381865afa1580156116d4573d6000803e3d6000fd5b505050506040513d601f19601f820116820180604052508101906116f89190612758565b856040518363ffffffff1660e01b81526004016117159190612574565b60206040518083038185885af1158015611733573d6000803e3d6000fd5b50505050506040513d601f19601f820116820180604052508101906117589190612758565b505b6000818573ffffffffffffffffffffffffffffffffffffffff166370a08231306040518263ffffffff1660e01b8152600401611796919061259e565b602060405180830381865afa1580156117b3573d6000803e3d6000fd5b505050506040513d601f19601f820116820180604052508101906117d79190612758565b6117e19190612bde565b90508473ffffffffffffffffffffffffffffffffffffffff1663a9059cbb33836040518363ffffffff1660e01b815260040161181e929190612ad4565b6020604051808303816000875af115801561183d573d6000803e3d6000fd5b505050506040513d601f19601f820116820180604052508101906118619190612699565b5060008373ffffffffffffffffffffffffffffffffffffffff166354cf2aeb6040518163ffffffff1660e01b8152600401602060405180830381865afa1580156118af573d6000803e3d6000fd5b505050506040513d601f19601f820116820180604052508101906118d39190612758565b346118de9190612bde565b905060003373ffffffffffffffffffffffffffffffffffffffff168260405161190690612c43565b60006040518083038185875af1925050503d8060008114611943576040519150601f19603f3d011682016040523d82523d6000602084013e611948565b606091505b505090508061198c576040517f08c379a000000000000000000000000000000000000000000000000000000000815260040161198390612ca4565b60405180910390fd5b5050505050612409565b600073ffffffffffffffffffffffffffffffffffffffff166119b884846105b0565b73ffffffffffffffffffffffffffffffffffffffff16146123d65760006119df84846105b0565b905060008060009054906101000a900473ffffffffffffffffffffffffffffffffffffffff1673ffffffffffffffffffffffffffffffffffffffff16638b273a6886846040518363ffffffff1660e01b8152600401611a3f929190612638565b602060405180830381865afa158015611a5c573d6000803e3d6000fd5b505050506040513d601f19601f82011682018060405250810190611a809190612716565b905060008060009054906101000a900473ffffffffffffffffffffffffffffffffffffffff1673ffffffffffffffffffffffffffffffffffffffff16638b273a6886856040518363ffffffff1660e01b8152600401611ae0929190612638565b602060405180830381865afa158015611afd573d6000803e3d6000fd5b505050506040513d601f19601f82011682018060405250810190611b219190612716565b905060008673ffffffffffffffffffffffffffffffffffffffff166323b872dd3330886040518463ffffffff1660e01b8152600401611b6293929190612ba7565b6020604051808303816000875af1158015611b81573d6000803e3d6000fd5b505050506040513d601f19601f82011682018060405250810190611ba59190612699565b508673ffffffffffffffffffffffffffffffffffffffff1663095ea7b384876040518363ffffffff1660e01b8152600401611be1929190612ad4565b6020604051808303816000875af1158015611c00573d6000803e3d6000fd5b505050506040513d601f19601f82011682018060405250810190611c249190612699565b508673ffffffffffffffffffffffffffffffffffffffff168373ffffffffffffffffffffffffffffffffffffffff1663ce5efee36040518163ffffffff1660e01b8152600401602060405180830381865afa158015611c87573d6000803e3d6000fd5b505050506040513d601f19601f82011682018060405250810190611cab9190612b7a565b73ffffffffffffffffffffffffffffffffffffffff1603611db8578273ffffffffffffffffffffffffffffffffffffffff16634257dc4c8473ffffffffffffffffffffffffffffffffffffffff166354cf2aeb6040518163ffffffff1660e01b8152600401602060405180830381865afa158015611d2d573d6000803e3d6000fd5b505050506040513d601f19601f82011682018060405250810190611d519190612758565b876040518363ffffffff1660e01b8152600401611d6e9190612574565b60206040518083038185885af1158015611d8c573d6000803e3d6000fd5b50505050506040513d601f19601f82011682018060405250810190611db19190612758565b9050611ea6565b8273ffffffffffffffffffffffffffffffffffffffff1663dc1716248473ffffffffffffffffffffffffffffffffffffffff166354cf2aeb6040518163ffffffff1660e01b8152600401602060405180830381865afa158015611e1f573d6000803e3d6000fd5b505050506040513d601f19601f82011682018060405250810190611e439190612758565b876040518363ffffffff1660e01b8152600401611e609190612574565b60206040518083038185885af1158015611e7e573d6000803e3d6000fd5b50505050506040513d601f19601f82011682018060405250810190611ea39190612758565b90505b60008473ffffffffffffffffffffffffffffffffffffffff1663095ea7b384846040518363ffffffff1660e01b8152600401611ee3929190612ad4565b6020604051808303816000875af1158015611f02573d6000803e3d6000fd5b505050506040513d601f19601f82011682018060405250810190611f269190612699565b508473ffffffffffffffffffffffffffffffffffffffff168373ffffffffffffffffffffffffffffffffffffffff1663ce5efee36040518163ffffffff1660e01b8152600401602060405180830381865afa158015611f89573d6000803e3d6000fd5b505050506040513d601f19601f82011682018060405250810190611fad9190612b7a565b73ffffffffffffffffffffffffffffffffffffffff16036120ba578273ffffffffffffffffffffffffffffffffffffffff16634257dc4c8473ffffffffffffffffffffffffffffffffffffffff166354cf2aeb6040518163ffffffff1660e01b8152600401602060405180830381865afa15801561202f573d6000803e3d6000fd5b505050506040513d601f19601f820116820180604052508101906120539190612758565b846040518363ffffffff1660e01b81526004016120709190612574565b60206040518083038185885af115801561208e573d6000803e3d6000fd5b50505050506040513d601f19601f820116820180604052508101906120b39190612758565b90506121a8565b8273ffffffffffffffffffffffffffffffffffffffff1663dc1716248473ffffffffffffffffffffffffffffffffffffffff166354cf2aeb6040518163ffffffff1660e01b8152600401602060405180830381865afa158015612121573d6000803e3d6000fd5b505050506040513d601f19601f820116820180604052508101906121459190612758565b846040518363ffffffff1660e01b81526004016121629190612574565b60206040518083038185885af1158015612180573d6000803e3d6000fd5b50505050506040513d601f19601f820116820180604052508101906121a59190612758565b90505b8673ffffffffffffffffffffffffffffffffffffffff1663a9059cbb33836040518363ffffffff1660e01b81526004016121e3929190612ad4565b6020604051808303816000875af1158015612202573d6000803e3d6000fd5b505050506040513d601f19601f820116820180604052508101906122269190612699565b5060008373ffffffffffffffffffffffffffffffffffffffff166354cf2aeb6040518163ffffffff1660e01b8152600401602060405180830381865afa158015612274573d6000803e3d6000fd5b505050506040513d601f19601f820116820180604052508101906122989190612758565b8573ffffffffffffffffffffffffffffffffffffffff166354cf2aeb6040518163ffffffff1660e01b8152600401602060405180830381865afa1580156122e3573d6000803e3d6000fd5b505050506040513d601f19601f820116820180604052508101906123079190612758565b346123129190612bde565b61231c9190612bde565b905060003373ffffffffffffffffffffffffffffffffffffffff168260405161234490612c43565b60006040518083038185875af1925050503d8060008114612381576040519150601f19603f3d011682016040523d82523d6000602084013e612386565b606091505b50509050806123ca576040517f08c379a00000000000000000000000000000000000000000000000000000000081526004016123c190612ca4565b60405180910390fd5b50505050505050612408565b6040517f8bb120b500000000000000000000000000000000000000000000000000000000815260040160405180910390fd5b5b60008060146101000a81548160ff021916908315150217905550505050565b6000808273ffffffffffffffffffffffffffffffffffffffff1663feaf968c6040518163ffffffff1660e01b815260040160a060405180830381865afa158015612476573d6000803e3d6000fd5b505050506040513d601f19601f8201168201806040525081019061249a9190612d32565b50505091505080915050919050565b6000604051905090565b600080fd5b600080fd5b600073ffffffffffffffffffffffffffffffffffffffff82169050919050565b60006124e8826124bd565b9050919050565b6124f8816124dd565b811461250357600080fd5b50565b600081359050612515816124ef565b92915050565b60008060408385031215612532576125316124b3565b5b600061254085828601612506565b925050602061255185828601612506565b9150509250929050565b6000819050919050565b61256e8161255b565b82525050565b60006020820190506125896000830184612565565b92915050565b612598816124dd565b82525050565b60006020820190506125b3600083018461258f565b92915050565b6125c28161255b565b81146125cd57600080fd5b50565b6000813590506125df816125b9565b92915050565b6000806000606084860312156125fe576125fd6124b3565b5b600061260c86828701612506565b935050602061261d86828701612506565b925050604061262e868287016125d0565b9150509250925092565b600060408201905061264d600083018561258f565b61265a602083018461258f565b9392505050565b60008115159050919050565b61267681612661565b811461268157600080fd5b50565b6000815190506126938161266d565b92915050565b6000602082840312156126af576126ae6124b3565b5b60006126bd84828501612684565b91505092915050565b60006126d1826124bd565b9050919050565b60006126e3826126c6565b9050919050565b6126f3816126d8565b81146126fe57600080fd5b50565b600081519050612710816126ea565b92915050565b60006020828403121561272c5761272b6124b3565b5b600061273a84828501612701565b91505092915050565b600081519050612752816125b9565b92915050565b60006020828403121561276e5761276d6124b3565b5b600061277c84828501612743565b91505092915050565b7f4e487b7100000000000000000000000000000000000000000000000000000000600052601160045260246000fd5b60006127bf8261255b565b91506127ca8361255b565b92508282019050808211156127e2576127e1612785565b5b92915050565b600080fd5b6000601f19601f8301169050919050565b7f4e487b7100000000000000000000000000000000000000000000000000000000600052604160045260246000fd5b612836826127ed565b810181811067ffffffffffffffff82111715612855576128546127fe565b5b80604052505050565b60006128686124a9565b9050612874828261282d565b919050565b600067ffffffffffffffff821115612894576128936127fe565b5b602082029050602081019050919050565b600080fd5b6000815190506128b9816124ef565b92915050565b60006128d26128cd84612879565b61285e565b905080838252602082019050602084028301858111156128f5576128f46128a5565b5b835b8181101561291e578061290a88826128aa565b8452602084019350506020810190506128f7565b5050509392505050565b600082601f83011261293d5761293c6127e8565b5b815161294d8482602086016128bf565b91505092915050565b60006020828403121561296c5761296b6124b3565b5b600082015167ffffffffffffffff81111561298a576129896124b8565b5b61299684828501612928565b91505092915050565b7f4e487b7100000000000000000000000000000000000000000000000000000000600052603260045260246000fd5b600080604083850312156129e5576129e46124b3565b5b60006129f3858286016128aa565b9250506020612a04858286016128aa565b9150509250929050565b6000819050919050565b6000612a2382612a0e565b9150612a2e83612a0e565b925082820190508281121560008312168382126000841215161715612a5657612a55612785565b5b92915050565b6000612a6782612a0e565b9150612a7283612a0e565b9250828202612a8081612a0e565b91507f80000000000000000000000000000000000000000000000000000000000000008414600084121615612ab857612ab7612785565b5b8282058414831517612acd57612acc612785565b5b5092915050565b6000604082019050612ae9600083018561258f565b612af66020830184612565565b9392505050565b600082825260208201905092915050565b7f4e6f2072652d656e7472616e6379000000000000000000000000000000000000600082015250565b6000612b44600e83612afd565b9150612b4f82612b0e565b602082019050919050565b60006020820190508181036000830152612b7381612b37565b9050919050565b600060208284031215612b9057612b8f6124b3565b5b6000612b9e848285016128aa565b91505092915050565b6000606082019050612bbc600083018661258f565b612bc9602083018561258f565b612bd66040830184612565565b949350505050565b6000612be98261255b565b9150612bf48361255b565b9250828203905081811115612c0c57612c0b612785565b5b92915050565b600081905092915050565b50565b6000612c2d600083612c12565b9150612c3882612c1d565b600082019050919050565b6000612c4e82612c20565b9150819050919050565b7f4661696c656420746f2073656e64204574686572000000000000000000000000600082015250565b6000612c8e601483612afd565b9150612c9982612c58565b602082019050919050565b60006020820190508181036000830152612cbd81612c81565b9050919050565b600069ffffffffffffffffffff82169050919050565b612ce381612cc4565b8114612cee57600080fd5b50565b600081519050612d0081612cda565b92915050565b612d0f81612a0e565b8114612d1a57600080fd5b50565b600081519050612d2c81612d06565b92915050565b600080600080600060a08688031215612d4e57612d4d6124b3565b5b6000612d5c88828901612cf1565b9550506020612d6d88828901612d1d565b9450506040612d7e88828901612743565b9350506060612d8f88828901612743565b9250506080612da088828901612cf1565b915050929550929590935056fea2646970667358221220a55c85a410fb7678e01ef71296222f5aec19131bed0de77695c705031873ac3564736f6c63430008180033",
  "linkReferences": {},
  "deployedLinkReferences": {}
}