{
  "_format": "hh-sol-artifact-1",
  "contractName": "YieldCalculator",
  "sourceName": "contracts/Bridge/YieldCalculator.sol",
  "abi": [
    {
      "inputs": [
        {
          "internalType": "address",
          "name": "_zkBridge",
          "type": "address"
        }
      ],
      "stateMutability": "nonpayable",
      "type": "constructor"
    },
    {
      "inputs": [
        {
          "internalType": "uint16",
          "name": "srcChainId",
          "type": "uint16"
        },
        {
          "internalType": "address",
          "name": "srcAddress",
          "type": "address"
        },
        {
          "internalType": "bytes",
          "name": "payload",
          "type": "bytes"
        }
      ],
      "name": "zkReceive",
      "outputs": [],
      "stateMutability": "nonpayable",
      "type": "function"
    }
  ],
  "bytecode": "0x608060405234801561001057600080fd5b50604051610a67380380610a67833981810160405281019061003291906100db565b806000806101000a81548173ffffffffffffffffffffffffffffffffffffffff021916908373ffffffffffffffffffffffffffffffffffffffff16021790555050610108565b600080fd5b600073ffffffffffffffffffffffffffffffffffffffff82169050919050565b60006100a88261007d565b9050919050565b6100b88161009d565b81146100c357600080fd5b50565b6000815190506100d5816100af565b92915050565b6000602082840312156100f1576100f0610078565b5b60006100ff848285016100c6565b91505092915050565b610950806101176000396000f3fe608060405234801561001057600080fd5b506004361061002b5760003560e01c8063742b121814610030575b600080fd5b61004a6004803603810190610045919061050c565b61004c565b005b6000828281019061005d91906105be565b9050600084905060008173ffffffffffffffffffffffffffffffffffffffff16639a61c36a846040518263ffffffff1660e01b815260040161009f91906105fa565b602060405180830381865afa1580156100bc573d6000803e3d6000fd5b505050506040513d601f19601f820116820180604052508101906100e0919061064b565b905060008273ffffffffffffffffffffffffffffffffffffffff16631a6865026040518163ffffffff1660e01b8152600401602060405180830381865afa15801561012f573d6000803e3d6000fd5b505050506040513d601f19601f82011682018060405250810190610153919061064b565b60648473ffffffffffffffffffffffffffffffffffffffff166324aabb92876040518263ffffffff1660e01b815260040161018e91906105fa565b602060405180830381865afa1580156101ab573d6000803e3d6000fd5b505050506040513d601f19601f820116820180604052508101906101cf919061064b565b6101d991906106a7565b6101e39190610718565b90506000606482836064866101f891906106a7565b6102029190610718565b8673ffffffffffffffffffffffffffffffffffffffff1663285939846040518163ffffffff1660e01b8152600401602060405180830381865afa15801561024d573d6000803e3d6000fd5b505050506040513d601f19601f82011682018060405250810190610271919061064b565b61027b9190610749565b61028591906106a7565b61028f9190610718565b9050600081866040516020016102a692919061078c565b604051602081830303815290604052905060008060009054906101000a900473ffffffffffffffffffffffffffffffffffffffff1673ffffffffffffffffffffffffffffffffffffffff1663207bae8a8c6040518263ffffffff1660e01b815260040161031391906107c4565b602060405180830381865afa158015610330573d6000803e3d6000fd5b505050506040513d601f19601f82011682018060405250810190610354919061064b565b905060008054906101000a900473ffffffffffffffffffffffffffffffffffffffff1673ffffffffffffffffffffffffffffffffffffffff1663b1d995dd828d8d866040518563ffffffff1660e01b81526004016103b49392919061086f565b60206040518083038185885af11580156103d2573d6000803e3d6000fd5b50505050506040513d601f19601f820116820180604052508101906103f791906108ed565b505050505050505050505050565b600080fd5b600080fd5b600061ffff82169050919050565b6104268161040f565b811461043157600080fd5b50565b6000813590506104438161041d565b92915050565b600073ffffffffffffffffffffffffffffffffffffffff82169050919050565b600061047482610449565b9050919050565b61048481610469565b811461048f57600080fd5b50565b6000813590506104a18161047b565b92915050565b600080fd5b600080fd5b600080fd5b60008083601f8401126104cc576104cb6104a7565b5b8235905067ffffffffffffffff8111156104e9576104e86104ac565b5b602083019150836001820283011115610505576105046104b1565b5b9250929050565b6000806000806060858703121561052657610525610405565b5b600061053487828801610434565b945050602061054587828801610492565b935050604085013567ffffffffffffffff8111156105665761056561040a565b5b610572878288016104b6565b925092505092959194509250565b600061058b82610449565b9050919050565b61059b81610580565b81146105a657600080fd5b50565b6000813590506105b881610592565b92915050565b6000602082840312156105d4576105d3610405565b5b60006105e2848285016105a9565b91505092915050565b6105f481610469565b82525050565b600060208201905061060f60008301846105eb565b92915050565b6000819050919050565b61062881610615565b811461063357600080fd5b50565b6000815190506106458161061f565b92915050565b60006020828403121561066157610660610405565b5b600061066f84828501610636565b91505092915050565b7f4e487b7100000000000000000000000000000000000000000000000000000000600052601160045260246000fd5b60006106b282610615565b91506106bd83610615565b92508282026106cb81610615565b915082820484148315176106e2576106e1610678565b5b5092915050565b7f4e487b7100000000000000000000000000000000000000000000000000000000600052601260045260246000fd5b600061072382610615565b915061072e83610615565b92508261073e5761073d6106e9565b5b828204905092915050565b600061075482610615565b915061075f83610615565b925082820390508181111561077757610776610678565b5b92915050565b61078681610615565b82525050565b60006040820190506107a1600083018561077d565b6107ae60208301846105eb565b9392505050565b6107be8161040f565b82525050565b60006020820190506107d960008301846107b5565b92915050565b600081519050919050565b600082825260208201905092915050565b60005b838110156108195780820151818401526020810190506107fe565b60008484015250505050565b6000601f19601f8301169050919050565b6000610841826107df565b61084b81856107ea565b935061085b8185602086016107fb565b61086481610825565b840191505092915050565b600060608201905061088460008301866107b5565b61089160208301856105eb565b81810360408301526108a38184610836565b9050949350505050565b600067ffffffffffffffff82169050919050565b6108ca816108ad565b81146108d557600080fd5b50565b6000815190506108e7816108c1565b92915050565b60006020828403121561090357610902610405565b5b6000610911848285016108d8565b9150509291505056fea26469706673582212207c8b14ca540e5c2ae9443fa81f3c7e60ad0b38b723aaedc0b5433c34b9fdf05164736f6c63430008180033",
  "linkReferences": {},
  "deployedLinkReferences": {}
}